{
	"contracts/voting.sol": {
		"voting": {
			"abi": [
				{
					"inputs": [],
					"stateMutability": "nonpayable",
					"type": "constructor"
				},
				{
					"inputs": [
						{
							"internalType": "string",
							"name": "_candidate",
							"type": "string"
						}
					],
					"name": "Vote",
					"outputs": [],
					"stateMutability": "nonpayable",
					"type": "function"
				},
				{
					"inputs": [],
					"name": "Winner",
					"outputs": [
						{
							"internalType": "string",
							"name": "",
							"type": "string"
						}
					],
					"stateMutability": "view",
					"type": "function"
				},
				{
					"inputs": [
						{
							"internalType": "string",
							"name": "_candidateName",
							"type": "string"
						},
						{
							"internalType": "uint256",
							"name": "_candidateAge",
							"type": "uint256"
						},
						{
							"internalType": "string",
							"name": "_candidateId",
							"type": "string"
						}
					],
					"name": "candidateRegistration",
					"outputs": [],
					"stateMutability": "nonpayable",
					"type": "function"
				},
				{
					"inputs": [],
					"name": "seeCandidates",
					"outputs": [
						{
							"internalType": "string[]",
							"name": "",
							"type": "string[]"
						}
					],
					"stateMutability": "view",
					"type": "function"
				},
				{
					"inputs": [],
					"name": "seeResults",
					"outputs": [
						{
							"internalType": "string",
							"name": "",
							"type": "string"
						}
					],
					"stateMutability": "view",
					"type": "function"
				},
				{
					"inputs": [
						{
							"internalType": "string",
							"name": "_candidate",
							"type": "string"
						}
					],
					"name": "seeVotes",
					"outputs": [
						{
							"internalType": "uint256",
							"name": "",
							"type": "uint256"
						}
					],
					"stateMutability": "view",
					"type": "function"
				}
			],
			"devdoc": {
				"kind": "dev",
				"methods": {},
				"version": 1
			},
			"evm": {
				"assembly": "    /* \"contracts/voting.sol\":58:4603  contract voting {... */\n  mstore(0x40, 0x80)\n    /* \"contracts/voting.sol\":223:335  constructor() {... */\n  callvalue\n  dup1\n  iszero\n  tag_1\n  jumpi\n  0x00\n  dup1\n  revert\ntag_1:\n  pop\n    /* \"contracts/voting.sol\":271:281  msg.sender */\n  caller\n    /* \"contracts/voting.sol\":248:268  contractAddressOwner */\n  0x00\n  dup1\n    /* \"contracts/voting.sol\":248:281  contractAddressOwner = msg.sender */\n  0x0100\n  exp\n  dup2\n  sload\n  dup2\n  0xffffffffffffffffffffffffffffffffffffffff\n  mul\n  not\n  and\n  swap1\n  dup4\n  0xffffffffffffffffffffffffffffffffffffffff\n  and\n  mul\n  or\n  swap1\n  sstore\n  pop\n    /* \"contracts/voting.sol\":312:327  block.timestamp */\n  timestamp\n    /* \"contracts/voting.sol\":292:309  voting_start_time */\n  0x01\n    /* \"contracts/voting.sol\":292:327  voting_start_time = block.timestamp */\n  dup2\n  swap1\n  sstore\n  pop\n    /* \"contracts/voting.sol\":58:4603  contract voting {... */\n  dataSize(sub_0)\n  dup1\n  dataOffset(sub_0)\n  0x00\n  codecopy\n  0x00\n  return\nstop\n\nsub_0: assembly {\n        /* \"contracts/voting.sol\":58:4603  contract voting {... */\n      mstore(0x40, 0x80)\n      callvalue\n      dup1\n      iszero\n      tag_1\n      jumpi\n      0x00\n      dup1\n      revert\n    tag_1:\n      pop\n      jumpi(tag_2, lt(calldatasize, 0x04))\n      shr(0xe0, calldataload(0x00))\n      dup1\n      0x032a08d9\n      eq\n      tag_3\n      jumpi\n      dup1\n      0x323082d7\n      eq\n      tag_4\n      jumpi\n      dup1\n      0x33bbc887\n      eq\n      tag_5\n      jumpi\n      dup1\n      0xb2b98ed2\n      eq\n      tag_6\n      jumpi\n      dup1\n      0xbc9cd2ce\n      eq\n      tag_7\n      jumpi\n      dup1\n      0xc03cd5d1\n      eq\n      tag_8\n      jumpi\n    tag_2:\n      0x00\n      dup1\n      revert\n        /* \"contracts/voting.sol\":2776:2899  function seeVotes(string memory _candidate) public view returns(uint) {... */\n    tag_3:\n      tag_9\n      0x04\n      dup1\n      calldatasize\n      sub\n      dup2\n      add\n      swap1\n      tag_10\n      swap2\n      swap1\n      tag_11\n      jump\t// in\n    tag_10:\n      tag_12\n      jump\t// in\n    tag_9:\n      mload(0x40)\n      tag_13\n      swap2\n      swap1\n      tag_14\n      jump\t// in\n    tag_13:\n      mload(0x40)\n      dup1\n      swap2\n      sub\n      swap1\n      return\n        /* \"contracts/voting.sol\":1917:2688  function Vote(string memory _candidate) public {... */\n    tag_4:\n      tag_15\n      0x04\n      dup1\n      calldatasize\n      sub\n      dup2\n      add\n      swap1\n      tag_16\n      swap2\n      swap1\n      tag_11\n      jump\t// in\n    tag_16:\n      tag_17\n      jump\t// in\n    tag_15:\n      stop\n        /* \"contracts/voting.sol\":828:1320  function candidateRegistration(string memory _candidateName, uint _candidateAge, string memory _candidateId) public {... */\n    tag_5:\n      tag_18\n      0x04\n      dup1\n      calldatasize\n      sub\n      dup2\n      add\n      swap1\n      tag_19\n      swap2\n      swap1\n      tag_20\n      jump\t// in\n    tag_19:\n      tag_21\n      jump\t// in\n    tag_18:\n      stop\n        /* \"contracts/voting.sol\":3811:4598  function Winner() public view returns(string memory){... */\n    tag_6:\n      tag_22\n      tag_23\n      jump\t// in\n    tag_22:\n      mload(0x40)\n      tag_24\n      swap2\n      swap1\n      tag_25\n      jump\t// in\n    tag_24:\n      mload(0x40)\n      dup1\n      swap2\n      sub\n      swap1\n      return\n        /* \"contracts/voting.sol\":3443:3774  function seeResults() public view returns(string memory){... */\n    tag_7:\n      tag_26\n      tag_27\n      jump\t// in\n    tag_26:\n      mload(0x40)\n      tag_28\n      swap2\n      swap1\n      tag_25\n      jump\t// in\n    tag_28:\n      mload(0x40)\n      dup1\n      swap2\n      sub\n      swap1\n      return\n        /* \"contracts/voting.sol\":1390:1488  function seeCandidates() public view returns(string[] memory) {... */\n    tag_8:\n      tag_29\n      tag_30\n      jump\t// in\n    tag_29:\n      mload(0x40)\n      tag_31\n      swap2\n      swap1\n      tag_32\n      jump\t// in\n    tag_31:\n      mload(0x40)\n      dup1\n      swap2\n      sub\n      swap1\n      return\n        /* \"contracts/voting.sol\":2776:2899  function seeVotes(string memory _candidate) public view returns(uint) {... */\n    tag_12:\n        /* \"contracts/voting.sol\":2840:2844  uint */\n      0x00\n        /* \"contracts/voting.sol\":2864:2879  candidate_votes */\n      0x03\n        /* \"contracts/voting.sol\":2880:2890  _candidate */\n      dup3\n        /* \"contracts/voting.sol\":2864:2891  candidate_votes[_candidate] */\n      mload(0x40)\n      tag_34\n      swap2\n      swap1\n      tag_35\n      jump\t// in\n    tag_34:\n      swap1\n      dup2\n      mstore\n      0x20\n      add\n      mload(0x40)\n      dup1\n      swap2\n      sub\n      swap1\n      keccak256\n      sload\n        /* \"contracts/voting.sol\":2857:2891  return candidate_votes[_candidate] */\n      swap1\n      pop\n        /* \"contracts/voting.sol\":2776:2899  function seeVotes(string memory _candidate) public view returns(uint) {... */\n      swap2\n      swap1\n      pop\n      jump\t// out\n        /* \"contracts/voting.sol\":1917:2688  function Vote(string memory _candidate) public {... */\n    tag_17:\n        /* \"contracts/voting.sol\":2022:2031  5 minutes */\n      0x012c\n        /* \"contracts/voting.sol\":2002:2019  voting_start_time */\n      sload(0x01)\n        /* \"contracts/voting.sol\":2002:2031  voting_start_time + 5 minutes */\n      tag_37\n      swap2\n      swap1\n      tag_38\n      jump\t// in\n    tag_37:\n        /* \"contracts/voting.sol\":1985:2000  block.timestamp */\n      timestamp\n        /* \"contracts/voting.sol\":1985:2031  block.timestamp<=voting_start_time + 5 minutes */\n      gt\n      iszero\n        /* \"contracts/voting.sol\":1977:2056  require(block.timestamp<=voting_start_time + 5 minutes, \"Voting time expired.\") */\n      tag_39\n      jumpi\n      mload(0x40)\n      0x08c379a000000000000000000000000000000000000000000000000000000000\n      dup2\n      mstore\n      0x04\n      add\n      tag_40\n      swap1\n      tag_41\n      jump\t// in\n    tag_40:\n      mload(0x40)\n      dup1\n      swap2\n      sub\n      swap1\n      revert\n    tag_39:\n        /* \"contracts/voting.sol\":2077:2095  bytes32 voter_hash */\n      0x00\n        /* \"contracts/voting.sol\":2125:2135  msg.sender */\n      caller\n        /* \"contracts/voting.sol\":2108:2136  abi.encodePacked(msg.sender) */\n      add(0x20, mload(0x40))\n      tag_42\n      swap2\n      swap1\n      tag_43\n      jump\t// in\n    tag_42:\n      mload(0x40)\n      0x20\n      dup2\n      dup4\n      sub\n      sub\n      dup2\n      mstore\n      swap1\n      0x40\n      mstore\n        /* \"contracts/voting.sol\":2098:2137  keccak256(abi.encodePacked(msg.sender)) */\n      dup1\n      mload\n      swap1\n      0x20\n      add\n      keccak256\n        /* \"contracts/voting.sol\":2077:2137  bytes32 voter_hash = keccak256(abi.encodePacked(msg.sender)) */\n      swap1\n      pop\n        /* \"contracts/voting.sol\":2154:2160  uint i */\n      0x00\n        /* \"contracts/voting.sol\":2150:2275  for(uint i = 0; i < voters.length; i++){... */\n    tag_44:\n        /* \"contracts/voting.sol\":2170:2176  voters */\n      0x05\n        /* \"contracts/voting.sol\":2170:2183  voters.length */\n      dup1\n      sload\n      swap1\n      pop\n        /* \"contracts/voting.sol\":2166:2167  i */\n      dup2\n        /* \"contracts/voting.sol\":2166:2183  i < voters.length */\n      lt\n        /* \"contracts/voting.sol\":2150:2275  for(uint i = 0; i < voters.length; i++){... */\n      iszero\n      tag_45\n      jumpi\n        /* \"contracts/voting.sol\":2225:2235  voter_hash */\n      dup2\n        /* \"contracts/voting.sol\":2212:2218  voters */\n      0x05\n        /* \"contracts/voting.sol\":2219:2220  i */\n      dup3\n        /* \"contracts/voting.sol\":2212:2221  voters[i] */\n      dup2\n      sload\n      dup2\n      lt\n      tag_47\n      jumpi\n      tag_48\n      tag_49\n      jump\t// in\n    tag_48:\n    tag_47:\n      swap1\n      0x00\n      mstore\n      keccak256(0x00, 0x20)\n      add\n      sload\n        /* \"contracts/voting.sol\":2212:2235  voters[i] != voter_hash */\n      sub\n        /* \"contracts/voting.sol\":2204:2263  require(voters[i] != voter_hash, \"You have already voted!\") */\n      tag_51\n      jumpi\n      mload(0x40)\n      0x08c379a000000000000000000000000000000000000000000000000000000000\n      dup2\n      mstore\n      0x04\n      add\n      tag_52\n      swap1\n      tag_53\n      jump\t// in\n    tag_52:\n      mload(0x40)\n      dup1\n      swap2\n      sub\n      swap1\n      revert\n    tag_51:\n        /* \"contracts/voting.sol\":2185:2188  i++ */\n      dup1\n      dup1\n      0x01\n      add\n      swap2\n      pop\n      pop\n        /* \"contracts/voting.sol\":2150:2275  for(uint i = 0; i < voters.length; i++){... */\n      jump(tag_44)\n    tag_45:\n      pop\n        /* \"contracts/voting.sol\":2287:2293  voters */\n      0x05\n        /* \"contracts/voting.sol\":2299:2309  voter_hash */\n      dup2\n        /* \"contracts/voting.sol\":2287:2310  voters.push(voter_hash) */\n      swap1\n      dup1\n      0x01\n      dup2\n      sload\n      add\n      dup1\n      dup3\n      sstore\n      dup1\n      swap2\n      pop\n      pop\n      0x01\n      swap1\n      sub\n      swap1\n      0x00\n      mstore\n      keccak256(0x00, 0x20)\n      add\n      0x00\n      swap1\n      swap2\n      swap1\n      swap2\n      swap1\n      swap2\n      pop\n      sstore\n        /* \"contracts/voting.sol\":2331:2340  bool flag */\n      0x00\n        /* \"contracts/voting.sol\":2373:2379  uint j */\n      dup1\n        /* \"contracts/voting.sol\":2369:2571  for(uint j = 0; j < candidates.length; j++){... */\n    tag_55:\n        /* \"contracts/voting.sol\":2389:2399  candidates */\n      0x04\n        /* \"contracts/voting.sol\":2389:2406  candidates.length */\n      dup1\n      sload\n      swap1\n      pop\n        /* \"contracts/voting.sol\":2385:2386  j */\n      dup2\n        /* \"contracts/voting.sol\":2385:2406  j < candidates.length */\n      lt\n        /* \"contracts/voting.sol\":2369:2571  for(uint j = 0; j < candidates.length; j++){... */\n      iszero\n      tag_56\n      jumpi\n        /* \"contracts/voting.sol\":2503:2513  _candidate */\n      dup4\n        /* \"contracts/voting.sol\":2486:2514  abi.encodePacked(_candidate) */\n      add(0x20, mload(0x40))\n      tag_58\n      swap2\n      swap1\n      tag_35\n      jump\t// in\n    tag_58:\n      mload(0x40)\n      0x20\n      dup2\n      dup4\n      sub\n      sub\n      dup2\n      mstore\n      swap1\n      0x40\n      mstore\n        /* \"contracts/voting.sol\":2476:2515  keccak256(abi.encodePacked(_candidate)) */\n      dup1\n      mload\n      swap1\n      0x20\n      add\n      keccak256\n        /* \"contracts/voting.sol\":2457:2467  candidates */\n      0x04\n        /* \"contracts/voting.sol\":2468:2469  j */\n      dup3\n        /* \"contracts/voting.sol\":2457:2470  candidates[j] */\n      dup2\n      sload\n      dup2\n      lt\n      tag_59\n      jumpi\n      tag_60\n      tag_49\n      jump\t// in\n    tag_60:\n    tag_59:\n      swap1\n      0x00\n      mstore\n      keccak256(0x00, 0x20)\n      add\n        /* \"contracts/voting.sol\":2440:2471  abi.encodePacked(candidates[j]) */\n      add(0x20, mload(0x40))\n      tag_62\n      swap2\n      swap1\n      tag_63\n      jump\t// in\n    tag_62:\n      mload(0x40)\n      0x20\n      dup2\n      dup4\n      sub\n      sub\n      dup2\n      mstore\n      swap1\n      0x40\n      mstore\n        /* \"contracts/voting.sol\":2430:2472  keccak256(abi.encodePacked(candidates[j])) */\n      dup1\n      mload\n      swap1\n      0x20\n      add\n      keccak256\n        /* \"contracts/voting.sol\":2430:2515  keccak256(abi.encodePacked(candidates[j])) == keccak256(abi.encodePacked(_candidate)) */\n      sub\n        /* \"contracts/voting.sol\":2427:2560  if(keccak256(abi.encodePacked(candidates[j])) == keccak256(abi.encodePacked(_candidate))){... */\n      tag_64\n      jumpi\n        /* \"contracts/voting.sol\":2540:2544  true */\n      0x01\n        /* \"contracts/voting.sol\":2535:2544  flag=true */\n      swap2\n      pop\n        /* \"contracts/voting.sol\":2427:2560  if(keccak256(abi.encodePacked(candidates[j])) == keccak256(abi.encodePacked(_candidate))){... */\n    tag_64:\n        /* \"contracts/voting.sol\":2408:2411  j++ */\n      dup1\n      dup1\n      0x01\n      add\n      swap2\n      pop\n      pop\n        /* \"contracts/voting.sol\":2369:2571  for(uint j = 0; j < candidates.length; j++){... */\n      jump(tag_55)\n    tag_56:\n      pop\n        /* \"contracts/voting.sol\":2595:2599  true */\n      0x01\n        /* \"contracts/voting.sol\":2589:2599  flag==true */\n      iszero\n      iszero\n        /* \"contracts/voting.sol\":2589:2593  flag */\n      dup2\n        /* \"contracts/voting.sol\":2589:2599  flag==true */\n      iszero\n      iszero\n      eq\n        /* \"contracts/voting.sol\":2581:2630  require(flag==true, \"No such candidate present.\") */\n      tag_65\n      jumpi\n      mload(0x40)\n      0x08c379a000000000000000000000000000000000000000000000000000000000\n      dup2\n      mstore\n      0x04\n      add\n      tag_66\n      swap1\n      tag_67\n      jump\t// in\n    tag_66:\n      mload(0x40)\n      dup1\n      swap2\n      sub\n      swap1\n      revert\n    tag_65:\n        /* \"contracts/voting.sol\":2651:2666  candidate_votes */\n      0x03\n        /* \"contracts/voting.sol\":2667:2677  _candidate */\n      dup4\n        /* \"contracts/voting.sol\":2651:2678  candidate_votes[_candidate] */\n      mload(0x40)\n      tag_68\n      swap2\n      swap1\n      tag_35\n      jump\t// in\n    tag_68:\n      swap1\n      dup2\n      mstore\n      0x20\n      add\n      mload(0x40)\n      dup1\n      swap2\n      sub\n      swap1\n      keccak256\n      0x00\n        /* \"contracts/voting.sol\":2651:2680  candidate_votes[_candidate]++ */\n      dup2\n      sload\n      dup1\n      swap3\n      swap2\n      swap1\n      tag_69\n      swap1\n      tag_70\n      jump\t// in\n    tag_69:\n      swap2\n      swap1\n      pop\n      sstore\n      pop\n        /* \"contracts/voting.sol\":1964:2688  {... */\n      pop\n      pop\n        /* \"contracts/voting.sol\":1917:2688  function Vote(string memory _candidate) public {... */\n      pop\n      jump\t// out\n        /* \"contracts/voting.sol\":828:1320  function candidateRegistration(string memory _candidateName, uint _candidateAge, string memory _candidateId) public {... */\n    tag_21:\n        /* \"contracts/voting.sol\":1044:1053  5 minutes */\n      0x012c\n        /* \"contracts/voting.sol\":1024:1041  voting_start_time */\n      sload(0x01)\n        /* \"contracts/voting.sol\":1024:1053  voting_start_time + 5 minutes */\n      tag_72\n      swap2\n      swap1\n      tag_38\n      jump\t// in\n    tag_72:\n        /* \"contracts/voting.sol\":1006:1021  block.timestamp */\n      timestamp\n        /* \"contracts/voting.sol\":1006:1054  block.timestamp<=(voting_start_time + 5 minutes) */\n      gt\n      iszero\n        /* \"contracts/voting.sol\":998:1096  require(block.timestamp<=(voting_start_time + 5 minutes), \"Candidates can no longer be submitted\") */\n      tag_73\n      jumpi\n      mload(0x40)\n      0x08c379a000000000000000000000000000000000000000000000000000000000\n      dup2\n      mstore\n      0x04\n      add\n      tag_74\n      swap1\n      tag_75\n      jump\t// in\n    tag_74:\n      mload(0x40)\n      dup1\n      swap2\n      sub\n      swap1\n      revert\n    tag_73:\n        /* \"contracts/voting.sol\":1107:1129  bytes32 candidate_hash */\n      0x00\n        /* \"contracts/voting.sol\":1159:1173  _candidateName */\n      dup4\n        /* \"contracts/voting.sol\":1175:1188  _candidateAge */\n      dup4\n        /* \"contracts/voting.sol\":1190:1202  _candidateId */\n      dup4\n        /* \"contracts/voting.sol\":1142:1203  abi.encodePacked(_candidateName, _candidateAge, _candidateId) */\n      add(0x20, mload(0x40))\n      tag_76\n      swap4\n      swap3\n      swap2\n      swap1\n      tag_77\n      jump\t// in\n    tag_76:\n      mload(0x40)\n      0x20\n      dup2\n      dup4\n      sub\n      sub\n      dup2\n      mstore\n      swap1\n      0x40\n      mstore\n        /* \"contracts/voting.sol\":1132:1204  keccak256(abi.encodePacked(_candidateName, _candidateAge, _candidateId)) */\n      dup1\n      mload\n      swap1\n      0x20\n      add\n      keccak256\n        /* \"contracts/voting.sol\":1107:1204  bytes32 candidate_hash = keccak256(abi.encodePacked(_candidateName, _candidateAge, _candidateId)) */\n      swap1\n      pop\n        /* \"contracts/voting.sol\":1246:1260  candidate_hash */\n      dup1\n        /* \"contracts/voting.sol\":1215:1227  candidate_ID */\n      0x02\n        /* \"contracts/voting.sol\":1228:1242  _candidateName */\n      dup6\n        /* \"contracts/voting.sol\":1215:1243  candidate_ID[_candidateName] */\n      mload(0x40)\n      tag_78\n      swap2\n      swap1\n      tag_35\n      jump\t// in\n    tag_78:\n      swap1\n      dup2\n      mstore\n      0x20\n      add\n      mload(0x40)\n      dup1\n      swap2\n      sub\n      swap1\n      keccak256\n        /* \"contracts/voting.sol\":1215:1260  candidate_ID[_candidateName] = candidate_hash */\n      dup2\n      swap1\n      sstore\n      pop\n        /* \"contracts/voting.sol\":1271:1281  candidates */\n      0x04\n        /* \"contracts/voting.sol\":1287:1301  _candidateName */\n      dup5\n        /* \"contracts/voting.sol\":1271:1302  candidates.push(_candidateName) */\n      swap1\n      dup1\n      0x01\n      dup2\n      sload\n      add\n      dup1\n      dup3\n      sstore\n      dup1\n      swap2\n      pop\n      pop\n      0x01\n      swap1\n      sub\n      swap1\n      0x00\n      mstore\n      keccak256(0x00, 0x20)\n      add\n      0x00\n      swap1\n      swap2\n      swap1\n      swap2\n      swap1\n      swap2\n      pop\n      swap1\n      dup2\n      tag_80\n      swap2\n      swap1\n      tag_81\n      jump\t// in\n    tag_80:\n      pop\n        /* \"contracts/voting.sol\":944:1320  {... */\n      pop\n        /* \"contracts/voting.sol\":828:1320  function candidateRegistration(string memory _candidateName, uint _candidateAge, string memory _candidateId) public {... */\n      pop\n      pop\n      pop\n      jump\t// out\n        /* \"contracts/voting.sol\":3811:4598  function Winner() public view returns(string memory){... */\n    tag_23:\n        /* \"contracts/voting.sol\":3849:3862  string memory */\n      0x60\n        /* \"contracts/voting.sol\":3921:3930  5 minutes */\n      0x012c\n        /* \"contracts/voting.sol\":3901:3918  voting_start_time */\n      sload(0x01)\n        /* \"contracts/voting.sol\":3901:3930  voting_start_time + 5 minutes */\n      tag_83\n      swap2\n      swap1\n      tag_38\n      jump\t// in\n    tag_83:\n        /* \"contracts/voting.sol\":3884:3899  block.timestamp */\n      timestamp\n        /* \"contracts/voting.sol\":3884:3931  block.timestamp>(voting_start_time + 5 minutes) */\n      gt\n        /* \"contracts/voting.sol\":3876:3963  require(block.timestamp>(voting_start_time + 5 minutes), \"Voting is still in progress\") */\n      tag_84\n      jumpi\n      mload(0x40)\n      0x08c379a000000000000000000000000000000000000000000000000000000000\n      dup2\n      mstore\n      0x04\n      add\n      tag_85\n      swap1\n      tag_86\n      jump\t// in\n    tag_85:\n      mload(0x40)\n      dup1\n      swap2\n      sub\n      swap1\n      revert\n    tag_84:\n        /* \"contracts/voting.sol\":3984:4004  string memory winner */\n      0x00\n        /* \"contracts/voting.sol\":4006:4016  candidates */\n      0x04\n        /* \"contracts/voting.sol\":4017:4018  0 */\n      0x00\n        /* \"contracts/voting.sol\":4006:4019  candidates[0] */\n      dup2\n      sload\n      dup2\n      lt\n      tag_87\n      jumpi\n      tag_88\n      tag_49\n      jump\t// in\n    tag_88:\n    tag_87:\n      swap1\n      0x00\n      mstore\n      keccak256(0x00, 0x20)\n      add\n        /* \"contracts/voting.sol\":3984:4019  string memory winner= candidates[0] */\n      dup1\n      sload\n      tag_90\n      swap1\n      tag_91\n      jump\t// in\n    tag_90:\n      dup1\n      0x1f\n      add\n      0x20\n      dup1\n      swap2\n      div\n      mul\n      0x20\n      add\n      mload(0x40)\n      swap1\n      dup2\n      add\n      0x40\n      mstore\n      dup1\n      swap3\n      swap2\n      swap1\n      dup2\n      dup2\n      mstore\n      0x20\n      add\n      dup3\n      dup1\n      sload\n      tag_92\n      swap1\n      tag_91\n      jump\t// in\n    tag_92:\n      dup1\n      iszero\n      tag_93\n      jumpi\n      dup1\n      0x1f\n      lt\n      tag_94\n      jumpi\n      0x0100\n      dup1\n      dup4\n      sload\n      div\n      mul\n      dup4\n      mstore\n      swap2\n      0x20\n      add\n      swap2\n      jump(tag_93)\n    tag_94:\n      dup3\n      add\n      swap2\n      swap1\n      0x00\n      mstore\n      keccak256(0x00, 0x20)\n      swap1\n    tag_95:\n      dup2\n      sload\n      dup2\n      mstore\n      swap1\n      0x01\n      add\n      swap1\n      0x20\n      add\n      dup1\n      dup4\n      gt\n      tag_95\n      jumpi\n      dup3\n      swap1\n      sub\n      0x1f\n      and\n      dup3\n      add\n      swap2\n    tag_93:\n      pop\n      pop\n      pop\n      pop\n      pop\n      swap1\n      pop\n        /* \"contracts/voting.sol\":4030:4039  bool flag */\n      0x00\n        /* \"contracts/voting.sol\":4064:4070  uint i */\n      dup1\n        /* \"contracts/voting.sol\":4073:4074  1 */\n      0x01\n        /* \"contracts/voting.sol\":4064:4074  uint i = 1 */\n      swap1\n      pop\n        /* \"contracts/voting.sol\":4060:4439  for(uint i = 1; i <candidates.length; i++){... */\n    tag_96:\n        /* \"contracts/voting.sol\":4079:4089  candidates */\n      0x04\n        /* \"contracts/voting.sol\":4079:4096  candidates.length */\n      dup1\n      sload\n      swap1\n      pop\n        /* \"contracts/voting.sol\":4076:4077  i */\n      dup2\n        /* \"contracts/voting.sol\":4076:4096  i <candidates.length */\n      lt\n        /* \"contracts/voting.sol\":4060:4439  for(uint i = 1; i <candidates.length; i++){... */\n      iszero\n      tag_97\n      jumpi\n        /* \"contracts/voting.sol\":4160:4175  candidate_votes */\n      0x03\n        /* \"contracts/voting.sol\":4176:4186  candidates */\n      0x04\n        /* \"contracts/voting.sol\":4187:4188  i */\n      dup3\n        /* \"contracts/voting.sol\":4176:4189  candidates[i] */\n      dup2\n      sload\n      dup2\n      lt\n      tag_99\n      jumpi\n      tag_100\n      tag_49\n      jump\t// in\n    tag_100:\n    tag_99:\n      swap1\n      0x00\n      mstore\n      keccak256(0x00, 0x20)\n      add\n        /* \"contracts/voting.sol\":4160:4190  candidate_votes[candidates[i]] */\n      mload(0x40)\n      tag_102\n      swap2\n      swap1\n      tag_63\n      jump\t// in\n    tag_102:\n      swap1\n      dup2\n      mstore\n      0x20\n      add\n      mload(0x40)\n      dup1\n      swap2\n      sub\n      swap1\n      keccak256\n      sload\n        /* \"contracts/voting.sol\":4134:4149  candidate_votes */\n      0x03\n        /* \"contracts/voting.sol\":4150:4156  winner */\n      dup5\n        /* \"contracts/voting.sol\":4134:4157  candidate_votes[winner] */\n      mload(0x40)\n      tag_103\n      swap2\n      swap1\n      tag_35\n      jump\t// in\n    tag_103:\n      swap1\n      dup2\n      mstore\n      0x20\n      add\n      mload(0x40)\n      dup1\n      swap2\n      sub\n      swap1\n      keccak256\n      sload\n        /* \"contracts/voting.sol\":4134:4190  candidate_votes[winner] < candidate_votes[candidates[i]] */\n      lt\n        /* \"contracts/voting.sol\":4131:4428  if(candidate_votes[winner] < candidate_votes[candidates[i]]){... */\n      iszero\n      tag_104\n      jumpi\n        /* \"contracts/voting.sol\":4219:4229  candidates */\n      0x04\n        /* \"contracts/voting.sol\":4230:4231  i */\n      dup2\n        /* \"contracts/voting.sol\":4219:4232  candidates[i] */\n      dup2\n      sload\n      dup2\n      lt\n      tag_105\n      jumpi\n      tag_106\n      tag_49\n      jump\t// in\n    tag_106:\n    tag_105:\n      swap1\n      0x00\n      mstore\n      keccak256(0x00, 0x20)\n      add\n        /* \"contracts/voting.sol\":4210:4232  winner = candidates[i] */\n      dup1\n      sload\n      tag_108\n      swap1\n      tag_91\n      jump\t// in\n    tag_108:\n      dup1\n      0x1f\n      add\n      0x20\n      dup1\n      swap2\n      div\n      mul\n      0x20\n      add\n      mload(0x40)\n      swap1\n      dup2\n      add\n      0x40\n      mstore\n      dup1\n      swap3\n      swap2\n      swap1\n      dup2\n      dup2\n      mstore\n      0x20\n      add\n      dup3\n      dup1\n      sload\n      tag_109\n      swap1\n      tag_91\n      jump\t// in\n    tag_109:\n      dup1\n      iszero\n      tag_110\n      jumpi\n      dup1\n      0x1f\n      lt\n      tag_111\n      jumpi\n      0x0100\n      dup1\n      dup4\n      sload\n      div\n      mul\n      dup4\n      mstore\n      swap2\n      0x20\n      add\n      swap2\n      jump(tag_110)\n    tag_111:\n      dup3\n      add\n      swap2\n      swap1\n      0x00\n      mstore\n      keccak256(0x00, 0x20)\n      swap1\n    tag_112:\n      dup2\n      sload\n      dup2\n      mstore\n      swap1\n      0x01\n      add\n      swap1\n      0x20\n      add\n      dup1\n      dup4\n      gt\n      tag_112\n      jumpi\n      dup3\n      swap1\n      sub\n      0x1f\n      and\n      dup3\n      add\n      swap2\n    tag_110:\n      pop\n      pop\n      pop\n      pop\n      pop\n      swap3\n      pop\n        /* \"contracts/voting.sol\":4256:4261  false */\n      0x00\n        /* \"contracts/voting.sol\":4251:4261  flag=false */\n      swap2\n      pop\n        /* \"contracts/voting.sol\":4131:4428  if(candidate_votes[winner] < candidate_votes[candidates[i]]){... */\n      jump(tag_113)\n    tag_104:\n        /* \"contracts/voting.sol\":4330:4345  candidate_votes */\n      0x03\n        /* \"contracts/voting.sol\":4346:4356  candidates */\n      0x04\n        /* \"contracts/voting.sol\":4357:4358  i */\n      dup3\n        /* \"contracts/voting.sol\":4346:4359  candidates[i] */\n      dup2\n      sload\n      dup2\n      lt\n      tag_114\n      jumpi\n      tag_115\n      tag_49\n      jump\t// in\n    tag_115:\n    tag_114:\n      swap1\n      0x00\n      mstore\n      keccak256(0x00, 0x20)\n      add\n        /* \"contracts/voting.sol\":4330:4360  candidate_votes[candidates[i]] */\n      mload(0x40)\n      tag_117\n      swap2\n      swap1\n      tag_63\n      jump\t// in\n    tag_117:\n      swap1\n      dup2\n      mstore\n      0x20\n      add\n      mload(0x40)\n      dup1\n      swap2\n      sub\n      swap1\n      keccak256\n      sload\n        /* \"contracts/voting.sol\":4303:4318  candidate_votes */\n      0x03\n        /* \"contracts/voting.sol\":4319:4325  winner */\n      dup5\n        /* \"contracts/voting.sol\":4303:4326  candidate_votes[winner] */\n      mload(0x40)\n      tag_118\n      swap2\n      swap1\n      tag_35\n      jump\t// in\n    tag_118:\n      swap1\n      dup2\n      mstore\n      0x20\n      add\n      mload(0x40)\n      dup1\n      swap2\n      sub\n      swap1\n      keccak256\n      sload\n        /* \"contracts/voting.sol\":4303:4360  candidate_votes[winner] == candidate_votes[candidates[i]] */\n      sub\n        /* \"contracts/voting.sol\":4300:4413  if(candidate_votes[winner] == candidate_votes[candidates[i]]){... */\n      tag_119\n      jumpi\n        /* \"contracts/voting.sol\":4389:4393  true */\n      0x01\n        /* \"contracts/voting.sol\":4384:4393  flag=true */\n      swap2\n      pop\n        /* \"contracts/voting.sol\":4300:4413  if(candidate_votes[winner] == candidate_votes[candidates[i]]){... */\n    tag_119:\n        /* \"contracts/voting.sol\":4131:4428  if(candidate_votes[winner] < candidate_votes[candidates[i]]){... */\n    tag_113:\n        /* \"contracts/voting.sol\":4098:4101  i++ */\n      dup1\n      dup1\n      0x01\n      add\n      swap2\n      pop\n      pop\n        /* \"contracts/voting.sol\":4060:4439  for(uint i = 1; i <candidates.length; i++){... */\n      jump(tag_96)\n    tag_97:\n      pop\n        /* \"contracts/voting.sol\":4468:4472  true */\n      0x01\n        /* \"contracts/voting.sol\":4462:4472  flag==true */\n      iszero\n      iszero\n        /* \"contracts/voting.sol\":4462:4466  flag */\n      dup2\n        /* \"contracts/voting.sol\":4462:4472  flag==true */\n      iszero\n      iszero\n      sub\n        /* \"contracts/voting.sol\":4459:4567  if(flag==true){... */\n      tag_120\n      jumpi\n        /* \"contracts/voting.sol\":4488:4541  winner = \"Equal votes between candidates. No winner!\" */\n      mload(0x40)\n      dup1\n      0x60\n      add\n      0x40\n      mstore\n      dup1\n      0x2a\n      dup2\n      mstore\n      0x20\n      add\n      data_4086b3bbe03bd600325d309ca67c774e76e60d64029b09a41a97825a6428ae2c\n      0x2a\n      swap2\n      codecopy\n      swap2\n      pop\n        /* \"contracts/voting.sol\":4459:4567  if(flag==true){... */\n    tag_120:\n        /* \"contracts/voting.sol\":4584:4590  winner */\n      dup2\n        /* \"contracts/voting.sol\":4577:4590  return winner */\n      swap3\n      pop\n      pop\n      pop\n        /* \"contracts/voting.sol\":3811:4598  function Winner() public view returns(string memory){... */\n      swap1\n      jump\t// out\n        /* \"contracts/voting.sol\":3443:3774  function seeResults() public view returns(string memory){... */\n    tag_27:\n        /* \"contracts/voting.sol\":3485:3498  string memory */\n      0x60\n        /* \"contracts/voting.sol\":3510:3531  string memory results */\n      dup1\n        /* \"contracts/voting.sol\":3556:3562  uint i */\n      0x00\n        /* \"contracts/voting.sol\":3552:3734  for(uint i = 0; i < candidates.length; i++){... */\n    tag_122:\n        /* \"contracts/voting.sol\":3572:3582  candidates */\n      0x04\n        /* \"contracts/voting.sol\":3572:3589  candidates.length */\n      dup1\n      sload\n      swap1\n      pop\n        /* \"contracts/voting.sol\":3568:3569  i */\n      dup2\n        /* \"contracts/voting.sol\":3568:3589  i < candidates.length */\n      lt\n        /* \"contracts/voting.sol\":3552:3734  for(uint i = 0; i < candidates.length; i++){... */\n      iszero\n      tag_123\n      jumpi\n        /* \"contracts/voting.sol\":3644:3651  results */\n      dup2\n        /* \"contracts/voting.sol\":3658:3668  candidates */\n      0x04\n        /* \"contracts/voting.sol\":3669:3670  i */\n      dup3\n        /* \"contracts/voting.sol\":3658:3671  candidates[i] */\n      dup2\n      sload\n      dup2\n      lt\n      tag_125\n      jumpi\n      tag_126\n      tag_49\n      jump\t// in\n    tag_126:\n    tag_125:\n      swap1\n      0x00\n      mstore\n      keccak256(0x00, 0x20)\n      add\n        /* \"contracts/voting.sol\":3679:3712  uint2str(seeVotes(candidates[i])) */\n      tag_128\n        /* \"contracts/voting.sol\":3688:3711  seeVotes(candidates[i]) */\n      tag_129\n        /* \"contracts/voting.sol\":3697:3707  candidates */\n      0x04\n        /* \"contracts/voting.sol\":3708:3709  i */\n      dup6\n        /* \"contracts/voting.sol\":3697:3710  candidates[i] */\n      dup2\n      sload\n      dup2\n      lt\n      tag_130\n      jumpi\n      tag_131\n      tag_49\n      jump\t// in\n    tag_131:\n    tag_130:\n      swap1\n      0x00\n      mstore\n      keccak256(0x00, 0x20)\n      add\n        /* \"contracts/voting.sol\":3688:3711  seeVotes(candidates[i]) */\n      dup1\n      sload\n      tag_133\n      swap1\n      tag_91\n      jump\t// in\n    tag_133:\n      dup1\n      0x1f\n      add\n      0x20\n      dup1\n      swap2\n      div\n      mul\n      0x20\n      add\n      mload(0x40)\n      swap1\n      dup2\n      add\n      0x40\n      mstore\n      dup1\n      swap3\n      swap2\n      swap1\n      dup2\n      dup2\n      mstore\n      0x20\n      add\n      dup3\n      dup1\n      sload\n      tag_134\n      swap1\n      tag_91\n      jump\t// in\n    tag_134:\n      dup1\n      iszero\n      tag_135\n      jumpi\n      dup1\n      0x1f\n      lt\n      tag_136\n      jumpi\n      0x0100\n      dup1\n      dup4\n      sload\n      div\n      mul\n      dup4\n      mstore\n      swap2\n      0x20\n      add\n      swap2\n      jump(tag_135)\n    tag_136:\n      dup3\n      add\n      swap2\n      swap1\n      0x00\n      mstore\n      keccak256(0x00, 0x20)\n      swap1\n    tag_137:\n      dup2\n      sload\n      dup2\n      mstore\n      swap1\n      0x01\n      add\n      swap1\n      0x20\n      add\n      dup1\n      dup4\n      gt\n      tag_137\n      jumpi\n      dup3\n      swap1\n      sub\n      0x1f\n      and\n      dup3\n      add\n      swap2\n    tag_135:\n      pop\n      pop\n      pop\n      pop\n      pop\n        /* \"contracts/voting.sol\":3688:3696  seeVotes */\n      tag_12\n        /* \"contracts/voting.sol\":3688:3711  seeVotes(candidates[i]) */\n      jump\t// in\n    tag_129:\n        /* \"contracts/voting.sol\":3679:3687  uint2str */\n      tag_138\n        /* \"contracts/voting.sol\":3679:3712  uint2str(seeVotes(candidates[i])) */\n      jump\t// in\n    tag_128:\n        /* \"contracts/voting.sol\":3627:3721  abi.encodePacked(results, \"(\", candidates[i], \", \", uint2str(seeVotes(candidates[i])), \")---\") */\n      add(0x20, mload(0x40))\n      tag_139\n      swap4\n      swap3\n      swap2\n      swap1\n      tag_140\n      jump\t// in\n    tag_139:\n      mload(0x40)\n      0x20\n      dup2\n      dup4\n      sub\n      sub\n      dup2\n      mstore\n      swap1\n      0x40\n      mstore\n        /* \"contracts/voting.sol\":3610:3722  results = string(abi.encodePacked(results, \"(\", candidates[i], \", \", uint2str(seeVotes(candidates[i])), \")---\")) */\n      swap2\n      pop\n        /* \"contracts/voting.sol\":3591:3594  i++ */\n      dup1\n      dup1\n      0x01\n      add\n      swap2\n      pop\n      pop\n        /* \"contracts/voting.sol\":3552:3734  for(uint i = 0; i < candidates.length; i++){... */\n      jump(tag_122)\n    tag_123:\n      pop\n        /* \"contracts/voting.sol\":3759:3766  results */\n      dup1\n        /* \"contracts/voting.sol\":3752:3766  return results */\n      swap2\n      pop\n      pop\n        /* \"contracts/voting.sol\":3443:3774  function seeResults() public view returns(string memory){... */\n      swap1\n      jump\t// out\n        /* \"contracts/voting.sol\":1390:1488  function seeCandidates() public view returns(string[] memory) {... */\n    tag_30:\n        /* \"contracts/voting.sol\":1435:1450  string[] memory */\n      0x60\n        /* \"contracts/voting.sol\":1470:1480  candidates */\n      0x04\n        /* \"contracts/voting.sol\":1463:1480  return candidates */\n      dup1\n      sload\n      dup1\n      0x20\n      mul\n      0x20\n      add\n      mload(0x40)\n      swap1\n      dup2\n      add\n      0x40\n      mstore\n      dup1\n      swap3\n      swap2\n      swap1\n      dup2\n      dup2\n      mstore\n      0x20\n      add\n      0x00\n      swap1\n    tag_142:\n      dup3\n      dup3\n      lt\n      iszero\n      tag_143\n      jumpi\n      dup4\n      dup3\n      swap1\n      0x00\n      mstore\n      keccak256(0x00, 0x20)\n      add\n      dup1\n      sload\n      tag_145\n      swap1\n      tag_91\n      jump\t// in\n    tag_145:\n      dup1\n      0x1f\n      add\n      0x20\n      dup1\n      swap2\n      div\n      mul\n      0x20\n      add\n      mload(0x40)\n      swap1\n      dup2\n      add\n      0x40\n      mstore\n      dup1\n      swap3\n      swap2\n      swap1\n      dup2\n      dup2\n      mstore\n      0x20\n      add\n      dup3\n      dup1\n      sload\n      tag_146\n      swap1\n      tag_91\n      jump\t// in\n    tag_146:\n      dup1\n      iszero\n      tag_147\n      jumpi\n      dup1\n      0x1f\n      lt\n      tag_148\n      jumpi\n      0x0100\n      dup1\n      dup4\n      sload\n      div\n      mul\n      dup4\n      mstore\n      swap2\n      0x20\n      add\n      swap2\n      jump(tag_147)\n    tag_148:\n      dup3\n      add\n      swap2\n      swap1\n      0x00\n      mstore\n      keccak256(0x00, 0x20)\n      swap1\n    tag_149:\n      dup2\n      sload\n      dup2\n      mstore\n      swap1\n      0x01\n      add\n      swap1\n      0x20\n      add\n      dup1\n      dup4\n      gt\n      tag_149\n      jumpi\n      dup3\n      swap1\n      sub\n      0x1f\n      and\n      dup3\n      add\n      swap2\n    tag_147:\n      pop\n      pop\n      pop\n      pop\n      pop\n      dup2\n      mstore\n      0x20\n      add\n      swap1\n      0x01\n      add\n      swap1\n      jump(tag_142)\n    tag_143:\n      pop\n      pop\n      pop\n      pop\n      swap1\n      pop\n        /* \"contracts/voting.sol\":1390:1488  function seeCandidates() public view returns(string[] memory) {... */\n      swap1\n      jump\t// out\n        /* \"contracts/voting.sol\":2948:3394  function uint2str(uint _i) internal pure returns (string memory _uintAsString) {... */\n    tag_138:\n        /* \"contracts/voting.sol\":2998:3025  string memory _uintAsString */\n      0x60\n        /* \"contracts/voting.sol\":3044:3045  0 */\n      0x00\n        /* \"contracts/voting.sol\":3038:3040  _i */\n      dup3\n        /* \"contracts/voting.sol\":3038:3045  _i == 0 */\n      sub\n        /* \"contracts/voting.sol\":3034:3076  if (_i == 0) {... */\n      tag_151\n      jumpi\n        /* \"contracts/voting.sol\":3058:3068  return \"0\" */\n      mload(0x40)\n      dup1\n      0x40\n      add\n      0x40\n      mstore\n      dup1\n      0x01\n      dup2\n      mstore\n      0x20\n      add\n      0x3000000000000000000000000000000000000000000000000000000000000000\n      dup2\n      mstore\n      pop\n      swap1\n      pop\n      jump(tag_150)\n        /* \"contracts/voting.sol\":3034:3076  if (_i == 0) {... */\n    tag_151:\n        /* \"contracts/voting.sol\":3088:3094  uint j */\n      0x00\n        /* \"contracts/voting.sol\":3097:3099  _i */\n      dup3\n        /* \"contracts/voting.sol\":3088:3099  uint j = _i */\n      swap1\n      pop\n        /* \"contracts/voting.sol\":3106:3114  uint len */\n      0x00\n        /* \"contracts/voting.sol\":3127:3184  while (j != 0) {... */\n    tag_152:\n        /* \"contracts/voting.sol\":3139:3140  0 */\n      0x00\n        /* \"contracts/voting.sol\":3134:3135  j */\n      dup3\n        /* \"contracts/voting.sol\":3134:3140  j != 0 */\n      eq\n        /* \"contracts/voting.sol\":3127:3184  while (j != 0) {... */\n      tag_153\n      jumpi\n        /* \"contracts/voting.sol\":3153:3158  len++ */\n      dup1\n      dup1\n      tag_154\n      swap1\n      tag_70\n      jump\t// in\n    tag_154:\n      swap2\n      pop\n      pop\n        /* \"contracts/voting.sol\":3174:3176  10 */\n      0x0a\n        /* \"contracts/voting.sol\":3169:3176  j /= 10 */\n      dup3\n      tag_155\n      swap2\n      swap1\n      tag_156\n      jump\t// in\n    tag_155:\n      swap2\n      pop\n        /* \"contracts/voting.sol\":3127:3184  while (j != 0) {... */\n      jump(tag_152)\n    tag_153:\n        /* \"contracts/voting.sol\":3196:3213  bytes memory bstr */\n      0x00\n        /* \"contracts/voting.sol\":3226:3229  len */\n      dup2\n        /* \"contracts/voting.sol\":3216:3230  new bytes(len) */\n      0xffffffffffffffff\n      dup2\n      gt\n      iszero\n      tag_157\n      jumpi\n      tag_158\n      tag_159\n      jump\t// in\n    tag_158:\n    tag_157:\n      mload(0x40)\n      swap1\n      dup1\n      dup3\n      mstore\n      dup1\n      0x1f\n      add\n      not(0x1f)\n      and\n      0x20\n      add\n      dup3\n      add\n      0x40\n      mstore\n      dup1\n      iszero\n      tag_160\n      jumpi\n      dup2\n      0x20\n      add\n      0x01\n      dup3\n      mul\n      dup1\n      calldatasize\n      dup4\n      calldatacopy\n      dup1\n      dup3\n      add\n      swap2\n      pop\n      pop\n      swap1\n      pop\n    tag_160:\n      pop\n        /* \"contracts/voting.sol\":3196:3230  bytes memory bstr = new bytes(len) */\n      swap1\n      pop\n        /* \"contracts/voting.sol\":3237:3243  uint k */\n      0x00\n        /* \"contracts/voting.sol\":3252:3253  1 */\n      0x01\n        /* \"contracts/voting.sol\":3246:3249  len */\n      dup4\n        /* \"contracts/voting.sol\":3246:3253  len - 1 */\n      tag_161\n      swap2\n      swap1\n      tag_162\n      jump\t// in\n    tag_161:\n        /* \"contracts/voting.sol\":3237:3253  uint k = len - 1 */\n      swap1\n      pop\n        /* \"contracts/voting.sol\":3266:3359  while (_i != 0) {... */\n    tag_163:\n        /* \"contracts/voting.sol\":3279:3280  0 */\n      0x00\n        /* \"contracts/voting.sol\":3273:3275  _i */\n      dup7\n        /* \"contracts/voting.sol\":3273:3280  _i != 0 */\n      eq\n        /* \"contracts/voting.sol\":3266:3359  while (_i != 0) {... */\n      tag_164\n      jumpi\n        /* \"contracts/voting.sol\":3328:3330  10 */\n      0x0a\n        /* \"contracts/voting.sol\":3323:3325  _i */\n      dup7\n        /* \"contracts/voting.sol\":3323:3330  _i % 10 */\n      tag_165\n      swap2\n      swap1\n      tag_166\n      jump\t// in\n    tag_165:\n        /* \"contracts/voting.sol\":3318:3320  48 */\n      0x30\n        /* \"contracts/voting.sol\":3318:3330  48 + _i % 10 */\n      tag_167\n      swap2\n      swap1\n      tag_38\n      jump\t// in\n    tag_167:\n        /* \"contracts/voting.sol\":3305:3332  bytes1(uint8(48 + _i % 10)) */\n      0xf8\n      shl\n        /* \"contracts/voting.sol\":3293:3297  bstr */\n      dup3\n        /* \"contracts/voting.sol\":3298:3301  k-- */\n      dup3\n      dup1\n      tag_168\n      swap1\n      tag_169\n      jump\t// in\n    tag_168:\n      swap4\n      pop\n        /* \"contracts/voting.sol\":3293:3302  bstr[k--] */\n      dup2\n      mload\n      dup2\n      lt\n      tag_170\n      jumpi\n      tag_171\n      tag_49\n      jump\t// in\n    tag_171:\n    tag_170:\n      0x20\n      add\n      add\n        /* \"contracts/voting.sol\":3293:3332  bstr[k--] = bytes1(uint8(48 + _i % 10)) */\n      swap1\n      not(0xffffffffffffffffffffffffffffffffffffffffffffffffffffffffffffff)\n      and\n      swap1\n      dup2\n      0x00\n      byte\n      swap1\n      mstore8\n      pop\n        /* \"contracts/voting.sol\":3349:3351  10 */\n      0x0a\n        /* \"contracts/voting.sol\":3343:3351  _i /= 10 */\n      dup7\n      tag_172\n      swap2\n      swap1\n      tag_156\n      jump\t// in\n    tag_172:\n      swap6\n      pop\n        /* \"contracts/voting.sol\":3266:3359  while (_i != 0) {... */\n      jump(tag_163)\n    tag_164:\n        /* \"contracts/voting.sol\":3385:3389  bstr */\n      dup2\n        /* \"contracts/voting.sol\":3371:3390  return string(bstr) */\n      swap5\n      pop\n      pop\n      pop\n      pop\n      pop\n        /* \"contracts/voting.sol\":2948:3394  function uint2str(uint _i) internal pure returns (string memory _uintAsString) {... */\n    tag_150:\n      swap2\n      swap1\n      pop\n      jump\t// out\n        /* \"#utility.yul\":7:82   */\n    tag_173:\n        /* \"#utility.yul\":40:46   */\n      0x00\n        /* \"#utility.yul\":73:75   */\n      0x40\n        /* \"#utility.yul\":67:76   */\n      mload\n        /* \"#utility.yul\":57:76   */\n      swap1\n      pop\n        /* \"#utility.yul\":7:82   */\n      swap1\n      jump\t// out\n        /* \"#utility.yul\":88:205   */\n    tag_174:\n        /* \"#utility.yul\":197:198   */\n      0x00\n        /* \"#utility.yul\":194:195   */\n      dup1\n        /* \"#utility.yul\":187:199   */\n      revert\n        /* \"#utility.yul\":211:328   */\n    tag_175:\n        /* \"#utility.yul\":320:321   */\n      0x00\n        /* \"#utility.yul\":317:318   */\n      dup1\n        /* \"#utility.yul\":310:322   */\n      revert\n        /* \"#utility.yul\":334:451   */\n    tag_176:\n        /* \"#utility.yul\":443:444   */\n      0x00\n        /* \"#utility.yul\":440:441   */\n      dup1\n        /* \"#utility.yul\":433:445   */\n      revert\n        /* \"#utility.yul\":457:574   */\n    tag_177:\n        /* \"#utility.yul\":566:567   */\n      0x00\n        /* \"#utility.yul\":563:564   */\n      dup1\n        /* \"#utility.yul\":556:568   */\n      revert\n        /* \"#utility.yul\":580:682   */\n    tag_178:\n        /* \"#utility.yul\":621:627   */\n      0x00\n        /* \"#utility.yul\":672:674   */\n      0x1f\n        /* \"#utility.yul\":668:675   */\n      not\n        /* \"#utility.yul\":663:665   */\n      0x1f\n        /* \"#utility.yul\":656:661   */\n      dup4\n        /* \"#utility.yul\":652:666   */\n      add\n        /* \"#utility.yul\":648:676   */\n      and\n        /* \"#utility.yul\":638:676   */\n      swap1\n      pop\n        /* \"#utility.yul\":580:682   */\n      swap2\n      swap1\n      pop\n      jump\t// out\n        /* \"#utility.yul\":688:868   */\n    tag_159:\n        /* \"#utility.yul\":736:813   */\n      0x4e487b7100000000000000000000000000000000000000000000000000000000\n        /* \"#utility.yul\":733:734   */\n      0x00\n        /* \"#utility.yul\":726:814   */\n      mstore\n        /* \"#utility.yul\":833:837   */\n      0x41\n        /* \"#utility.yul\":830:831   */\n      0x04\n        /* \"#utility.yul\":823:838   */\n      mstore\n        /* \"#utility.yul\":857:861   */\n      0x24\n        /* \"#utility.yul\":854:855   */\n      0x00\n        /* \"#utility.yul\":847:862   */\n      revert\n        /* \"#utility.yul\":874:1155   */\n    tag_179:\n        /* \"#utility.yul\":957:984   */\n      tag_255\n        /* \"#utility.yul\":979:983   */\n      dup3\n        /* \"#utility.yul\":957:984   */\n      tag_178\n      jump\t// in\n    tag_255:\n        /* \"#utility.yul\":949:955   */\n      dup2\n        /* \"#utility.yul\":945:985   */\n      add\n        /* \"#utility.yul\":1087:1093   */\n      dup2\n        /* \"#utility.yul\":1075:1085   */\n      dup2\n        /* \"#utility.yul\":1072:1094   */\n      lt\n        /* \"#utility.yul\":1051:1069   */\n      0xffffffffffffffff\n        /* \"#utility.yul\":1039:1049   */\n      dup3\n        /* \"#utility.yul\":1036:1070   */\n      gt\n        /* \"#utility.yul\":1033:1095   */\n      or\n        /* \"#utility.yul\":1030:1118   */\n      iszero\n      tag_256\n      jumpi\n        /* \"#utility.yul\":1098:1116   */\n      tag_257\n      tag_159\n      jump\t// in\n    tag_257:\n        /* \"#utility.yul\":1030:1118   */\n    tag_256:\n        /* \"#utility.yul\":1138:1148   */\n      dup1\n        /* \"#utility.yul\":1134:1136   */\n      0x40\n        /* \"#utility.yul\":1127:1149   */\n      mstore\n        /* \"#utility.yul\":917:1155   */\n      pop\n        /* \"#utility.yul\":874:1155   */\n      pop\n      pop\n      jump\t// out\n        /* \"#utility.yul\":1161:1290   */\n    tag_180:\n        /* \"#utility.yul\":1195:1201   */\n      0x00\n        /* \"#utility.yul\":1222:1242   */\n      tag_259\n      tag_173\n      jump\t// in\n    tag_259:\n        /* \"#utility.yul\":1212:1242   */\n      swap1\n      pop\n        /* \"#utility.yul\":1251:1284   */\n      tag_260\n        /* \"#utility.yul\":1279:1283   */\n      dup3\n        /* \"#utility.yul\":1271:1277   */\n      dup3\n        /* \"#utility.yul\":1251:1284   */\n      tag_179\n      jump\t// in\n    tag_260:\n        /* \"#utility.yul\":1161:1290   */\n      swap2\n      swap1\n      pop\n      jump\t// out\n        /* \"#utility.yul\":1296:1604   */\n    tag_181:\n        /* \"#utility.yul\":1358:1362   */\n      0x00\n        /* \"#utility.yul\":1448:1466   */\n      0xffffffffffffffff\n        /* \"#utility.yul\":1440:1446   */\n      dup3\n        /* \"#utility.yul\":1437:1467   */\n      gt\n        /* \"#utility.yul\":1434:1490   */\n      iszero\n      tag_262\n      jumpi\n        /* \"#utility.yul\":1470:1488   */\n      tag_263\n      tag_159\n      jump\t// in\n    tag_263:\n        /* \"#utility.yul\":1434:1490   */\n    tag_262:\n        /* \"#utility.yul\":1508:1537   */\n      tag_264\n        /* \"#utility.yul\":1530:1536   */\n      dup3\n        /* \"#utility.yul\":1508:1537   */\n      tag_178\n      jump\t// in\n    tag_264:\n        /* \"#utility.yul\":1500:1537   */\n      swap1\n      pop\n        /* \"#utility.yul\":1592:1596   */\n      0x20\n        /* \"#utility.yul\":1586:1590   */\n      dup2\n        /* \"#utility.yul\":1582:1597   */\n      add\n        /* \"#utility.yul\":1574:1597   */\n      swap1\n      pop\n        /* \"#utility.yul\":1296:1604   */\n      swap2\n      swap1\n      pop\n      jump\t// out\n        /* \"#utility.yul\":1610:1758   */\n    tag_182:\n        /* \"#utility.yul\":1708:1714   */\n      dup3\n        /* \"#utility.yul\":1703:1706   */\n      dup2\n        /* \"#utility.yul\":1698:1701   */\n      dup4\n        /* \"#utility.yul\":1685:1715   */\n      calldatacopy\n        /* \"#utility.yul\":1749:1750   */\n      0x00\n        /* \"#utility.yul\":1740:1746   */\n      dup4\n        /* \"#utility.yul\":1735:1738   */\n      dup4\n        /* \"#utility.yul\":1731:1747   */\n      add\n        /* \"#utility.yul\":1724:1751   */\n      mstore\n        /* \"#utility.yul\":1610:1758   */\n      pop\n      pop\n      pop\n      jump\t// out\n        /* \"#utility.yul\":1764:2189   */\n    tag_183:\n        /* \"#utility.yul\":1842:1847   */\n      0x00\n        /* \"#utility.yul\":1867:1933   */\n      tag_267\n        /* \"#utility.yul\":1883:1932   */\n      tag_268\n        /* \"#utility.yul\":1925:1931   */\n      dup5\n        /* \"#utility.yul\":1883:1932   */\n      tag_181\n      jump\t// in\n    tag_268:\n        /* \"#utility.yul\":1867:1933   */\n      tag_180\n      jump\t// in\n    tag_267:\n        /* \"#utility.yul\":1858:1933   */\n      swap1\n      pop\n        /* \"#utility.yul\":1956:1962   */\n      dup3\n        /* \"#utility.yul\":1949:1954   */\n      dup2\n        /* \"#utility.yul\":1942:1963   */\n      mstore\n        /* \"#utility.yul\":1994:1998   */\n      0x20\n        /* \"#utility.yul\":1987:1992   */\n      dup2\n        /* \"#utility.yul\":1983:1999   */\n      add\n        /* \"#utility.yul\":2032:2035   */\n      dup5\n        /* \"#utility.yul\":2023:2029   */\n      dup5\n        /* \"#utility.yul\":2018:2021   */\n      dup5\n        /* \"#utility.yul\":2014:2030   */\n      add\n        /* \"#utility.yul\":2011:2036   */\n      gt\n        /* \"#utility.yul\":2008:2120   */\n      iszero\n      tag_269\n      jumpi\n        /* \"#utility.yul\":2039:2118   */\n      tag_270\n      tag_177\n      jump\t// in\n    tag_270:\n        /* \"#utility.yul\":2008:2120   */\n    tag_269:\n        /* \"#utility.yul\":2129:2183   */\n      tag_271\n        /* \"#utility.yul\":2176:2182   */\n      dup5\n        /* \"#utility.yul\":2171:2174   */\n      dup3\n        /* \"#utility.yul\":2166:2169   */\n      dup6\n        /* \"#utility.yul\":2129:2183   */\n      tag_182\n      jump\t// in\n    tag_271:\n        /* \"#utility.yul\":1848:2189   */\n      pop\n        /* \"#utility.yul\":1764:2189   */\n      swap4\n      swap3\n      pop\n      pop\n      pop\n      jump\t// out\n        /* \"#utility.yul\":2209:2549   */\n    tag_184:\n        /* \"#utility.yul\":2265:2270   */\n      0x00\n        /* \"#utility.yul\":2314:2317   */\n      dup3\n        /* \"#utility.yul\":2307:2311   */\n      0x1f\n        /* \"#utility.yul\":2299:2305   */\n      dup4\n        /* \"#utility.yul\":2295:2312   */\n      add\n        /* \"#utility.yul\":2291:2318   */\n      slt\n        /* \"#utility.yul\":2281:2403   */\n      tag_273\n      jumpi\n        /* \"#utility.yul\":2322:2401   */\n      tag_274\n      tag_176\n      jump\t// in\n    tag_274:\n        /* \"#utility.yul\":2281:2403   */\n    tag_273:\n        /* \"#utility.yul\":2439:2445   */\n      dup2\n        /* \"#utility.yul\":2426:2446   */\n      calldataload\n        /* \"#utility.yul\":2464:2543   */\n      tag_275\n        /* \"#utility.yul\":2539:2542   */\n      dup5\n        /* \"#utility.yul\":2531:2537   */\n      dup3\n        /* \"#utility.yul\":2524:2528   */\n      0x20\n        /* \"#utility.yul\":2516:2522   */\n      dup7\n        /* \"#utility.yul\":2512:2529   */\n      add\n        /* \"#utility.yul\":2464:2543   */\n      tag_183\n      jump\t// in\n    tag_275:\n        /* \"#utility.yul\":2455:2543   */\n      swap2\n      pop\n        /* \"#utility.yul\":2271:2549   */\n      pop\n        /* \"#utility.yul\":2209:2549   */\n      swap3\n      swap2\n      pop\n      pop\n      jump\t// out\n        /* \"#utility.yul\":2555:3064   */\n    tag_11:\n        /* \"#utility.yul\":2624:2630   */\n      0x00\n        /* \"#utility.yul\":2673:2675   */\n      0x20\n        /* \"#utility.yul\":2661:2670   */\n      dup3\n        /* \"#utility.yul\":2652:2659   */\n      dup5\n        /* \"#utility.yul\":2648:2671   */\n      sub\n        /* \"#utility.yul\":2644:2676   */\n      slt\n        /* \"#utility.yul\":2641:2760   */\n      iszero\n      tag_277\n      jumpi\n        /* \"#utility.yul\":2679:2758   */\n      tag_278\n      tag_174\n      jump\t// in\n    tag_278:\n        /* \"#utility.yul\":2641:2760   */\n    tag_277:\n        /* \"#utility.yul\":2827:2828   */\n      0x00\n        /* \"#utility.yul\":2816:2825   */\n      dup3\n        /* \"#utility.yul\":2812:2829   */\n      add\n        /* \"#utility.yul\":2799:2830   */\n      calldataload\n        /* \"#utility.yul\":2857:2875   */\n      0xffffffffffffffff\n        /* \"#utility.yul\":2849:2855   */\n      dup2\n        /* \"#utility.yul\":2846:2876   */\n      gt\n        /* \"#utility.yul\":2843:2960   */\n      iszero\n      tag_279\n      jumpi\n        /* \"#utility.yul\":2879:2958   */\n      tag_280\n      tag_175\n      jump\t// in\n    tag_280:\n        /* \"#utility.yul\":2843:2960   */\n    tag_279:\n        /* \"#utility.yul\":2984:3047   */\n      tag_281\n        /* \"#utility.yul\":3039:3046   */\n      dup5\n        /* \"#utility.yul\":3030:3036   */\n      dup3\n        /* \"#utility.yul\":3019:3028   */\n      dup6\n        /* \"#utility.yul\":3015:3037   */\n      add\n        /* \"#utility.yul\":2984:3047   */\n      tag_184\n      jump\t// in\n    tag_281:\n        /* \"#utility.yul\":2974:3047   */\n      swap2\n      pop\n        /* \"#utility.yul\":2770:3057   */\n      pop\n        /* \"#utility.yul\":2555:3064   */\n      swap3\n      swap2\n      pop\n      pop\n      jump\t// out\n        /* \"#utility.yul\":3070:3147   */\n    tag_185:\n        /* \"#utility.yul\":3107:3114   */\n      0x00\n        /* \"#utility.yul\":3136:3141   */\n      dup2\n        /* \"#utility.yul\":3125:3141   */\n      swap1\n      pop\n        /* \"#utility.yul\":3070:3147   */\n      swap2\n      swap1\n      pop\n      jump\t// out\n        /* \"#utility.yul\":3153:3271   */\n    tag_186:\n        /* \"#utility.yul\":3240:3264   */\n      tag_284\n        /* \"#utility.yul\":3258:3263   */\n      dup2\n        /* \"#utility.yul\":3240:3264   */\n      tag_185\n      jump\t// in\n    tag_284:\n        /* \"#utility.yul\":3235:3238   */\n      dup3\n        /* \"#utility.yul\":3228:3265   */\n      mstore\n        /* \"#utility.yul\":3153:3271   */\n      pop\n      pop\n      jump\t// out\n        /* \"#utility.yul\":3277:3499   */\n    tag_14:\n        /* \"#utility.yul\":3370:3374   */\n      0x00\n        /* \"#utility.yul\":3408:3410   */\n      0x20\n        /* \"#utility.yul\":3397:3406   */\n      dup3\n        /* \"#utility.yul\":3393:3411   */\n      add\n        /* \"#utility.yul\":3385:3411   */\n      swap1\n      pop\n        /* \"#utility.yul\":3421:3492   */\n      tag_286\n        /* \"#utility.yul\":3489:3490   */\n      0x00\n        /* \"#utility.yul\":3478:3487   */\n      dup4\n        /* \"#utility.yul\":3474:3491   */\n      add\n        /* \"#utility.yul\":3465:3471   */\n      dup5\n        /* \"#utility.yul\":3421:3492   */\n      tag_186\n      jump\t// in\n    tag_286:\n        /* \"#utility.yul\":3277:3499   */\n      swap3\n      swap2\n      pop\n      pop\n      jump\t// out\n        /* \"#utility.yul\":3505:3627   */\n    tag_187:\n        /* \"#utility.yul\":3578:3602   */\n      tag_288\n        /* \"#utility.yul\":3596:3601   */\n      dup2\n        /* \"#utility.yul\":3578:3602   */\n      tag_185\n      jump\t// in\n    tag_288:\n        /* \"#utility.yul\":3571:3576   */\n      dup2\n        /* \"#utility.yul\":3568:3603   */\n      eq\n        /* \"#utility.yul\":3558:3621   */\n      tag_289\n      jumpi\n        /* \"#utility.yul\":3617:3618   */\n      0x00\n        /* \"#utility.yul\":3614:3615   */\n      dup1\n        /* \"#utility.yul\":3607:3619   */\n      revert\n        /* \"#utility.yul\":3558:3621   */\n    tag_289:\n        /* \"#utility.yul\":3505:3627   */\n      pop\n      jump\t// out\n        /* \"#utility.yul\":3633:3772   */\n    tag_188:\n        /* \"#utility.yul\":3679:3684   */\n      0x00\n        /* \"#utility.yul\":3717:3723   */\n      dup2\n        /* \"#utility.yul\":3704:3724   */\n      calldataload\n        /* \"#utility.yul\":3695:3724   */\n      swap1\n      pop\n        /* \"#utility.yul\":3733:3766   */\n      tag_291\n        /* \"#utility.yul\":3760:3765   */\n      dup2\n        /* \"#utility.yul\":3733:3766   */\n      tag_187\n      jump\t// in\n    tag_291:\n        /* \"#utility.yul\":3633:3772   */\n      swap3\n      swap2\n      pop\n      pop\n      jump\t// out\n        /* \"#utility.yul\":3778:4757   */\n    tag_20:\n        /* \"#utility.yul\":3875:3881   */\n      0x00\n        /* \"#utility.yul\":3883:3889   */\n      dup1\n        /* \"#utility.yul\":3891:3897   */\n      0x00\n        /* \"#utility.yul\":3940:3942   */\n      0x60\n        /* \"#utility.yul\":3928:3937   */\n      dup5\n        /* \"#utility.yul\":3919:3926   */\n      dup7\n        /* \"#utility.yul\":3915:3938   */\n      sub\n        /* \"#utility.yul\":3911:3943   */\n      slt\n        /* \"#utility.yul\":3908:4027   */\n      iszero\n      tag_293\n      jumpi\n        /* \"#utility.yul\":3946:4025   */\n      tag_294\n      tag_174\n      jump\t// in\n    tag_294:\n        /* \"#utility.yul\":3908:4027   */\n    tag_293:\n        /* \"#utility.yul\":4094:4095   */\n      0x00\n        /* \"#utility.yul\":4083:4092   */\n      dup5\n        /* \"#utility.yul\":4079:4096   */\n      add\n        /* \"#utility.yul\":4066:4097   */\n      calldataload\n        /* \"#utility.yul\":4124:4142   */\n      0xffffffffffffffff\n        /* \"#utility.yul\":4116:4122   */\n      dup2\n        /* \"#utility.yul\":4113:4143   */\n      gt\n        /* \"#utility.yul\":4110:4227   */\n      iszero\n      tag_295\n      jumpi\n        /* \"#utility.yul\":4146:4225   */\n      tag_296\n      tag_175\n      jump\t// in\n    tag_296:\n        /* \"#utility.yul\":4110:4227   */\n    tag_295:\n        /* \"#utility.yul\":4251:4314   */\n      tag_297\n        /* \"#utility.yul\":4306:4313   */\n      dup7\n        /* \"#utility.yul\":4297:4303   */\n      dup3\n        /* \"#utility.yul\":4286:4295   */\n      dup8\n        /* \"#utility.yul\":4282:4304   */\n      add\n        /* \"#utility.yul\":4251:4314   */\n      tag_184\n      jump\t// in\n    tag_297:\n        /* \"#utility.yul\":4241:4314   */\n      swap4\n      pop\n        /* \"#utility.yul\":4037:4324   */\n      pop\n        /* \"#utility.yul\":4363:4365   */\n      0x20\n        /* \"#utility.yul\":4389:4442   */\n      tag_298\n        /* \"#utility.yul\":4434:4441   */\n      dup7\n        /* \"#utility.yul\":4425:4431   */\n      dup3\n        /* \"#utility.yul\":4414:4423   */\n      dup8\n        /* \"#utility.yul\":4410:4432   */\n      add\n        /* \"#utility.yul\":4389:4442   */\n      tag_188\n      jump\t// in\n    tag_298:\n        /* \"#utility.yul\":4379:4442   */\n      swap3\n      pop\n        /* \"#utility.yul\":4334:4452   */\n      pop\n        /* \"#utility.yul\":4519:4521   */\n      0x40\n        /* \"#utility.yul\":4508:4517   */\n      dup5\n        /* \"#utility.yul\":4504:4522   */\n      add\n        /* \"#utility.yul\":4491:4523   */\n      calldataload\n        /* \"#utility.yul\":4550:4568   */\n      0xffffffffffffffff\n        /* \"#utility.yul\":4542:4548   */\n      dup2\n        /* \"#utility.yul\":4539:4569   */\n      gt\n        /* \"#utility.yul\":4536:4653   */\n      iszero\n      tag_299\n      jumpi\n        /* \"#utility.yul\":4572:4651   */\n      tag_300\n      tag_175\n      jump\t// in\n    tag_300:\n        /* \"#utility.yul\":4536:4653   */\n    tag_299:\n        /* \"#utility.yul\":4677:4740   */\n      tag_301\n        /* \"#utility.yul\":4732:4739   */\n      dup7\n        /* \"#utility.yul\":4723:4729   */\n      dup3\n        /* \"#utility.yul\":4712:4721   */\n      dup8\n        /* \"#utility.yul\":4708:4730   */\n      add\n        /* \"#utility.yul\":4677:4740   */\n      tag_184\n      jump\t// in\n    tag_301:\n        /* \"#utility.yul\":4667:4740   */\n      swap2\n      pop\n        /* \"#utility.yul\":4462:4750   */\n      pop\n        /* \"#utility.yul\":3778:4757   */\n      swap3\n      pop\n      swap3\n      pop\n      swap3\n      jump\t// out\n        /* \"#utility.yul\":4763:4862   */\n    tag_189:\n        /* \"#utility.yul\":4815:4821   */\n      0x00\n        /* \"#utility.yul\":4849:4854   */\n      dup2\n        /* \"#utility.yul\":4843:4855   */\n      mload\n        /* \"#utility.yul\":4833:4855   */\n      swap1\n      pop\n        /* \"#utility.yul\":4763:4862   */\n      swap2\n      swap1\n      pop\n      jump\t// out\n        /* \"#utility.yul\":4868:5037   */\n    tag_190:\n        /* \"#utility.yul\":4952:4963   */\n      0x00\n        /* \"#utility.yul\":4986:4992   */\n      dup3\n        /* \"#utility.yul\":4981:4984   */\n      dup3\n        /* \"#utility.yul\":4974:4993   */\n      mstore\n        /* \"#utility.yul\":5026:5030   */\n      0x20\n        /* \"#utility.yul\":5021:5024   */\n      dup3\n        /* \"#utility.yul\":5017:5031   */\n      add\n        /* \"#utility.yul\":5002:5031   */\n      swap1\n      pop\n        /* \"#utility.yul\":4868:5037   */\n      swap3\n      swap2\n      pop\n      pop\n      jump\t// out\n        /* \"#utility.yul\":5043:5182   */\n    tag_191:\n        /* \"#utility.yul\":5132:5138   */\n      dup3\n        /* \"#utility.yul\":5127:5130   */\n      dup2\n        /* \"#utility.yul\":5122:5125   */\n      dup4\n        /* \"#utility.yul\":5116:5139   */\n      mcopy\n        /* \"#utility.yul\":5173:5174   */\n      0x00\n        /* \"#utility.yul\":5164:5170   */\n      dup4\n        /* \"#utility.yul\":5159:5162   */\n      dup4\n        /* \"#utility.yul\":5155:5171   */\n      add\n        /* \"#utility.yul\":5148:5175   */\n      mstore\n        /* \"#utility.yul\":5043:5182   */\n      pop\n      pop\n      pop\n      jump\t// out\n        /* \"#utility.yul\":5188:5565   */\n    tag_192:\n        /* \"#utility.yul\":5276:5279   */\n      0x00\n        /* \"#utility.yul\":5304:5343   */\n      tag_306\n        /* \"#utility.yul\":5337:5342   */\n      dup3\n        /* \"#utility.yul\":5304:5343   */\n      tag_189\n      jump\t// in\n    tag_306:\n        /* \"#utility.yul\":5359:5430   */\n      tag_307\n        /* \"#utility.yul\":5423:5429   */\n      dup2\n        /* \"#utility.yul\":5418:5421   */\n      dup6\n        /* \"#utility.yul\":5359:5430   */\n      tag_190\n      jump\t// in\n    tag_307:\n        /* \"#utility.yul\":5352:5430   */\n      swap4\n      pop\n        /* \"#utility.yul\":5439:5504   */\n      tag_308\n        /* \"#utility.yul\":5497:5503   */\n      dup2\n        /* \"#utility.yul\":5492:5495   */\n      dup6\n        /* \"#utility.yul\":5485:5489   */\n      0x20\n        /* \"#utility.yul\":5478:5483   */\n      dup7\n        /* \"#utility.yul\":5474:5490   */\n      add\n        /* \"#utility.yul\":5439:5504   */\n      tag_191\n      jump\t// in\n    tag_308:\n        /* \"#utility.yul\":5529:5558   */\n      tag_309\n        /* \"#utility.yul\":5551:5557   */\n      dup2\n        /* \"#utility.yul\":5529:5558   */\n      tag_178\n      jump\t// in\n    tag_309:\n        /* \"#utility.yul\":5524:5527   */\n      dup5\n        /* \"#utility.yul\":5520:5559   */\n      add\n        /* \"#utility.yul\":5513:5559   */\n      swap2\n      pop\n        /* \"#utility.yul\":5280:5565   */\n      pop\n        /* \"#utility.yul\":5188:5565   */\n      swap3\n      swap2\n      pop\n      pop\n      jump\t// out\n        /* \"#utility.yul\":5571:5884   */\n    tag_25:\n        /* \"#utility.yul\":5684:5688   */\n      0x00\n        /* \"#utility.yul\":5722:5724   */\n      0x20\n        /* \"#utility.yul\":5711:5720   */\n      dup3\n        /* \"#utility.yul\":5707:5725   */\n      add\n        /* \"#utility.yul\":5699:5725   */\n      swap1\n      pop\n        /* \"#utility.yul\":5771:5780   */\n      dup2\n        /* \"#utility.yul\":5765:5769   */\n      dup2\n        /* \"#utility.yul\":5761:5781   */\n      sub\n        /* \"#utility.yul\":5757:5758   */\n      0x00\n        /* \"#utility.yul\":5746:5755   */\n      dup4\n        /* \"#utility.yul\":5742:5759   */\n      add\n        /* \"#utility.yul\":5735:5782   */\n      mstore\n        /* \"#utility.yul\":5799:5877   */\n      tag_311\n        /* \"#utility.yul\":5872:5876   */\n      dup2\n        /* \"#utility.yul\":5863:5869   */\n      dup5\n        /* \"#utility.yul\":5799:5877   */\n      tag_192\n      jump\t// in\n    tag_311:\n        /* \"#utility.yul\":5791:5877   */\n      swap1\n      pop\n        /* \"#utility.yul\":5571:5884   */\n      swap3\n      swap2\n      pop\n      pop\n      jump\t// out\n        /* \"#utility.yul\":5890:6014   */\n    tag_193:\n        /* \"#utility.yul\":5967:5973   */\n      0x00\n        /* \"#utility.yul\":6001:6006   */\n      dup2\n        /* \"#utility.yul\":5995:6007   */\n      mload\n        /* \"#utility.yul\":5985:6007   */\n      swap1\n      pop\n        /* \"#utility.yul\":5890:6014   */\n      swap2\n      swap1\n      pop\n      jump\t// out\n        /* \"#utility.yul\":6020:6214   */\n    tag_194:\n        /* \"#utility.yul\":6129:6140   */\n      0x00\n        /* \"#utility.yul\":6163:6169   */\n      dup3\n        /* \"#utility.yul\":6158:6161   */\n      dup3\n        /* \"#utility.yul\":6151:6170   */\n      mstore\n        /* \"#utility.yul\":6203:6207   */\n      0x20\n        /* \"#utility.yul\":6198:6201   */\n      dup3\n        /* \"#utility.yul\":6194:6208   */\n      add\n        /* \"#utility.yul\":6179:6208   */\n      swap1\n      pop\n        /* \"#utility.yul\":6020:6214   */\n      swap3\n      swap2\n      pop\n      pop\n      jump\t// out\n        /* \"#utility.yul\":6220:6362   */\n    tag_195:\n        /* \"#utility.yul\":6297:6301   */\n      0x00\n        /* \"#utility.yul\":6320:6323   */\n      dup2\n        /* \"#utility.yul\":6312:6323   */\n      swap1\n      pop\n        /* \"#utility.yul\":6350:6354   */\n      0x20\n        /* \"#utility.yul\":6345:6348   */\n      dup3\n        /* \"#utility.yul\":6341:6355   */\n      add\n        /* \"#utility.yul\":6333:6355   */\n      swap1\n      pop\n        /* \"#utility.yul\":6220:6362   */\n      swap2\n      swap1\n      pop\n      jump\t// out\n        /* \"#utility.yul\":6368:6527   */\n    tag_196:\n        /* \"#utility.yul\":6442:6453   */\n      0x00\n        /* \"#utility.yul\":6476:6482   */\n      dup3\n        /* \"#utility.yul\":6471:6474   */\n      dup3\n        /* \"#utility.yul\":6464:6483   */\n      mstore\n        /* \"#utility.yul\":6516:6520   */\n      0x20\n        /* \"#utility.yul\":6511:6514   */\n      dup3\n        /* \"#utility.yul\":6507:6521   */\n      add\n        /* \"#utility.yul\":6492:6521   */\n      swap1\n      pop\n        /* \"#utility.yul\":6368:6527   */\n      swap3\n      swap2\n      pop\n      pop\n      jump\t// out\n        /* \"#utility.yul\":6533:6890   */\n    tag_197:\n        /* \"#utility.yul\":6611:6614   */\n      0x00\n        /* \"#utility.yul\":6639:6678   */\n      tag_317\n        /* \"#utility.yul\":6672:6677   */\n      dup3\n        /* \"#utility.yul\":6639:6678   */\n      tag_189\n      jump\t// in\n    tag_317:\n        /* \"#utility.yul\":6694:6755   */\n      tag_318\n        /* \"#utility.yul\":6748:6754   */\n      dup2\n        /* \"#utility.yul\":6743:6746   */\n      dup6\n        /* \"#utility.yul\":6694:6755   */\n      tag_196\n      jump\t// in\n    tag_318:\n        /* \"#utility.yul\":6687:6755   */\n      swap4\n      pop\n        /* \"#utility.yul\":6764:6829   */\n      tag_319\n        /* \"#utility.yul\":6822:6828   */\n      dup2\n        /* \"#utility.yul\":6817:6820   */\n      dup6\n        /* \"#utility.yul\":6810:6814   */\n      0x20\n        /* \"#utility.yul\":6803:6808   */\n      dup7\n        /* \"#utility.yul\":6799:6815   */\n      add\n        /* \"#utility.yul\":6764:6829   */\n      tag_191\n      jump\t// in\n    tag_319:\n        /* \"#utility.yul\":6854:6883   */\n      tag_320\n        /* \"#utility.yul\":6876:6882   */\n      dup2\n        /* \"#utility.yul\":6854:6883   */\n      tag_178\n      jump\t// in\n    tag_320:\n        /* \"#utility.yul\":6849:6852   */\n      dup5\n        /* \"#utility.yul\":6845:6884   */\n      add\n        /* \"#utility.yul\":6838:6884   */\n      swap2\n      pop\n        /* \"#utility.yul\":6615:6890   */\n      pop\n        /* \"#utility.yul\":6533:6890   */\n      swap3\n      swap2\n      pop\n      pop\n      jump\t// out\n        /* \"#utility.yul\":6896:7092   */\n    tag_198:\n        /* \"#utility.yul\":6985:6995   */\n      0x00\n        /* \"#utility.yul\":7020:7086   */\n      tag_322\n        /* \"#utility.yul\":7082:7085   */\n      dup4\n        /* \"#utility.yul\":7074:7080   */\n      dup4\n        /* \"#utility.yul\":7020:7086   */\n      tag_197\n      jump\t// in\n    tag_322:\n        /* \"#utility.yul\":7006:7086   */\n      swap1\n      pop\n        /* \"#utility.yul\":6896:7092   */\n      swap3\n      swap2\n      pop\n      pop\n      jump\t// out\n        /* \"#utility.yul\":7098:7221   */\n    tag_199:\n        /* \"#utility.yul\":7178:7182   */\n      0x00\n        /* \"#utility.yul\":7210:7214   */\n      0x20\n        /* \"#utility.yul\":7205:7208   */\n      dup3\n        /* \"#utility.yul\":7201:7215   */\n      add\n        /* \"#utility.yul\":7193:7215   */\n      swap1\n      pop\n        /* \"#utility.yul\":7098:7221   */\n      swap2\n      swap1\n      pop\n      jump\t// out\n        /* \"#utility.yul\":7255:8246   */\n    tag_200:\n        /* \"#utility.yul\":7394:7397   */\n      0x00\n        /* \"#utility.yul\":7423:7487   */\n      tag_325\n        /* \"#utility.yul\":7481:7486   */\n      dup3\n        /* \"#utility.yul\":7423:7487   */\n      tag_193\n      jump\t// in\n    tag_325:\n        /* \"#utility.yul\":7503:7599   */\n      tag_326\n        /* \"#utility.yul\":7592:7598   */\n      dup2\n        /* \"#utility.yul\":7587:7590   */\n      dup6\n        /* \"#utility.yul\":7503:7599   */\n      tag_194\n      jump\t// in\n    tag_326:\n        /* \"#utility.yul\":7496:7599   */\n      swap4\n      pop\n        /* \"#utility.yul\":7625:7628   */\n      dup4\n        /* \"#utility.yul\":7670:7674   */\n      0x20\n        /* \"#utility.yul\":7662:7668   */\n      dup3\n        /* \"#utility.yul\":7658:7675   */\n      mul\n        /* \"#utility.yul\":7653:7656   */\n      dup6\n        /* \"#utility.yul\":7649:7676   */\n      add\n        /* \"#utility.yul\":7700:7766   */\n      tag_327\n        /* \"#utility.yul\":7760:7765   */\n      dup6\n        /* \"#utility.yul\":7700:7766   */\n      tag_195\n      jump\t// in\n    tag_327:\n        /* \"#utility.yul\":7789:7796   */\n      dup1\n        /* \"#utility.yul\":7820:7821   */\n      0x00\n        /* \"#utility.yul\":7805:8201   */\n    tag_328:\n        /* \"#utility.yul\":7830:7836   */\n      dup6\n        /* \"#utility.yul\":7827:7828   */\n      dup2\n        /* \"#utility.yul\":7824:7837   */\n      lt\n        /* \"#utility.yul\":7805:8201   */\n      iszero\n      tag_330\n      jumpi\n        /* \"#utility.yul\":7901:7910   */\n      dup5\n        /* \"#utility.yul\":7895:7899   */\n      dup5\n        /* \"#utility.yul\":7891:7911   */\n      sub\n        /* \"#utility.yul\":7886:7889   */\n      dup10\n        /* \"#utility.yul\":7879:7912   */\n      mstore\n        /* \"#utility.yul\":7952:7958   */\n      dup2\n        /* \"#utility.yul\":7946:7959   */\n      mload\n        /* \"#utility.yul\":7980:8064   */\n      tag_331\n        /* \"#utility.yul\":8059:8063   */\n      dup6\n        /* \"#utility.yul\":8044:8057   */\n      dup3\n        /* \"#utility.yul\":7980:8064   */\n      tag_198\n      jump\t// in\n    tag_331:\n        /* \"#utility.yul\":7972:8064   */\n      swap5\n      pop\n        /* \"#utility.yul\":8087:8157   */\n      tag_332\n        /* \"#utility.yul\":8150:8156   */\n      dup4\n        /* \"#utility.yul\":8087:8157   */\n      tag_199\n      jump\t// in\n    tag_332:\n        /* \"#utility.yul\":8077:8157   */\n      swap3\n      pop\n        /* \"#utility.yul\":8186:8190   */\n      0x20\n        /* \"#utility.yul\":8181:8184   */\n      dup11\n        /* \"#utility.yul\":8177:8191   */\n      add\n        /* \"#utility.yul\":8170:8191   */\n      swap10\n      pop\n        /* \"#utility.yul\":7865:8201   */\n      pop\n        /* \"#utility.yul\":7852:7853   */\n      0x01\n        /* \"#utility.yul\":7849:7850   */\n      dup2\n        /* \"#utility.yul\":7845:7854   */\n      add\n        /* \"#utility.yul\":7840:7854   */\n      swap1\n      pop\n        /* \"#utility.yul\":7805:8201   */\n      jump(tag_328)\n    tag_330:\n        /* \"#utility.yul\":7809:7823   */\n      pop\n        /* \"#utility.yul\":8217:8221   */\n      dup3\n        /* \"#utility.yul\":8210:8221   */\n      swap8\n      pop\n        /* \"#utility.yul\":8237:8240   */\n      dup8\n        /* \"#utility.yul\":8230:8240   */\n      swap6\n      pop\n        /* \"#utility.yul\":7399:8246   */\n      pop\n      pop\n      pop\n      pop\n      pop\n        /* \"#utility.yul\":7255:8246   */\n      swap3\n      swap2\n      pop\n      pop\n      jump\t// out\n        /* \"#utility.yul\":8252:8665   */\n    tag_32:\n        /* \"#utility.yul\":8415:8419   */\n      0x00\n        /* \"#utility.yul\":8453:8455   */\n      0x20\n        /* \"#utility.yul\":8442:8451   */\n      dup3\n        /* \"#utility.yul\":8438:8456   */\n      add\n        /* \"#utility.yul\":8430:8456   */\n      swap1\n      pop\n        /* \"#utility.yul\":8502:8511   */\n      dup2\n        /* \"#utility.yul\":8496:8500   */\n      dup2\n        /* \"#utility.yul\":8492:8512   */\n      sub\n        /* \"#utility.yul\":8488:8489   */\n      0x00\n        /* \"#utility.yul\":8477:8486   */\n      dup4\n        /* \"#utility.yul\":8473:8490   */\n      add\n        /* \"#utility.yul\":8466:8513   */\n      mstore\n        /* \"#utility.yul\":8530:8658   */\n      tag_334\n        /* \"#utility.yul\":8653:8657   */\n      dup2\n        /* \"#utility.yul\":8644:8650   */\n      dup5\n        /* \"#utility.yul\":8530:8658   */\n      tag_200\n      jump\t// in\n    tag_334:\n        /* \"#utility.yul\":8522:8658   */\n      swap1\n      pop\n        /* \"#utility.yul\":8252:8665   */\n      swap3\n      swap2\n      pop\n      pop\n      jump\t// out\n        /* \"#utility.yul\":8671:8819   */\n    tag_201:\n        /* \"#utility.yul\":8773:8784   */\n      0x00\n        /* \"#utility.yul\":8810:8813   */\n      dup2\n        /* \"#utility.yul\":8795:8813   */\n      swap1\n      pop\n        /* \"#utility.yul\":8671:8819   */\n      swap3\n      swap2\n      pop\n      pop\n      jump\t// out\n        /* \"#utility.yul\":8825:9215   */\n    tag_202:\n        /* \"#utility.yul\":8931:8934   */\n      0x00\n        /* \"#utility.yul\":8959:8998   */\n      tag_337\n        /* \"#utility.yul\":8992:8997   */\n      dup3\n        /* \"#utility.yul\":8959:8998   */\n      tag_189\n      jump\t// in\n    tag_337:\n        /* \"#utility.yul\":9014:9103   */\n      tag_338\n        /* \"#utility.yul\":9096:9102   */\n      dup2\n        /* \"#utility.yul\":9091:9094   */\n      dup6\n        /* \"#utility.yul\":9014:9103   */\n      tag_201\n      jump\t// in\n    tag_338:\n        /* \"#utility.yul\":9007:9103   */\n      swap4\n      pop\n        /* \"#utility.yul\":9112:9177   */\n      tag_339\n        /* \"#utility.yul\":9170:9176   */\n      dup2\n        /* \"#utility.yul\":9165:9168   */\n      dup6\n        /* \"#utility.yul\":9158:9162   */\n      0x20\n        /* \"#utility.yul\":9151:9156   */\n      dup7\n        /* \"#utility.yul\":9147:9163   */\n      add\n        /* \"#utility.yul\":9112:9177   */\n      tag_191\n      jump\t// in\n    tag_339:\n        /* \"#utility.yul\":9202:9208   */\n      dup1\n        /* \"#utility.yul\":9197:9200   */\n      dup5\n        /* \"#utility.yul\":9193:9209   */\n      add\n        /* \"#utility.yul\":9186:9209   */\n      swap2\n      pop\n        /* \"#utility.yul\":8935:9215   */\n      pop\n        /* \"#utility.yul\":8825:9215   */\n      swap3\n      swap2\n      pop\n      pop\n      jump\t// out\n        /* \"#utility.yul\":9221:9496   */\n    tag_35:\n        /* \"#utility.yul\":9353:9356   */\n      0x00\n        /* \"#utility.yul\":9375:9470   */\n      tag_341\n        /* \"#utility.yul\":9466:9469   */\n      dup3\n        /* \"#utility.yul\":9457:9463   */\n      dup5\n        /* \"#utility.yul\":9375:9470   */\n      tag_202\n      jump\t// in\n    tag_341:\n        /* \"#utility.yul\":9368:9470   */\n      swap2\n      pop\n        /* \"#utility.yul\":9487:9490   */\n      dup2\n        /* \"#utility.yul\":9480:9490   */\n      swap1\n      pop\n        /* \"#utility.yul\":9221:9496   */\n      swap3\n      swap2\n      pop\n      pop\n      jump\t// out\n        /* \"#utility.yul\":9502:9682   */\n    tag_203:\n        /* \"#utility.yul\":9550:9627   */\n      0x4e487b7100000000000000000000000000000000000000000000000000000000\n        /* \"#utility.yul\":9547:9548   */\n      0x00\n        /* \"#utility.yul\":9540:9628   */\n      mstore\n        /* \"#utility.yul\":9647:9651   */\n      0x11\n        /* \"#utility.yul\":9644:9645   */\n      0x04\n        /* \"#utility.yul\":9637:9652   */\n      mstore\n        /* \"#utility.yul\":9671:9675   */\n      0x24\n        /* \"#utility.yul\":9668:9669   */\n      0x00\n        /* \"#utility.yul\":9661:9676   */\n      revert\n        /* \"#utility.yul\":9688:9879   */\n    tag_38:\n        /* \"#utility.yul\":9728:9731   */\n      0x00\n        /* \"#utility.yul\":9747:9767   */\n      tag_344\n        /* \"#utility.yul\":9765:9766   */\n      dup3\n        /* \"#utility.yul\":9747:9767   */\n      tag_185\n      jump\t// in\n    tag_344:\n        /* \"#utility.yul\":9742:9767   */\n      swap2\n      pop\n        /* \"#utility.yul\":9781:9801   */\n      tag_345\n        /* \"#utility.yul\":9799:9800   */\n      dup4\n        /* \"#utility.yul\":9781:9801   */\n      tag_185\n      jump\t// in\n    tag_345:\n        /* \"#utility.yul\":9776:9801   */\n      swap3\n      pop\n        /* \"#utility.yul\":9824:9825   */\n      dup3\n        /* \"#utility.yul\":9821:9822   */\n      dup3\n        /* \"#utility.yul\":9817:9826   */\n      add\n        /* \"#utility.yul\":9810:9826   */\n      swap1\n      pop\n        /* \"#utility.yul\":9845:9848   */\n      dup1\n        /* \"#utility.yul\":9842:9843   */\n      dup3\n        /* \"#utility.yul\":9839:9849   */\n      gt\n        /* \"#utility.yul\":9836:9872   */\n      iszero\n      tag_346\n      jumpi\n        /* \"#utility.yul\":9852:9870   */\n      tag_347\n      tag_203\n      jump\t// in\n    tag_347:\n        /* \"#utility.yul\":9836:9872   */\n    tag_346:\n        /* \"#utility.yul\":9688:9879   */\n      swap3\n      swap2\n      pop\n      pop\n      jump\t// out\n        /* \"#utility.yul\":9885:10055   */\n    tag_204:\n        /* \"#utility.yul\":10025:10047   */\n      0x566f74696e672074696d6520657870697265642e000000000000000000000000\n        /* \"#utility.yul\":10021:10022   */\n      0x00\n        /* \"#utility.yul\":10013:10019   */\n      dup3\n        /* \"#utility.yul\":10009:10023   */\n      add\n        /* \"#utility.yul\":10002:10048   */\n      mstore\n        /* \"#utility.yul\":9885:10055   */\n      pop\n      jump\t// out\n        /* \"#utility.yul\":10061:10427   */\n    tag_205:\n        /* \"#utility.yul\":10203:10206   */\n      0x00\n        /* \"#utility.yul\":10224:10291   */\n      tag_350\n        /* \"#utility.yul\":10288:10290   */\n      0x14\n        /* \"#utility.yul\":10283:10286   */\n      dup4\n        /* \"#utility.yul\":10224:10291   */\n      tag_190\n      jump\t// in\n    tag_350:\n        /* \"#utility.yul\":10217:10291   */\n      swap2\n      pop\n        /* \"#utility.yul\":10300:10393   */\n      tag_351\n        /* \"#utility.yul\":10389:10392   */\n      dup3\n        /* \"#utility.yul\":10300:10393   */\n      tag_204\n      jump\t// in\n    tag_351:\n        /* \"#utility.yul\":10418:10420   */\n      0x20\n        /* \"#utility.yul\":10413:10416   */\n      dup3\n        /* \"#utility.yul\":10409:10421   */\n      add\n        /* \"#utility.yul\":10402:10421   */\n      swap1\n      pop\n        /* \"#utility.yul\":10061:10427   */\n      swap2\n      swap1\n      pop\n      jump\t// out\n        /* \"#utility.yul\":10433:10852   */\n    tag_41:\n        /* \"#utility.yul\":10599:10603   */\n      0x00\n        /* \"#utility.yul\":10637:10639   */\n      0x20\n        /* \"#utility.yul\":10626:10635   */\n      dup3\n        /* \"#utility.yul\":10622:10640   */\n      add\n        /* \"#utility.yul\":10614:10640   */\n      swap1\n      pop\n        /* \"#utility.yul\":10686:10695   */\n      dup2\n        /* \"#utility.yul\":10680:10684   */\n      dup2\n        /* \"#utility.yul\":10676:10696   */\n      sub\n        /* \"#utility.yul\":10672:10673   */\n      0x00\n        /* \"#utility.yul\":10661:10670   */\n      dup4\n        /* \"#utility.yul\":10657:10674   */\n      add\n        /* \"#utility.yul\":10650:10697   */\n      mstore\n        /* \"#utility.yul\":10714:10845   */\n      tag_353\n        /* \"#utility.yul\":10840:10844   */\n      dup2\n        /* \"#utility.yul\":10714:10845   */\n      tag_205\n      jump\t// in\n    tag_353:\n        /* \"#utility.yul\":10706:10845   */\n      swap1\n      pop\n        /* \"#utility.yul\":10433:10852   */\n      swap2\n      swap1\n      pop\n      jump\t// out\n        /* \"#utility.yul\":10858:10984   */\n    tag_206:\n        /* \"#utility.yul\":10895:10902   */\n      0x00\n        /* \"#utility.yul\":10935:10977   */\n      0xffffffffffffffffffffffffffffffffffffffff\n        /* \"#utility.yul\":10928:10933   */\n      dup3\n        /* \"#utility.yul\":10924:10978   */\n      and\n        /* \"#utility.yul\":10913:10978   */\n      swap1\n      pop\n        /* \"#utility.yul\":10858:10984   */\n      swap2\n      swap1\n      pop\n      jump\t// out\n        /* \"#utility.yul\":10990:11086   */\n    tag_207:\n        /* \"#utility.yul\":11027:11034   */\n      0x00\n        /* \"#utility.yul\":11056:11080   */\n      tag_356\n        /* \"#utility.yul\":11074:11079   */\n      dup3\n        /* \"#utility.yul\":11056:11080   */\n      tag_206\n      jump\t// in\n    tag_356:\n        /* \"#utility.yul\":11045:11080   */\n      swap1\n      pop\n        /* \"#utility.yul\":10990:11086   */\n      swap2\n      swap1\n      pop\n      jump\t// out\n        /* \"#utility.yul\":11092:11186   */\n    tag_208:\n        /* \"#utility.yul\":11125:11133   */\n      0x00\n        /* \"#utility.yul\":11173:11178   */\n      dup2\n        /* \"#utility.yul\":11169:11171   */\n      0x60\n        /* \"#utility.yul\":11165:11179   */\n      shl\n        /* \"#utility.yul\":11144:11179   */\n      swap1\n      pop\n        /* \"#utility.yul\":11092:11186   */\n      swap2\n      swap1\n      pop\n      jump\t// out\n        /* \"#utility.yul\":11192:11286   */\n    tag_209:\n        /* \"#utility.yul\":11231:11238   */\n      0x00\n        /* \"#utility.yul\":11260:11280   */\n      tag_359\n        /* \"#utility.yul\":11274:11279   */\n      dup3\n        /* \"#utility.yul\":11260:11280   */\n      tag_208\n      jump\t// in\n    tag_359:\n        /* \"#utility.yul\":11249:11280   */\n      swap1\n      pop\n        /* \"#utility.yul\":11192:11286   */\n      swap2\n      swap1\n      pop\n      jump\t// out\n        /* \"#utility.yul\":11292:11392   */\n    tag_210:\n        /* \"#utility.yul\":11331:11338   */\n      0x00\n        /* \"#utility.yul\":11360:11386   */\n      tag_361\n        /* \"#utility.yul\":11380:11385   */\n      dup3\n        /* \"#utility.yul\":11360:11386   */\n      tag_209\n      jump\t// in\n    tag_361:\n        /* \"#utility.yul\":11349:11386   */\n      swap1\n      pop\n        /* \"#utility.yul\":11292:11392   */\n      swap2\n      swap1\n      pop\n      jump\t// out\n        /* \"#utility.yul\":11398:11555   */\n    tag_211:\n        /* \"#utility.yul\":11503:11548   */\n      tag_363\n        /* \"#utility.yul\":11523:11547   */\n      tag_364\n        /* \"#utility.yul\":11541:11546   */\n      dup3\n        /* \"#utility.yul\":11523:11547   */\n      tag_207\n      jump\t// in\n    tag_364:\n        /* \"#utility.yul\":11503:11548   */\n      tag_210\n      jump\t// in\n    tag_363:\n        /* \"#utility.yul\":11498:11501   */\n      dup3\n        /* \"#utility.yul\":11491:11549   */\n      mstore\n        /* \"#utility.yul\":11398:11555   */\n      pop\n      pop\n      jump\t// out\n        /* \"#utility.yul\":11561:11817   */\n    tag_43:\n        /* \"#utility.yul\":11673:11676   */\n      0x00\n        /* \"#utility.yul\":11688:11763   */\n      tag_366\n        /* \"#utility.yul\":11759:11762   */\n      dup3\n        /* \"#utility.yul\":11750:11756   */\n      dup5\n        /* \"#utility.yul\":11688:11763   */\n      tag_211\n      jump\t// in\n    tag_366:\n        /* \"#utility.yul\":11788:11790   */\n      0x14\n        /* \"#utility.yul\":11783:11786   */\n      dup3\n        /* \"#utility.yul\":11779:11791   */\n      add\n        /* \"#utility.yul\":11772:11791   */\n      swap2\n      pop\n        /* \"#utility.yul\":11808:11811   */\n      dup2\n        /* \"#utility.yul\":11801:11811   */\n      swap1\n      pop\n        /* \"#utility.yul\":11561:11817   */\n      swap3\n      swap2\n      pop\n      pop\n      jump\t// out\n        /* \"#utility.yul\":11823:12003   */\n    tag_49:\n        /* \"#utility.yul\":11871:11948   */\n      0x4e487b7100000000000000000000000000000000000000000000000000000000\n        /* \"#utility.yul\":11868:11869   */\n      0x00\n        /* \"#utility.yul\":11861:11949   */\n      mstore\n        /* \"#utility.yul\":11968:11972   */\n      0x32\n        /* \"#utility.yul\":11965:11966   */\n      0x04\n        /* \"#utility.yul\":11958:11973   */\n      mstore\n        /* \"#utility.yul\":11992:11996   */\n      0x24\n        /* \"#utility.yul\":11989:11990   */\n      0x00\n        /* \"#utility.yul\":11982:11997   */\n      revert\n        /* \"#utility.yul\":12009:12182   */\n    tag_212:\n        /* \"#utility.yul\":12149:12174   */\n      0x596f75206861766520616c726561647920766f74656421000000000000000000\n        /* \"#utility.yul\":12145:12146   */\n      0x00\n        /* \"#utility.yul\":12137:12143   */\n      dup3\n        /* \"#utility.yul\":12133:12147   */\n      add\n        /* \"#utility.yul\":12126:12175   */\n      mstore\n        /* \"#utility.yul\":12009:12182   */\n      pop\n      jump\t// out\n        /* \"#utility.yul\":12188:12554   */\n    tag_213:\n        /* \"#utility.yul\":12330:12333   */\n      0x00\n        /* \"#utility.yul\":12351:12418   */\n      tag_370\n        /* \"#utility.yul\":12415:12417   */\n      0x17\n        /* \"#utility.yul\":12410:12413   */\n      dup4\n        /* \"#utility.yul\":12351:12418   */\n      tag_190\n      jump\t// in\n    tag_370:\n        /* \"#utility.yul\":12344:12418   */\n      swap2\n      pop\n        /* \"#utility.yul\":12427:12520   */\n      tag_371\n        /* \"#utility.yul\":12516:12519   */\n      dup3\n        /* \"#utility.yul\":12427:12520   */\n      tag_212\n      jump\t// in\n    tag_371:\n        /* \"#utility.yul\":12545:12547   */\n      0x20\n        /* \"#utility.yul\":12540:12543   */\n      dup3\n        /* \"#utility.yul\":12536:12548   */\n      add\n        /* \"#utility.yul\":12529:12548   */\n      swap1\n      pop\n        /* \"#utility.yul\":12188:12554   */\n      swap2\n      swap1\n      pop\n      jump\t// out\n        /* \"#utility.yul\":12560:12979   */\n    tag_53:\n        /* \"#utility.yul\":12726:12730   */\n      0x00\n        /* \"#utility.yul\":12764:12766   */\n      0x20\n        /* \"#utility.yul\":12753:12762   */\n      dup3\n        /* \"#utility.yul\":12749:12767   */\n      add\n        /* \"#utility.yul\":12741:12767   */\n      swap1\n      pop\n        /* \"#utility.yul\":12813:12822   */\n      dup2\n        /* \"#utility.yul\":12807:12811   */\n      dup2\n        /* \"#utility.yul\":12803:12823   */\n      sub\n        /* \"#utility.yul\":12799:12800   */\n      0x00\n        /* \"#utility.yul\":12788:12797   */\n      dup4\n        /* \"#utility.yul\":12784:12801   */\n      add\n        /* \"#utility.yul\":12777:12824   */\n      mstore\n        /* \"#utility.yul\":12841:12972   */\n      tag_373\n        /* \"#utility.yul\":12967:12971   */\n      dup2\n        /* \"#utility.yul\":12841:12972   */\n      tag_213\n      jump\t// in\n    tag_373:\n        /* \"#utility.yul\":12833:12972   */\n      swap1\n      pop\n        /* \"#utility.yul\":12560:12979   */\n      swap2\n      swap1\n      pop\n      jump\t// out\n        /* \"#utility.yul\":12985:13165   */\n    tag_214:\n        /* \"#utility.yul\":13033:13110   */\n      0x4e487b7100000000000000000000000000000000000000000000000000000000\n        /* \"#utility.yul\":13030:13031   */\n      0x00\n        /* \"#utility.yul\":13023:13111   */\n      mstore\n        /* \"#utility.yul\":13130:13134   */\n      0x22\n        /* \"#utility.yul\":13127:13128   */\n      0x04\n        /* \"#utility.yul\":13120:13135   */\n      mstore\n        /* \"#utility.yul\":13154:13158   */\n      0x24\n        /* \"#utility.yul\":13151:13152   */\n      0x00\n        /* \"#utility.yul\":13144:13159   */\n      revert\n        /* \"#utility.yul\":13171:13491   */\n    tag_91:\n        /* \"#utility.yul\":13215:13221   */\n      0x00\n        /* \"#utility.yul\":13252:13253   */\n      0x02\n        /* \"#utility.yul\":13246:13250   */\n      dup3\n        /* \"#utility.yul\":13242:13254   */\n      div\n        /* \"#utility.yul\":13232:13254   */\n      swap1\n      pop\n        /* \"#utility.yul\":13299:13300   */\n      0x01\n        /* \"#utility.yul\":13293:13297   */\n      dup3\n        /* \"#utility.yul\":13289:13301   */\n      and\n        /* \"#utility.yul\":13320:13338   */\n      dup1\n        /* \"#utility.yul\":13310:13391   */\n      tag_376\n      jumpi\n        /* \"#utility.yul\":13376:13380   */\n      0x7f\n        /* \"#utility.yul\":13368:13374   */\n      dup3\n        /* \"#utility.yul\":13364:13381   */\n      and\n        /* \"#utility.yul\":13354:13381   */\n      swap2\n      pop\n        /* \"#utility.yul\":13310:13391   */\n    tag_376:\n        /* \"#utility.yul\":13438:13440   */\n      0x20\n        /* \"#utility.yul\":13430:13436   */\n      dup3\n        /* \"#utility.yul\":13427:13441   */\n      lt\n        /* \"#utility.yul\":13407:13425   */\n      dup2\n        /* \"#utility.yul\":13404:13442   */\n      sub\n        /* \"#utility.yul\":13401:13485   */\n      tag_377\n      jumpi\n        /* \"#utility.yul\":13457:13475   */\n      tag_378\n      tag_214\n      jump\t// in\n    tag_378:\n        /* \"#utility.yul\":13401:13485   */\n    tag_377:\n        /* \"#utility.yul\":13222:13491   */\n      pop\n        /* \"#utility.yul\":13171:13491   */\n      swap2\n      swap1\n      pop\n      jump\t// out\n        /* \"#utility.yul\":13497:13638   */\n    tag_215:\n        /* \"#utility.yul\":13546:13550   */\n      0x00\n        /* \"#utility.yul\":13569:13572   */\n      dup2\n        /* \"#utility.yul\":13561:13572   */\n      swap1\n      pop\n        /* \"#utility.yul\":13592:13595   */\n      dup2\n        /* \"#utility.yul\":13589:13590   */\n      0x00\n        /* \"#utility.yul\":13582:13596   */\n      mstore\n        /* \"#utility.yul\":13626:13630   */\n      0x20\n        /* \"#utility.yul\":13623:13624   */\n      0x00\n        /* \"#utility.yul\":13613:13631   */\n      keccak256\n        /* \"#utility.yul\":13605:13631   */\n      swap1\n      pop\n        /* \"#utility.yul\":13497:13638   */\n      swap2\n      swap1\n      pop\n      jump\t// out\n        /* \"#utility.yul\":13668:14542   */\n    tag_216:\n        /* \"#utility.yul\":13771:13774   */\n      0x00\n        /* \"#utility.yul\":13808:13813   */\n      dup2\n        /* \"#utility.yul\":13802:13814   */\n      sload\n        /* \"#utility.yul\":13837:13873   */\n      tag_381\n        /* \"#utility.yul\":13863:13872   */\n      dup2\n        /* \"#utility.yul\":13837:13873   */\n      tag_91\n      jump\t// in\n    tag_381:\n        /* \"#utility.yul\":13889:13978   */\n      tag_382\n        /* \"#utility.yul\":13971:13977   */\n      dup2\n        /* \"#utility.yul\":13966:13969   */\n      dup7\n        /* \"#utility.yul\":13889:13978   */\n      tag_201\n      jump\t// in\n    tag_382:\n        /* \"#utility.yul\":13882:13978   */\n      swap5\n      pop\n        /* \"#utility.yul\":14009:14010   */\n      0x01\n        /* \"#utility.yul\":13998:14007   */\n      dup3\n        /* \"#utility.yul\":13994:14011   */\n      and\n        /* \"#utility.yul\":14025:14026   */\n      0x00\n        /* \"#utility.yul\":14020:14186   */\n      dup2\n      eq\n      tag_384\n      jumpi\n        /* \"#utility.yul\":14200:14201   */\n      0x01\n        /* \"#utility.yul\":14195:14536   */\n      dup2\n      eq\n      tag_385\n      jumpi\n        /* \"#utility.yul\":13987:14536   */\n      jump(tag_383)\n        /* \"#utility.yul\":14020:14186   */\n    tag_384:\n        /* \"#utility.yul\":14104:14108   */\n      0xff\n        /* \"#utility.yul\":14100:14109   */\n      not\n        /* \"#utility.yul\":14089:14098   */\n      dup4\n        /* \"#utility.yul\":14085:14110   */\n      and\n        /* \"#utility.yul\":14080:14083   */\n      dup7\n        /* \"#utility.yul\":14073:14111   */\n      mstore\n        /* \"#utility.yul\":14166:14172   */\n      dup2\n        /* \"#utility.yul\":14159:14173   */\n      iszero\n        /* \"#utility.yul\":14152:14174   */\n      iszero\n        /* \"#utility.yul\":14144:14150   */\n      dup3\n        /* \"#utility.yul\":14140:14175   */\n      mul\n        /* \"#utility.yul\":14135:14138   */\n      dup7\n        /* \"#utility.yul\":14131:14176   */\n      add\n        /* \"#utility.yul\":14124:14176   */\n      swap4\n      pop\n        /* \"#utility.yul\":14020:14186   */\n      jump(tag_383)\n        /* \"#utility.yul\":14195:14536   */\n    tag_385:\n        /* \"#utility.yul\":14262:14300   */\n      tag_386\n        /* \"#utility.yul\":14294:14299   */\n      dup6\n        /* \"#utility.yul\":14262:14300   */\n      tag_215\n      jump\t// in\n    tag_386:\n        /* \"#utility.yul\":14322:14323   */\n      0x00\n        /* \"#utility.yul\":14336:14490   */\n    tag_387:\n        /* \"#utility.yul\":14350:14356   */\n      dup4\n        /* \"#utility.yul\":14347:14348   */\n      dup2\n        /* \"#utility.yul\":14344:14357   */\n      lt\n        /* \"#utility.yul\":14336:14490   */\n      iszero\n      tag_389\n      jumpi\n        /* \"#utility.yul\":14424:14431   */\n      dup2\n        /* \"#utility.yul\":14418:14432   */\n      sload\n        /* \"#utility.yul\":14414:14415   */\n      dup2\n        /* \"#utility.yul\":14409:14412   */\n      dup10\n        /* \"#utility.yul\":14405:14416   */\n      add\n        /* \"#utility.yul\":14398:14433   */\n      mstore\n        /* \"#utility.yul\":14474:14475   */\n      0x01\n        /* \"#utility.yul\":14465:14472   */\n      dup3\n        /* \"#utility.yul\":14461:14476   */\n      add\n        /* \"#utility.yul\":14450:14476   */\n      swap2\n      pop\n        /* \"#utility.yul\":14372:14376   */\n      0x20\n        /* \"#utility.yul\":14369:14370   */\n      dup2\n        /* \"#utility.yul\":14365:14377   */\n      add\n        /* \"#utility.yul\":14360:14377   */\n      swap1\n      pop\n        /* \"#utility.yul\":14336:14490   */\n      jump(tag_387)\n    tag_389:\n        /* \"#utility.yul\":14519:14525   */\n      dup4\n        /* \"#utility.yul\":14514:14517   */\n      dup9\n        /* \"#utility.yul\":14510:14526   */\n      add\n        /* \"#utility.yul\":14503:14526   */\n      swap6\n      pop\n        /* \"#utility.yul\":14202:14536   */\n      pop\n      pop\n        /* \"#utility.yul\":13987:14536   */\n    tag_383:\n      pop\n        /* \"#utility.yul\":13775:14542   */\n      pop\n      pop\n        /* \"#utility.yul\":13668:14542   */\n      swap3\n      swap2\n      pop\n      pop\n      jump\t// out\n        /* \"#utility.yul\":14548:14817   */\n    tag_63:\n        /* \"#utility.yul\":14677:14680   */\n      0x00\n        /* \"#utility.yul\":14699:14791   */\n      tag_391\n        /* \"#utility.yul\":14787:14790   */\n      dup3\n        /* \"#utility.yul\":14778:14784   */\n      dup5\n        /* \"#utility.yul\":14699:14791   */\n      tag_216\n      jump\t// in\n    tag_391:\n        /* \"#utility.yul\":14692:14791   */\n      swap2\n      pop\n        /* \"#utility.yul\":14808:14811   */\n      dup2\n        /* \"#utility.yul\":14801:14811   */\n      swap1\n      pop\n        /* \"#utility.yul\":14548:14817   */\n      swap3\n      swap2\n      pop\n      pop\n      jump\t// out\n        /* \"#utility.yul\":14823:14999   */\n    tag_217:\n        /* \"#utility.yul\":14963:14991   */\n      0x4e6f20737563682063616e6469646174652070726573656e742e000000000000\n        /* \"#utility.yul\":14959:14960   */\n      0x00\n        /* \"#utility.yul\":14951:14957   */\n      dup3\n        /* \"#utility.yul\":14947:14961   */\n      add\n        /* \"#utility.yul\":14940:14992   */\n      mstore\n        /* \"#utility.yul\":14823:14999   */\n      pop\n      jump\t// out\n        /* \"#utility.yul\":15005:15371   */\n    tag_218:\n        /* \"#utility.yul\":15147:15150   */\n      0x00\n        /* \"#utility.yul\":15168:15235   */\n      tag_394\n        /* \"#utility.yul\":15232:15234   */\n      0x1a\n        /* \"#utility.yul\":15227:15230   */\n      dup4\n        /* \"#utility.yul\":15168:15235   */\n      tag_190\n      jump\t// in\n    tag_394:\n        /* \"#utility.yul\":15161:15235   */\n      swap2\n      pop\n        /* \"#utility.yul\":15244:15337   */\n      tag_395\n        /* \"#utility.yul\":15333:15336   */\n      dup3\n        /* \"#utility.yul\":15244:15337   */\n      tag_217\n      jump\t// in\n    tag_395:\n        /* \"#utility.yul\":15362:15364   */\n      0x20\n        /* \"#utility.yul\":15357:15360   */\n      dup3\n        /* \"#utility.yul\":15353:15365   */\n      add\n        /* \"#utility.yul\":15346:15365   */\n      swap1\n      pop\n        /* \"#utility.yul\":15005:15371   */\n      swap2\n      swap1\n      pop\n      jump\t// out\n        /* \"#utility.yul\":15377:15796   */\n    tag_67:\n        /* \"#utility.yul\":15543:15547   */\n      0x00\n        /* \"#utility.yul\":15581:15583   */\n      0x20\n        /* \"#utility.yul\":15570:15579   */\n      dup3\n        /* \"#utility.yul\":15566:15584   */\n      add\n        /* \"#utility.yul\":15558:15584   */\n      swap1\n      pop\n        /* \"#utility.yul\":15630:15639   */\n      dup2\n        /* \"#utility.yul\":15624:15628   */\n      dup2\n        /* \"#utility.yul\":15620:15640   */\n      sub\n        /* \"#utility.yul\":15616:15617   */\n      0x00\n        /* \"#utility.yul\":15605:15614   */\n      dup4\n        /* \"#utility.yul\":15601:15618   */\n      add\n        /* \"#utility.yul\":15594:15641   */\n      mstore\n        /* \"#utility.yul\":15658:15789   */\n      tag_397\n        /* \"#utility.yul\":15784:15788   */\n      dup2\n        /* \"#utility.yul\":15658:15789   */\n      tag_218\n      jump\t// in\n    tag_397:\n        /* \"#utility.yul\":15650:15789   */\n      swap1\n      pop\n        /* \"#utility.yul\":15377:15796   */\n      swap2\n      swap1\n      pop\n      jump\t// out\n        /* \"#utility.yul\":15802:16035   */\n    tag_70:\n        /* \"#utility.yul\":15841:15844   */\n      0x00\n        /* \"#utility.yul\":15864:15888   */\n      tag_399\n        /* \"#utility.yul\":15882:15887   */\n      dup3\n        /* \"#utility.yul\":15864:15888   */\n      tag_185\n      jump\t// in\n    tag_399:\n        /* \"#utility.yul\":15855:15888   */\n      swap2\n      pop\n        /* \"#utility.yul\":15910:15976   */\n      0xffffffffffffffffffffffffffffffffffffffffffffffffffffffffffffffff\n        /* \"#utility.yul\":15903:15908   */\n      dup3\n        /* \"#utility.yul\":15900:15977   */\n      sub\n        /* \"#utility.yul\":15897:16000   */\n      tag_400\n      jumpi\n        /* \"#utility.yul\":15980:15998   */\n      tag_401\n      tag_203\n      jump\t// in\n    tag_401:\n        /* \"#utility.yul\":15897:16000   */\n    tag_400:\n        /* \"#utility.yul\":16027:16028   */\n      0x01\n        /* \"#utility.yul\":16020:16025   */\n      dup3\n        /* \"#utility.yul\":16016:16029   */\n      add\n        /* \"#utility.yul\":16009:16029   */\n      swap1\n      pop\n        /* \"#utility.yul\":15802:16035   */\n      swap2\n      swap1\n      pop\n      jump\t// out\n        /* \"#utility.yul\":16041:16265   */\n    tag_219:\n        /* \"#utility.yul\":16181:16215   */\n      0x43616e646964617465732063616e206e6f206c6f6e676572206265207375626d\n        /* \"#utility.yul\":16177:16178   */\n      0x00\n        /* \"#utility.yul\":16169:16175   */\n      dup3\n        /* \"#utility.yul\":16165:16179   */\n      add\n        /* \"#utility.yul\":16158:16216   */\n      mstore\n        /* \"#utility.yul\":16250:16257   */\n      0x6974746564000000000000000000000000000000000000000000000000000000\n        /* \"#utility.yul\":16245:16247   */\n      0x20\n        /* \"#utility.yul\":16237:16243   */\n      dup3\n        /* \"#utility.yul\":16233:16248   */\n      add\n        /* \"#utility.yul\":16226:16258   */\n      mstore\n        /* \"#utility.yul\":16041:16265   */\n      pop\n      jump\t// out\n        /* \"#utility.yul\":16271:16637   */\n    tag_220:\n        /* \"#utility.yul\":16413:16416   */\n      0x00\n        /* \"#utility.yul\":16434:16501   */\n      tag_404\n        /* \"#utility.yul\":16498:16500   */\n      0x25\n        /* \"#utility.yul\":16493:16496   */\n      dup4\n        /* \"#utility.yul\":16434:16501   */\n      tag_190\n      jump\t// in\n    tag_404:\n        /* \"#utility.yul\":16427:16501   */\n      swap2\n      pop\n        /* \"#utility.yul\":16510:16603   */\n      tag_405\n        /* \"#utility.yul\":16599:16602   */\n      dup3\n        /* \"#utility.yul\":16510:16603   */\n      tag_219\n      jump\t// in\n    tag_405:\n        /* \"#utility.yul\":16628:16630   */\n      0x40\n        /* \"#utility.yul\":16623:16626   */\n      dup3\n        /* \"#utility.yul\":16619:16631   */\n      add\n        /* \"#utility.yul\":16612:16631   */\n      swap1\n      pop\n        /* \"#utility.yul\":16271:16637   */\n      swap2\n      swap1\n      pop\n      jump\t// out\n        /* \"#utility.yul\":16643:17062   */\n    tag_75:\n        /* \"#utility.yul\":16809:16813   */\n      0x00\n        /* \"#utility.yul\":16847:16849   */\n      0x20\n        /* \"#utility.yul\":16836:16845   */\n      dup3\n        /* \"#utility.yul\":16832:16850   */\n      add\n        /* \"#utility.yul\":16824:16850   */\n      swap1\n      pop\n        /* \"#utility.yul\":16896:16905   */\n      dup2\n        /* \"#utility.yul\":16890:16894   */\n      dup2\n        /* \"#utility.yul\":16886:16906   */\n      sub\n        /* \"#utility.yul\":16882:16883   */\n      0x00\n        /* \"#utility.yul\":16871:16880   */\n      dup4\n        /* \"#utility.yul\":16867:16884   */\n      add\n        /* \"#utility.yul\":16860:16907   */\n      mstore\n        /* \"#utility.yul\":16924:17055   */\n      tag_407\n        /* \"#utility.yul\":17050:17054   */\n      dup2\n        /* \"#utility.yul\":16924:17055   */\n      tag_220\n      jump\t// in\n    tag_407:\n        /* \"#utility.yul\":16916:17055   */\n      swap1\n      pop\n        /* \"#utility.yul\":16643:17062   */\n      swap2\n      swap1\n      pop\n      jump\t// out\n        /* \"#utility.yul\":17068:17147   */\n    tag_221:\n        /* \"#utility.yul\":17107:17114   */\n      0x00\n        /* \"#utility.yul\":17136:17141   */\n      dup2\n        /* \"#utility.yul\":17125:17141   */\n      swap1\n      pop\n        /* \"#utility.yul\":17068:17147   */\n      swap2\n      swap1\n      pop\n      jump\t// out\n        /* \"#utility.yul\":17153:17310   */\n    tag_222:\n        /* \"#utility.yul\":17258:17303   */\n      tag_410\n        /* \"#utility.yul\":17278:17302   */\n      tag_411\n        /* \"#utility.yul\":17296:17301   */\n      dup3\n        /* \"#utility.yul\":17278:17302   */\n      tag_185\n      jump\t// in\n    tag_411:\n        /* \"#utility.yul\":17258:17303   */\n      tag_221\n      jump\t// in\n    tag_410:\n        /* \"#utility.yul\":17253:17256   */\n      dup3\n        /* \"#utility.yul\":17246:17304   */\n      mstore\n        /* \"#utility.yul\":17153:17310   */\n      pop\n      pop\n      jump\t// out\n        /* \"#utility.yul\":17316:17892   */\n    tag_77:\n        /* \"#utility.yul\":17524:17527   */\n      0x00\n        /* \"#utility.yul\":17546:17641   */\n      tag_413\n        /* \"#utility.yul\":17637:17640   */\n      dup3\n        /* \"#utility.yul\":17628:17634   */\n      dup7\n        /* \"#utility.yul\":17546:17641   */\n      tag_202\n      jump\t// in\n    tag_413:\n        /* \"#utility.yul\":17539:17641   */\n      swap2\n      pop\n        /* \"#utility.yul\":17651:17726   */\n      tag_414\n        /* \"#utility.yul\":17722:17725   */\n      dup3\n        /* \"#utility.yul\":17713:17719   */\n      dup6\n        /* \"#utility.yul\":17651:17726   */\n      tag_222\n      jump\t// in\n    tag_414:\n        /* \"#utility.yul\":17751:17753   */\n      0x20\n        /* \"#utility.yul\":17746:17749   */\n      dup3\n        /* \"#utility.yul\":17742:17754   */\n      add\n        /* \"#utility.yul\":17735:17754   */\n      swap2\n      pop\n        /* \"#utility.yul\":17771:17866   */\n      tag_415\n        /* \"#utility.yul\":17862:17865   */\n      dup3\n        /* \"#utility.yul\":17853:17859   */\n      dup5\n        /* \"#utility.yul\":17771:17866   */\n      tag_202\n      jump\t// in\n    tag_415:\n        /* \"#utility.yul\":17764:17866   */\n      swap2\n      pop\n        /* \"#utility.yul\":17883:17886   */\n      dup2\n        /* \"#utility.yul\":17876:17886   */\n      swap1\n      pop\n        /* \"#utility.yul\":17316:17892   */\n      swap5\n      swap4\n      pop\n      pop\n      pop\n      pop\n      jump\t// out\n        /* \"#utility.yul\":17898:17991   */\n    tag_223:\n        /* \"#utility.yul\":17935:17941   */\n      0x00\n        /* \"#utility.yul\":17982:17984   */\n      0x20\n        /* \"#utility.yul\":17977:17979   */\n      0x1f\n        /* \"#utility.yul\":17970:17975   */\n      dup4\n        /* \"#utility.yul\":17966:17980   */\n      add\n        /* \"#utility.yul\":17962:17985   */\n      div\n        /* \"#utility.yul\":17952:17985   */\n      swap1\n      pop\n        /* \"#utility.yul\":17898:17991   */\n      swap2\n      swap1\n      pop\n      jump\t// out\n        /* \"#utility.yul\":17997:18104   */\n    tag_224:\n        /* \"#utility.yul\":18041:18049   */\n      0x00\n        /* \"#utility.yul\":18091:18096   */\n      dup3\n        /* \"#utility.yul\":18085:18089   */\n      dup3\n        /* \"#utility.yul\":18081:18097   */\n      shl\n        /* \"#utility.yul\":18060:18097   */\n      swap1\n      pop\n        /* \"#utility.yul\":17997:18104   */\n      swap3\n      swap2\n      pop\n      pop\n      jump\t// out\n        /* \"#utility.yul\":18110:18503   */\n    tag_225:\n        /* \"#utility.yul\":18179:18185   */\n      0x00\n        /* \"#utility.yul\":18229:18230   */\n      0x08\n        /* \"#utility.yul\":18217:18227   */\n      dup4\n        /* \"#utility.yul\":18213:18231   */\n      mul\n        /* \"#utility.yul\":18252:18349   */\n      tag_419\n        /* \"#utility.yul\":18282:18348   */\n      0xffffffffffffffffffffffffffffffffffffffffffffffffffffffffffffffff\n        /* \"#utility.yul\":18271:18280   */\n      dup3\n        /* \"#utility.yul\":18252:18349   */\n      tag_224\n      jump\t// in\n    tag_419:\n        /* \"#utility.yul\":18370:18409   */\n      tag_420\n        /* \"#utility.yul\":18400:18408   */\n      dup7\n        /* \"#utility.yul\":18389:18398   */\n      dup4\n        /* \"#utility.yul\":18370:18409   */\n      tag_224\n      jump\t// in\n    tag_420:\n        /* \"#utility.yul\":18358:18409   */\n      swap6\n      pop\n        /* \"#utility.yul\":18442:18446   */\n      dup1\n        /* \"#utility.yul\":18438:18447   */\n      not\n        /* \"#utility.yul\":18431:18436   */\n      dup5\n        /* \"#utility.yul\":18427:18448   */\n      and\n        /* \"#utility.yul\":18418:18448   */\n      swap4\n      pop\n        /* \"#utility.yul\":18491:18495   */\n      dup1\n        /* \"#utility.yul\":18481:18489   */\n      dup7\n        /* \"#utility.yul\":18477:18496   */\n      and\n        /* \"#utility.yul\":18470:18475   */\n      dup5\n        /* \"#utility.yul\":18467:18497   */\n      or\n        /* \"#utility.yul\":18457:18497   */\n      swap3\n      pop\n        /* \"#utility.yul\":18186:18503   */\n      pop\n      pop\n        /* \"#utility.yul\":18110:18503   */\n      swap4\n      swap3\n      pop\n      pop\n      pop\n      jump\t// out\n        /* \"#utility.yul\":18509:18569   */\n    tag_226:\n        /* \"#utility.yul\":18537:18540   */\n      0x00\n        /* \"#utility.yul\":18558:18563   */\n      dup2\n        /* \"#utility.yul\":18551:18563   */\n      swap1\n      pop\n        /* \"#utility.yul\":18509:18569   */\n      swap2\n      swap1\n      pop\n      jump\t// out\n        /* \"#utility.yul\":18575:18717   */\n    tag_227:\n        /* \"#utility.yul\":18625:18634   */\n      0x00\n        /* \"#utility.yul\":18658:18711   */\n      tag_423\n        /* \"#utility.yul\":18676:18710   */\n      tag_424\n        /* \"#utility.yul\":18685:18709   */\n      tag_425\n        /* \"#utility.yul\":18703:18708   */\n      dup5\n        /* \"#utility.yul\":18685:18709   */\n      tag_185\n      jump\t// in\n    tag_425:\n        /* \"#utility.yul\":18676:18710   */\n      tag_226\n      jump\t// in\n    tag_424:\n        /* \"#utility.yul\":18658:18711   */\n      tag_185\n      jump\t// in\n    tag_423:\n        /* \"#utility.yul\":18645:18711   */\n      swap1\n      pop\n        /* \"#utility.yul\":18575:18717   */\n      swap2\n      swap1\n      pop\n      jump\t// out\n        /* \"#utility.yul\":18723:18798   */\n    tag_228:\n        /* \"#utility.yul\":18766:18769   */\n      0x00\n        /* \"#utility.yul\":18787:18792   */\n      dup2\n        /* \"#utility.yul\":18780:18792   */\n      swap1\n      pop\n        /* \"#utility.yul\":18723:18798   */\n      swap2\n      swap1\n      pop\n      jump\t// out\n        /* \"#utility.yul\":18804:19073   */\n    tag_229:\n        /* \"#utility.yul\":18914:18953   */\n      tag_428\n        /* \"#utility.yul\":18945:18952   */\n      dup4\n        /* \"#utility.yul\":18914:18953   */\n      tag_227\n      jump\t// in\n    tag_428:\n        /* \"#utility.yul\":18975:19066   */\n      tag_429\n        /* \"#utility.yul\":19024:19065   */\n      tag_430\n        /* \"#utility.yul\":19048:19064   */\n      dup3\n        /* \"#utility.yul\":19024:19065   */\n      tag_228\n      jump\t// in\n    tag_430:\n        /* \"#utility.yul\":19016:19022   */\n      dup5\n        /* \"#utility.yul\":19009:19013   */\n      dup5\n        /* \"#utility.yul\":19003:19014   */\n      sload\n        /* \"#utility.yul\":18975:19066   */\n      tag_225\n      jump\t// in\n    tag_429:\n        /* \"#utility.yul\":18969:18973   */\n      dup3\n        /* \"#utility.yul\":18962:19067   */\n      sstore\n        /* \"#utility.yul\":18880:19073   */\n      pop\n        /* \"#utility.yul\":18804:19073   */\n      pop\n      pop\n      pop\n      jump\t// out\n        /* \"#utility.yul\":19079:19152   */\n    tag_230:\n        /* \"#utility.yul\":19124:19127   */\n      0x00\n        /* \"#utility.yul\":19079:19152   */\n      swap1\n      jump\t// out\n        /* \"#utility.yul\":19158:19347   */\n    tag_231:\n        /* \"#utility.yul\":19235:19267   */\n      tag_433\n      tag_230\n      jump\t// in\n    tag_433:\n        /* \"#utility.yul\":19276:19341   */\n      tag_434\n        /* \"#utility.yul\":19334:19340   */\n      dup2\n        /* \"#utility.yul\":19326:19332   */\n      dup5\n        /* \"#utility.yul\":19320:19324   */\n      dup5\n        /* \"#utility.yul\":19276:19341   */\n      tag_229\n      jump\t// in\n    tag_434:\n        /* \"#utility.yul\":19211:19347   */\n      pop\n        /* \"#utility.yul\":19158:19347   */\n      pop\n      pop\n      jump\t// out\n        /* \"#utility.yul\":19353:19539   */\n    tag_232:\n        /* \"#utility.yul\":19413:19533   */\n    tag_436:\n        /* \"#utility.yul\":19430:19433   */\n      dup2\n        /* \"#utility.yul\":19423:19428   */\n      dup2\n        /* \"#utility.yul\":19420:19434   */\n      lt\n        /* \"#utility.yul\":19413:19533   */\n      iszero\n      tag_438\n      jumpi\n        /* \"#utility.yul\":19484:19523   */\n      tag_439\n        /* \"#utility.yul\":19521:19522   */\n      0x00\n        /* \"#utility.yul\":19514:19519   */\n      dup3\n        /* \"#utility.yul\":19484:19523   */\n      tag_231\n      jump\t// in\n    tag_439:\n        /* \"#utility.yul\":19457:19458   */\n      0x01\n        /* \"#utility.yul\":19450:19455   */\n      dup2\n        /* \"#utility.yul\":19446:19459   */\n      add\n        /* \"#utility.yul\":19437:19459   */\n      swap1\n      pop\n        /* \"#utility.yul\":19413:19533   */\n      jump(tag_436)\n    tag_438:\n        /* \"#utility.yul\":19353:19539   */\n      pop\n      pop\n      jump\t// out\n        /* \"#utility.yul\":19545:20088   */\n    tag_233:\n        /* \"#utility.yul\":19646:19648   */\n      0x1f\n        /* \"#utility.yul\":19641:19644   */\n      dup3\n        /* \"#utility.yul\":19638:19649   */\n      gt\n        /* \"#utility.yul\":19635:20081   */\n      iszero\n      tag_441\n      jumpi\n        /* \"#utility.yul\":19680:19718   */\n      tag_442\n        /* \"#utility.yul\":19712:19717   */\n      dup2\n        /* \"#utility.yul\":19680:19718   */\n      tag_215\n      jump\t// in\n    tag_442:\n        /* \"#utility.yul\":19764:19793   */\n      tag_443\n        /* \"#utility.yul\":19782:19792   */\n      dup5\n        /* \"#utility.yul\":19764:19793   */\n      tag_223\n      jump\t// in\n    tag_443:\n        /* \"#utility.yul\":19754:19762   */\n      dup2\n        /* \"#utility.yul\":19750:19794   */\n      add\n        /* \"#utility.yul\":19947:19949   */\n      0x20\n        /* \"#utility.yul\":19935:19945   */\n      dup6\n        /* \"#utility.yul\":19932:19950   */\n      lt\n        /* \"#utility.yul\":19929:19978   */\n      iszero\n      tag_444\n      jumpi\n        /* \"#utility.yul\":19968:19976   */\n      dup2\n        /* \"#utility.yul\":19953:19976   */\n      swap1\n      pop\n        /* \"#utility.yul\":19929:19978   */\n    tag_444:\n        /* \"#utility.yul\":19991:20071   */\n      tag_445\n        /* \"#utility.yul\":20047:20069   */\n      tag_446\n        /* \"#utility.yul\":20065:20068   */\n      dup6\n        /* \"#utility.yul\":20047:20069   */\n      tag_223\n      jump\t// in\n    tag_446:\n        /* \"#utility.yul\":20037:20045   */\n      dup4\n        /* \"#utility.yul\":20033:20070   */\n      add\n        /* \"#utility.yul\":20020:20031   */\n      dup3\n        /* \"#utility.yul\":19991:20071   */\n      tag_232\n      jump\t// in\n    tag_445:\n        /* \"#utility.yul\":19650:20081   */\n      pop\n      pop\n        /* \"#utility.yul\":19635:20081   */\n    tag_441:\n        /* \"#utility.yul\":19545:20088   */\n      pop\n      pop\n      pop\n      jump\t// out\n        /* \"#utility.yul\":20094:20211   */\n    tag_234:\n        /* \"#utility.yul\":20148:20156   */\n      0x00\n        /* \"#utility.yul\":20198:20203   */\n      dup3\n        /* \"#utility.yul\":20192:20196   */\n      dup3\n        /* \"#utility.yul\":20188:20204   */\n      shr\n        /* \"#utility.yul\":20167:20204   */\n      swap1\n      pop\n        /* \"#utility.yul\":20094:20211   */\n      swap3\n      swap2\n      pop\n      pop\n      jump\t// out\n        /* \"#utility.yul\":20217:20386   */\n    tag_235:\n        /* \"#utility.yul\":20261:20267   */\n      0x00\n        /* \"#utility.yul\":20294:20345   */\n      tag_449\n        /* \"#utility.yul\":20342:20343   */\n      0x00\n        /* \"#utility.yul\":20338:20344   */\n      not\n        /* \"#utility.yul\":20330:20335   */\n      dup5\n        /* \"#utility.yul\":20327:20328   */\n      0x08\n        /* \"#utility.yul\":20323:20336   */\n      mul\n        /* \"#utility.yul\":20294:20345   */\n      tag_234\n      jump\t// in\n    tag_449:\n        /* \"#utility.yul\":20290:20346   */\n      not\n        /* \"#utility.yul\":20375:20379   */\n      dup1\n        /* \"#utility.yul\":20369:20373   */\n      dup4\n        /* \"#utility.yul\":20365:20380   */\n      and\n        /* \"#utility.yul\":20355:20380   */\n      swap2\n      pop\n        /* \"#utility.yul\":20268:20386   */\n      pop\n        /* \"#utility.yul\":20217:20386   */\n      swap3\n      swap2\n      pop\n      pop\n      jump\t// out\n        /* \"#utility.yul\":20391:20686   */\n    tag_236:\n        /* \"#utility.yul\":20467:20471   */\n      0x00\n        /* \"#utility.yul\":20613:20642   */\n      tag_451\n        /* \"#utility.yul\":20638:20641   */\n      dup4\n        /* \"#utility.yul\":20632:20636   */\n      dup4\n        /* \"#utility.yul\":20613:20642   */\n      tag_235\n      jump\t// in\n    tag_451:\n        /* \"#utility.yul\":20605:20642   */\n      swap2\n      pop\n        /* \"#utility.yul\":20675:20678   */\n      dup3\n        /* \"#utility.yul\":20672:20673   */\n      0x02\n        /* \"#utility.yul\":20668:20679   */\n      mul\n        /* \"#utility.yul\":20662:20666   */\n      dup3\n        /* \"#utility.yul\":20659:20680   */\n      or\n        /* \"#utility.yul\":20651:20680   */\n      swap1\n      pop\n        /* \"#utility.yul\":20391:20686   */\n      swap3\n      swap2\n      pop\n      pop\n      jump\t// out\n        /* \"#utility.yul\":20691:22086   */\n    tag_81:\n        /* \"#utility.yul\":20808:20845   */\n      tag_453\n        /* \"#utility.yul\":20841:20844   */\n      dup3\n        /* \"#utility.yul\":20808:20845   */\n      tag_189\n      jump\t// in\n    tag_453:\n        /* \"#utility.yul\":20910:20928   */\n      0xffffffffffffffff\n        /* \"#utility.yul\":20902:20908   */\n      dup2\n        /* \"#utility.yul\":20899:20929   */\n      gt\n        /* \"#utility.yul\":20896:20952   */\n      iszero\n      tag_454\n      jumpi\n        /* \"#utility.yul\":20932:20950   */\n      tag_455\n      tag_159\n      jump\t// in\n    tag_455:\n        /* \"#utility.yul\":20896:20952   */\n    tag_454:\n        /* \"#utility.yul\":20976:21014   */\n      tag_456\n        /* \"#utility.yul\":21008:21012   */\n      dup3\n        /* \"#utility.yul\":21002:21013   */\n      sload\n        /* \"#utility.yul\":20976:21014   */\n      tag_91\n      jump\t// in\n    tag_456:\n        /* \"#utility.yul\":21061:21128   */\n      tag_457\n        /* \"#utility.yul\":21121:21127   */\n      dup3\n        /* \"#utility.yul\":21113:21119   */\n      dup3\n        /* \"#utility.yul\":21107:21111   */\n      dup6\n        /* \"#utility.yul\":21061:21128   */\n      tag_233\n      jump\t// in\n    tag_457:\n        /* \"#utility.yul\":21155:21156   */\n      0x00\n        /* \"#utility.yul\":21179:21183   */\n      0x20\n        /* \"#utility.yul\":21166:21183   */\n      swap1\n      pop\n        /* \"#utility.yul\":21211:21213   */\n      0x1f\n        /* \"#utility.yul\":21203:21209   */\n      dup4\n        /* \"#utility.yul\":21200:21214   */\n      gt\n        /* \"#utility.yul\":21228:21229   */\n      0x01\n        /* \"#utility.yul\":21223:21841   */\n      dup2\n      eq\n      tag_459\n      jumpi\n        /* \"#utility.yul\":21885:21886   */\n      0x00\n        /* \"#utility.yul\":21902:21908   */\n      dup5\n        /* \"#utility.yul\":21899:21976   */\n      iszero\n      tag_460\n      jumpi\n        /* \"#utility.yul\":21951:21960   */\n      dup3\n        /* \"#utility.yul\":21946:21949   */\n      dup8\n        /* \"#utility.yul\":21942:21961   */\n      add\n        /* \"#utility.yul\":21936:21962   */\n      mload\n        /* \"#utility.yul\":21927:21962   */\n      swap1\n      pop\n        /* \"#utility.yul\":21899:21976   */\n    tag_460:\n        /* \"#utility.yul\":22002:22069   */\n      tag_461\n        /* \"#utility.yul\":22062:22068   */\n      dup6\n        /* \"#utility.yul\":22055:22060   */\n      dup3\n        /* \"#utility.yul\":22002:22069   */\n      tag_236\n      jump\t// in\n    tag_461:\n        /* \"#utility.yul\":21996:22000   */\n      dup7\n        /* \"#utility.yul\":21989:22070   */\n      sstore\n        /* \"#utility.yul\":21858:22080   */\n      pop\n        /* \"#utility.yul\":21193:22080   */\n      jump(tag_458)\n        /* \"#utility.yul\":21223:21841   */\n    tag_459:\n        /* \"#utility.yul\":21275:21279   */\n      0x1f\n        /* \"#utility.yul\":21271:21280   */\n      not\n        /* \"#utility.yul\":21263:21269   */\n      dup5\n        /* \"#utility.yul\":21259:21281   */\n      and\n        /* \"#utility.yul\":21309:21346   */\n      tag_462\n        /* \"#utility.yul\":21341:21345   */\n      dup7\n        /* \"#utility.yul\":21309:21346   */\n      tag_215\n      jump\t// in\n    tag_462:\n        /* \"#utility.yul\":21368:21369   */\n      0x00\n        /* \"#utility.yul\":21382:21590   */\n    tag_463:\n        /* \"#utility.yul\":21396:21403   */\n      dup3\n        /* \"#utility.yul\":21393:21394   */\n      dup2\n        /* \"#utility.yul\":21390:21404   */\n      lt\n        /* \"#utility.yul\":21382:21590   */\n      iszero\n      tag_465\n      jumpi\n        /* \"#utility.yul\":21475:21484   */\n      dup5\n        /* \"#utility.yul\":21470:21473   */\n      dup10\n        /* \"#utility.yul\":21466:21485   */\n      add\n        /* \"#utility.yul\":21460:21486   */\n      mload\n        /* \"#utility.yul\":21452:21458   */\n      dup3\n        /* \"#utility.yul\":21445:21487   */\n      sstore\n        /* \"#utility.yul\":21526:21527   */\n      0x01\n        /* \"#utility.yul\":21518:21524   */\n      dup3\n        /* \"#utility.yul\":21514:21528   */\n      add\n        /* \"#utility.yul\":21504:21528   */\n      swap2\n      pop\n        /* \"#utility.yul\":21573:21575   */\n      0x20\n        /* \"#utility.yul\":21562:21571   */\n      dup6\n        /* \"#utility.yul\":21558:21576   */\n      add\n        /* \"#utility.yul\":21545:21576   */\n      swap5\n      pop\n        /* \"#utility.yul\":21419:21423   */\n      0x20\n        /* \"#utility.yul\":21416:21417   */\n      dup2\n        /* \"#utility.yul\":21412:21424   */\n      add\n        /* \"#utility.yul\":21407:21424   */\n      swap1\n      pop\n        /* \"#utility.yul\":21382:21590   */\n      jump(tag_463)\n    tag_465:\n        /* \"#utility.yul\":21618:21624   */\n      dup7\n        /* \"#utility.yul\":21609:21616   */\n      dup4\n        /* \"#utility.yul\":21606:21625   */\n      lt\n        /* \"#utility.yul\":21603:21782   */\n      iszero\n      tag_466\n      jumpi\n        /* \"#utility.yul\":21676:21685   */\n      dup5\n        /* \"#utility.yul\":21671:21674   */\n      dup10\n        /* \"#utility.yul\":21667:21686   */\n      add\n        /* \"#utility.yul\":21661:21687   */\n      mload\n        /* \"#utility.yul\":21719:21767   */\n      tag_467\n        /* \"#utility.yul\":21761:21765   */\n      0x1f\n        /* \"#utility.yul\":21753:21759   */\n      dup10\n        /* \"#utility.yul\":21749:21766   */\n      and\n        /* \"#utility.yul\":21738:21747   */\n      dup3\n        /* \"#utility.yul\":21719:21767   */\n      tag_235\n      jump\t// in\n    tag_467:\n        /* \"#utility.yul\":21711:21717   */\n      dup4\n        /* \"#utility.yul\":21704:21768   */\n      sstore\n        /* \"#utility.yul\":21626:21782   */\n      pop\n        /* \"#utility.yul\":21603:21782   */\n    tag_466:\n        /* \"#utility.yul\":21828:21829   */\n      0x01\n        /* \"#utility.yul\":21824:21825   */\n      0x02\n        /* \"#utility.yul\":21816:21822   */\n      dup9\n        /* \"#utility.yul\":21812:21826   */\n      mul\n        /* \"#utility.yul\":21808:21830   */\n      add\n        /* \"#utility.yul\":21802:21806   */\n      dup9\n        /* \"#utility.yul\":21795:21831   */\n      sstore\n        /* \"#utility.yul\":21230:21841   */\n      pop\n      pop\n      pop\n        /* \"#utility.yul\":21193:22080   */\n    tag_458:\n      pop\n        /* \"#utility.yul\":20783:22086   */\n      pop\n      pop\n      pop\n        /* \"#utility.yul\":20691:22086   */\n      pop\n      pop\n      jump\t// out\n        /* \"#utility.yul\":22092:22269   */\n    tag_237:\n        /* \"#utility.yul\":22232:22261   */\n      0x566f74696e67206973207374696c6c20696e2070726f67726573730000000000\n        /* \"#utility.yul\":22228:22229   */\n      0x00\n        /* \"#utility.yul\":22220:22226   */\n      dup3\n        /* \"#utility.yul\":22216:22230   */\n      add\n        /* \"#utility.yul\":22209:22262   */\n      mstore\n        /* \"#utility.yul\":22092:22269   */\n      pop\n      jump\t// out\n        /* \"#utility.yul\":22275:22641   */\n    tag_238:\n        /* \"#utility.yul\":22417:22420   */\n      0x00\n        /* \"#utility.yul\":22438:22505   */\n      tag_470\n        /* \"#utility.yul\":22502:22504   */\n      0x1b\n        /* \"#utility.yul\":22497:22500   */\n      dup4\n        /* \"#utility.yul\":22438:22505   */\n      tag_190\n      jump\t// in\n    tag_470:\n        /* \"#utility.yul\":22431:22505   */\n      swap2\n      pop\n        /* \"#utility.yul\":22514:22607   */\n      tag_471\n        /* \"#utility.yul\":22603:22606   */\n      dup3\n        /* \"#utility.yul\":22514:22607   */\n      tag_237\n      jump\t// in\n    tag_471:\n        /* \"#utility.yul\":22632:22634   */\n      0x20\n        /* \"#utility.yul\":22627:22630   */\n      dup3\n        /* \"#utility.yul\":22623:22635   */\n      add\n        /* \"#utility.yul\":22616:22635   */\n      swap1\n      pop\n        /* \"#utility.yul\":22275:22641   */\n      swap2\n      swap1\n      pop\n      jump\t// out\n        /* \"#utility.yul\":22647:23066   */\n    tag_86:\n        /* \"#utility.yul\":22813:22817   */\n      0x00\n        /* \"#utility.yul\":22851:22853   */\n      0x20\n        /* \"#utility.yul\":22840:22849   */\n      dup3\n        /* \"#utility.yul\":22836:22854   */\n      add\n        /* \"#utility.yul\":22828:22854   */\n      swap1\n      pop\n        /* \"#utility.yul\":22900:22909   */\n      dup2\n        /* \"#utility.yul\":22894:22898   */\n      dup2\n        /* \"#utility.yul\":22890:22910   */\n      sub\n        /* \"#utility.yul\":22886:22887   */\n      0x00\n        /* \"#utility.yul\":22875:22884   */\n      dup4\n        /* \"#utility.yul\":22871:22888   */\n      add\n        /* \"#utility.yul\":22864:22911   */\n      mstore\n        /* \"#utility.yul\":22928:23059   */\n      tag_473\n        /* \"#utility.yul\":23054:23058   */\n      dup2\n        /* \"#utility.yul\":22928:23059   */\n      tag_238\n      jump\t// in\n    tag_473:\n        /* \"#utility.yul\":22920:23059   */\n      swap1\n      pop\n        /* \"#utility.yul\":22647:23066   */\n      swap2\n      swap1\n      pop\n      jump\t// out\n        /* \"#utility.yul\":23072:23227   */\n    tag_239:\n        /* \"#utility.yul\":23212:23215   */\n      0x2800000000000000000000000000000000000000000000000000000000000000\n        /* \"#utility.yul\":23208:23209   */\n      0x00\n        /* \"#utility.yul\":23200:23206   */\n      dup3\n        /* \"#utility.yul\":23196:23210   */\n      add\n        /* \"#utility.yul\":23189:23216   */\n      mstore\n        /* \"#utility.yul\":23072:23227   */\n      pop\n      jump\t// out\n        /* \"#utility.yul\":23237:23653   */\n    tag_240:\n        /* \"#utility.yul\":23397:23400   */\n      0x00\n        /* \"#utility.yul\":23422:23506   */\n      tag_476\n        /* \"#utility.yul\":23504:23505   */\n      0x01\n        /* \"#utility.yul\":23499:23502   */\n      dup4\n        /* \"#utility.yul\":23422:23506   */\n      tag_201\n      jump\t// in\n    tag_476:\n        /* \"#utility.yul\":23415:23506   */\n      swap2\n      pop\n        /* \"#utility.yul\":23519:23612   */\n      tag_477\n        /* \"#utility.yul\":23608:23611   */\n      dup3\n        /* \"#utility.yul\":23519:23612   */\n      tag_239\n      jump\t// in\n    tag_477:\n        /* \"#utility.yul\":23641:23642   */\n      0x01\n        /* \"#utility.yul\":23636:23639   */\n      dup3\n        /* \"#utility.yul\":23632:23643   */\n      add\n        /* \"#utility.yul\":23625:23643   */\n      swap1\n      pop\n        /* \"#utility.yul\":23237:23653   */\n      swap2\n      swap1\n      pop\n      jump\t// out\n        /* \"#utility.yul\":23663:23823   */\n    tag_241:\n        /* \"#utility.yul\":23807:23811   */\n      0x2c20000000000000000000000000000000000000000000000000000000000000\n        /* \"#utility.yul\":23803:23804   */\n      0x00\n        /* \"#utility.yul\":23795:23801   */\n      dup3\n        /* \"#utility.yul\":23791:23805   */\n      add\n        /* \"#utility.yul\":23784:23812   */\n      mstore\n        /* \"#utility.yul\":23663:23823   */\n      pop\n      jump\t// out\n        /* \"#utility.yul\":23833:24249   */\n    tag_242:\n        /* \"#utility.yul\":23993:23996   */\n      0x00\n        /* \"#utility.yul\":24018:24102   */\n      tag_480\n        /* \"#utility.yul\":24100:24101   */\n      0x02\n        /* \"#utility.yul\":24095:24098   */\n      dup4\n        /* \"#utility.yul\":24018:24102   */\n      tag_201\n      jump\t// in\n    tag_480:\n        /* \"#utility.yul\":24011:24102   */\n      swap2\n      pop\n        /* \"#utility.yul\":24115:24208   */\n      tag_481\n        /* \"#utility.yul\":24204:24207   */\n      dup3\n        /* \"#utility.yul\":24115:24208   */\n      tag_241\n      jump\t// in\n    tag_481:\n        /* \"#utility.yul\":24237:24238   */\n      0x02\n        /* \"#utility.yul\":24232:24235   */\n      dup3\n        /* \"#utility.yul\":24228:24239   */\n      add\n        /* \"#utility.yul\":24221:24239   */\n      swap1\n      pop\n        /* \"#utility.yul\":23833:24249   */\n      swap2\n      swap1\n      pop\n      jump\t// out\n        /* \"#utility.yul\":24259:24413   */\n    tag_243:\n        /* \"#utility.yul\":24399:24405   */\n      0x292d2d2d00000000000000000000000000000000000000000000000000000000\n        /* \"#utility.yul\":24395:24396   */\n      0x00\n        /* \"#utility.yul\":24387:24393   */\n      dup3\n        /* \"#utility.yul\":24383:24397   */\n      add\n        /* \"#utility.yul\":24376:24406   */\n      mstore\n        /* \"#utility.yul\":24259:24413   */\n      pop\n      jump\t// out\n        /* \"#utility.yul\":24419:24819   */\n    tag_244:\n        /* \"#utility.yul\":24579:24582   */\n      0x00\n        /* \"#utility.yul\":24600:24684   */\n      tag_484\n        /* \"#utility.yul\":24682:24683   */\n      0x04\n        /* \"#utility.yul\":24677:24680   */\n      dup4\n        /* \"#utility.yul\":24600:24684   */\n      tag_201\n      jump\t// in\n    tag_484:\n        /* \"#utility.yul\":24593:24684   */\n      swap2\n      pop\n        /* \"#utility.yul\":24693:24786   */\n      tag_485\n        /* \"#utility.yul\":24782:24785   */\n      dup3\n        /* \"#utility.yul\":24693:24786   */\n      tag_243\n      jump\t// in\n    tag_485:\n        /* \"#utility.yul\":24811:24812   */\n      0x04\n        /* \"#utility.yul\":24806:24809   */\n      dup3\n        /* \"#utility.yul\":24802:24813   */\n      add\n        /* \"#utility.yul\":24795:24813   */\n      swap1\n      pop\n        /* \"#utility.yul\":24419:24819   */\n      swap2\n      swap1\n      pop\n      jump\t// out\n        /* \"#utility.yul\":24825:26212   */\n    tag_140:\n        /* \"#utility.yul\":25353:25356   */\n      0x00\n        /* \"#utility.yul\":25375:25470   */\n      tag_487\n        /* \"#utility.yul\":25466:25469   */\n      dup3\n        /* \"#utility.yul\":25457:25463   */\n      dup7\n        /* \"#utility.yul\":25375:25470   */\n      tag_202\n      jump\t// in\n    tag_487:\n        /* \"#utility.yul\":25368:25470   */\n      swap2\n      pop\n        /* \"#utility.yul\":25487:25635   */\n      tag_488\n        /* \"#utility.yul\":25631:25634   */\n      dup3\n        /* \"#utility.yul\":25487:25635   */\n      tag_240\n      jump\t// in\n    tag_488:\n        /* \"#utility.yul\":25480:25635   */\n      swap2\n      pop\n        /* \"#utility.yul\":25652:25744   */\n      tag_489\n        /* \"#utility.yul\":25740:25743   */\n      dup3\n        /* \"#utility.yul\":25731:25737   */\n      dup6\n        /* \"#utility.yul\":25652:25744   */\n      tag_216\n      jump\t// in\n    tag_489:\n        /* \"#utility.yul\":25645:25744   */\n      swap2\n      pop\n        /* \"#utility.yul\":25761:25909   */\n      tag_490\n        /* \"#utility.yul\":25905:25908   */\n      dup3\n        /* \"#utility.yul\":25761:25909   */\n      tag_242\n      jump\t// in\n    tag_490:\n        /* \"#utility.yul\":25754:25909   */\n      swap2\n      pop\n        /* \"#utility.yul\":25926:26021   */\n      tag_491\n        /* \"#utility.yul\":26017:26020   */\n      dup3\n        /* \"#utility.yul\":26008:26014   */\n      dup5\n        /* \"#utility.yul\":25926:26021   */\n      tag_202\n      jump\t// in\n    tag_491:\n        /* \"#utility.yul\":25919:26021   */\n      swap2\n      pop\n        /* \"#utility.yul\":26038:26186   */\n      tag_492\n        /* \"#utility.yul\":26182:26185   */\n      dup3\n        /* \"#utility.yul\":26038:26186   */\n      tag_244\n      jump\t// in\n    tag_492:\n        /* \"#utility.yul\":26031:26186   */\n      swap2\n      pop\n        /* \"#utility.yul\":26203:26206   */\n      dup2\n        /* \"#utility.yul\":26196:26206   */\n      swap1\n      pop\n        /* \"#utility.yul\":24825:26212   */\n      swap5\n      swap4\n      pop\n      pop\n      pop\n      pop\n      jump\t// out\n        /* \"#utility.yul\":26218:26398   */\n    tag_245:\n        /* \"#utility.yul\":26266:26343   */\n      0x4e487b7100000000000000000000000000000000000000000000000000000000\n        /* \"#utility.yul\":26263:26264   */\n      0x00\n        /* \"#utility.yul\":26256:26344   */\n      mstore\n        /* \"#utility.yul\":26363:26367   */\n      0x12\n        /* \"#utility.yul\":26360:26361   */\n      0x04\n        /* \"#utility.yul\":26353:26368   */\n      mstore\n        /* \"#utility.yul\":26387:26391   */\n      0x24\n        /* \"#utility.yul\":26384:26385   */\n      0x00\n        /* \"#utility.yul\":26377:26392   */\n      revert\n        /* \"#utility.yul\":26404:26589   */\n    tag_156:\n        /* \"#utility.yul\":26444:26445   */\n      0x00\n        /* \"#utility.yul\":26461:26481   */\n      tag_495\n        /* \"#utility.yul\":26479:26480   */\n      dup3\n        /* \"#utility.yul\":26461:26481   */\n      tag_185\n      jump\t// in\n    tag_495:\n        /* \"#utility.yul\":26456:26481   */\n      swap2\n      pop\n        /* \"#utility.yul\":26495:26515   */\n      tag_496\n        /* \"#utility.yul\":26513:26514   */\n      dup4\n        /* \"#utility.yul\":26495:26515   */\n      tag_185\n      jump\t// in\n    tag_496:\n        /* \"#utility.yul\":26490:26515   */\n      swap3\n      pop\n        /* \"#utility.yul\":26534:26535   */\n      dup3\n        /* \"#utility.yul\":26524:26559   */\n      tag_497\n      jumpi\n        /* \"#utility.yul\":26539:26557   */\n      tag_498\n      tag_245\n      jump\t// in\n    tag_498:\n        /* \"#utility.yul\":26524:26559   */\n    tag_497:\n        /* \"#utility.yul\":26581:26582   */\n      dup3\n        /* \"#utility.yul\":26578:26579   */\n      dup3\n        /* \"#utility.yul\":26574:26583   */\n      div\n        /* \"#utility.yul\":26569:26583   */\n      swap1\n      pop\n        /* \"#utility.yul\":26404:26589   */\n      swap3\n      swap2\n      pop\n      pop\n      jump\t// out\n        /* \"#utility.yul\":26595:26789   */\n    tag_162:\n        /* \"#utility.yul\":26635:26639   */\n      0x00\n        /* \"#utility.yul\":26655:26675   */\n      tag_500\n        /* \"#utility.yul\":26673:26674   */\n      dup3\n        /* \"#utility.yul\":26655:26675   */\n      tag_185\n      jump\t// in\n    tag_500:\n        /* \"#utility.yul\":26650:26675   */\n      swap2\n      pop\n        /* \"#utility.yul\":26689:26709   */\n      tag_501\n        /* \"#utility.yul\":26707:26708   */\n      dup4\n        /* \"#utility.yul\":26689:26709   */\n      tag_185\n      jump\t// in\n    tag_501:\n        /* \"#utility.yul\":26684:26709   */\n      swap3\n      pop\n        /* \"#utility.yul\":26733:26734   */\n      dup3\n        /* \"#utility.yul\":26730:26731   */\n      dup3\n        /* \"#utility.yul\":26726:26735   */\n      sub\n        /* \"#utility.yul\":26718:26735   */\n      swap1\n      pop\n        /* \"#utility.yul\":26757:26758   */\n      dup2\n        /* \"#utility.yul\":26751:26755   */\n      dup2\n        /* \"#utility.yul\":26748:26759   */\n      gt\n        /* \"#utility.yul\":26745:26782   */\n      iszero\n      tag_502\n      jumpi\n        /* \"#utility.yul\":26762:26780   */\n      tag_503\n      tag_203\n      jump\t// in\n    tag_503:\n        /* \"#utility.yul\":26745:26782   */\n    tag_502:\n        /* \"#utility.yul\":26595:26789   */\n      swap3\n      swap2\n      pop\n      pop\n      jump\t// out\n        /* \"#utility.yul\":26795:26971   */\n    tag_166:\n        /* \"#utility.yul\":26827:26828   */\n      0x00\n        /* \"#utility.yul\":26844:26864   */\n      tag_505\n        /* \"#utility.yul\":26862:26863   */\n      dup3\n        /* \"#utility.yul\":26844:26864   */\n      tag_185\n      jump\t// in\n    tag_505:\n        /* \"#utility.yul\":26839:26864   */\n      swap2\n      pop\n        /* \"#utility.yul\":26878:26898   */\n      tag_506\n        /* \"#utility.yul\":26896:26897   */\n      dup4\n        /* \"#utility.yul\":26878:26898   */\n      tag_185\n      jump\t// in\n    tag_506:\n        /* \"#utility.yul\":26873:26898   */\n      swap3\n      pop\n        /* \"#utility.yul\":26917:26918   */\n      dup3\n        /* \"#utility.yul\":26907:26942   */\n      tag_507\n      jumpi\n        /* \"#utility.yul\":26922:26940   */\n      tag_508\n      tag_245\n      jump\t// in\n    tag_508:\n        /* \"#utility.yul\":26907:26942   */\n    tag_507:\n        /* \"#utility.yul\":26963:26964   */\n      dup3\n        /* \"#utility.yul\":26960:26961   */\n      dup3\n        /* \"#utility.yul\":26956:26965   */\n      mod\n        /* \"#utility.yul\":26951:26965   */\n      swap1\n      pop\n        /* \"#utility.yul\":26795:26971   */\n      swap3\n      swap2\n      pop\n      pop\n      jump\t// out\n        /* \"#utility.yul\":26977:27148   */\n    tag_169:\n        /* \"#utility.yul\":27016:27019   */\n      0x00\n        /* \"#utility.yul\":27039:27063   */\n      tag_510\n        /* \"#utility.yul\":27057:27062   */\n      dup3\n        /* \"#utility.yul\":27039:27063   */\n      tag_185\n      jump\t// in\n    tag_510:\n        /* \"#utility.yul\":27030:27063   */\n      swap2\n      pop\n        /* \"#utility.yul\":27085:27089   */\n      0x00\n        /* \"#utility.yul\":27078:27083   */\n      dup3\n        /* \"#utility.yul\":27075:27090   */\n      sub\n        /* \"#utility.yul\":27072:27113   */\n      tag_511\n      jumpi\n        /* \"#utility.yul\":27093:27111   */\n      tag_512\n      tag_203\n      jump\t// in\n    tag_512:\n        /* \"#utility.yul\":27072:27113   */\n    tag_511:\n        /* \"#utility.yul\":27140:27141   */\n      0x01\n        /* \"#utility.yul\":27133:27138   */\n      dup3\n        /* \"#utility.yul\":27129:27142   */\n      sub\n        /* \"#utility.yul\":27122:27142   */\n      swap1\n      pop\n        /* \"#utility.yul\":26977:27148   */\n      swap2\n      swap1\n      pop\n      jump\t// out\n    stop\n    data_4086b3bbe03bd600325d309ca67c774e76e60d64029b09a41a97825a6428ae2c 457175616c20766f746573206265747765656e2063616e646964617465732e204e6f2077696e6e657221\n\n    auxdata: 0xa26469706673582212207526f2e5106373d9a475b8d0d24603f71aa2a873eb400b714d009a2740d2ae1b64736f6c634300081a0033\n}\n",
				"bytecode": {
					"linkReferences": {},
					"object": "6080604052348015600e575f80fd5b50335f806101000a81548173ffffffffffffffffffffffffffffffffffffffff021916908373ffffffffffffffffffffffffffffffffffffffff16021790555042600181905550611889806100625f395ff3fe608060405234801561000f575f80fd5b5060043610610060575f3560e01c8063032a08d914610064578063323082d71461009457806333bbc887146100b0578063b2b98ed2146100cc578063bc9cd2ce146100ea578063c03cd5d114610108575b5f80fd5b61007e60048036038101906100799190610bb2565b610126565b60405161008b9190610c11565b60405180910390f35b6100ae60048036038101906100a99190610bb2565b61014d565b005b6100ca60048036038101906100c59190610c54565b61037a565b005b6100d4610455565b6040516100e19190610d3c565b60405180910390f35b6100f2610710565b6040516100ff9190610d3c565b60405180910390f35b61011061082a565b60405161011d9190610e5f565b60405180910390f35b5f6003826040516101379190610eb9565b9081526020016040518091039020549050919050565b61012c60015461015d9190610efc565b42111561019f576040517f08c379a000000000000000000000000000000000000000000000000000000000815260040161019690610f79565b60405180910390fd5b5f336040516020016101b1919061100c565b6040516020818303038152906040528051906020012090505f5b6005805490508110156102435781600582815481106101ed576101ec611026565b5b905f5260205f20015403610236576040517f08c379a000000000000000000000000000000000000000000000000000000000815260040161022d9061109d565b60405180910390fd5b80806001019150506101cb565b50600581908060018154018082558091505060019003905f5260205f20015f90919091909150555f805b6004805490508110156102fa578360405160200161028b9190610eb9565b60405160208183030381529060405280519060200120600482815481106102b5576102b4611026565b5b905f5260205f20016040516020016102cd91906111aa565b60405160208183030381529060405280519060200120036102ed57600191505b808060010191505061026d565b506001151581151514610342576040517f08c379a00000000000000000000000000000000000000000000000000000000081526004016103399061120a565b60405180910390fd5b6003836040516103529190610eb9565b90815260200160405180910390205f81548092919061037090611228565b9190505550505050565b61012c60015461038a9190610efc565b4211156103cc576040517f08c379a00000000000000000000000000000000000000000000000000000000081526004016103c3906112df565b60405180910390fd5b5f8383836040516020016103e29392919061131d565b6040516020818303038152906040528051906020012090508060028560405161040b9190610eb9565b908152602001604051809103902081905550600484908060018154018082558091505060019003905f5260205f20015f90919091909150908161044e91906114dc565b5050505050565b606061012c6001546104679190610efc565b42116104a8576040517f08c379a000000000000000000000000000000000000000000000000000000000815260040161049f906115f5565b60405180910390fd5b5f60045f815481106104bd576104bc611026565b5b905f5260205f200180546104d0906110e8565b80601f01602080910402602001604051908101604052809291908181526020018280546104fc906110e8565b80156105475780601f1061051e57610100808354040283529160200191610547565b820191905f5260205f20905b81548152906001019060200180831161052a57829003601f168201915b505050505090505f80600190505b6004805490508110156106df5760036004828154811061057857610577611026565b5b905f5260205f200160405161058d91906111aa565b9081526020016040518091039020546003846040516105ac9190610eb9565b908152602001604051809103902054101561066e57600481815481106105d5576105d4611026565b5b905f5260205f200180546105e8906110e8565b80601f0160208091040260200160405190810160405280929190818152602001828054610614906110e8565b801561065f5780601f106106365761010080835404028352916020019161065f565b820191905f5260205f20905b81548152906001019060200180831161064257829003601f168201915b505050505092505f91506106d2565b60036004828154811061068457610683611026565b5b905f5260205f200160405161069991906111aa565b9081526020016040518091039020546003846040516106b89190610eb9565b908152602001604051809103902054036106d157600191505b5b8080600101915050610555565b506001151581151503610708576040518060600160405280602a815260200161182a602a913991505b819250505090565b6060805f5b60048054905081101561082257816004828154811061073757610736611026565b5b905f5260205f20016107f26107ed6004858154811061075957610758611026565b5b905f5260205f2001805461076c906110e8565b80601f0160208091040260200160405190810160405280929190818152602001828054610798906110e8565b80156107e35780601f106107ba576101008083540402835291602001916107e3565b820191905f5260205f20905b8154815290600101906020018083116107c657829003601f168201915b5050505050610126565b6108fe565b604051602001610804939291906116f1565b60405160208183030381529060405291508080600101915050610715565b508091505090565b60606004805480602002602001604051908101604052809291908181526020015f905b828210156108f5578382905f5260205f2001805461086a906110e8565b80601f0160208091040260200160405190810160405280929190818152602001828054610896906110e8565b80156108e15780601f106108b8576101008083540402835291602001916108e1565b820191905f5260205f20905b8154815290600101906020018083116108c457829003601f168201915b50505050508152602001906001019061084d565b50505050905090565b60605f8203610944576040518060400160405280600181526020017f30000000000000000000000000000000000000000000000000000000000000008152509050610a60565b5f8290505f5b5f821461097357808061095c90611228565b915050600a8261096c919061176f565b915061094a565b5f8167ffffffffffffffff81111561098e5761098d610a8e565b5b6040519080825280601f01601f1916602001820160405280156109c05781602001600182028036833780820191505090505b5090505f6001836109d1919061179f565b90505b5f8614610a5857600a866109e891906117d2565b60306109f49190610efc565b60f81b828280610a0390611802565b935081518110610a1657610a15611026565b5b60200101907effffffffffffffffffffffffffffffffffffffffffffffffffffffffffffff191690815f1a905350600a86610a51919061176f565b95506109d4565b819450505050505b919050565b5f604051905090565b5f80fd5b5f80fd5b5f80fd5b5f80fd5b5f601f19601f8301169050919050565b7f4e487b71000000000000000000000000000000000000000000000000000000005f52604160045260245ffd5b610ac482610a7e565b810181811067ffffffffffffffff82111715610ae357610ae2610a8e565b5b80604052505050565b5f610af5610a65565b9050610b018282610abb565b919050565b5f67ffffffffffffffff821115610b2057610b1f610a8e565b5b610b2982610a7e565b9050602081019050919050565b828183375f83830152505050565b5f610b56610b5184610b06565b610aec565b905082815260208101848484011115610b7257610b71610a7a565b5b610b7d848285610b36565b509392505050565b5f82601f830112610b9957610b98610a76565b5b8135610ba9848260208601610b44565b91505092915050565b5f60208284031215610bc757610bc6610a6e565b5b5f82013567ffffffffffffffff811115610be457610be3610a72565b5b610bf084828501610b85565b91505092915050565b5f819050919050565b610c0b81610bf9565b82525050565b5f602082019050610c245f830184610c02565b92915050565b610c3381610bf9565b8114610c3d575f80fd5b50565b5f81359050610c4e81610c2a565b92915050565b5f805f60608486031215610c6b57610c6a610a6e565b5b5f84013567ffffffffffffffff811115610c8857610c87610a72565b5b610c9486828701610b85565b9350506020610ca586828701610c40565b925050604084013567ffffffffffffffff811115610cc657610cc5610a72565b5b610cd286828701610b85565b9150509250925092565b5f81519050919050565b5f82825260208201905092915050565b8281835e5f83830152505050565b5f610d0e82610cdc565b610d188185610ce6565b9350610d28818560208601610cf6565b610d3181610a7e565b840191505092915050565b5f6020820190508181035f830152610d548184610d04565b905092915050565b5f81519050919050565b5f82825260208201905092915050565b5f819050602082019050919050565b5f82825260208201905092915050565b5f610d9f82610cdc565b610da98185610d85565b9350610db9818560208601610cf6565b610dc281610a7e565b840191505092915050565b5f610dd88383610d95565b905092915050565b5f602082019050919050565b5f610df682610d5c565b610e008185610d66565b935083602082028501610e1285610d76565b805f5b85811015610e4d5784840389528151610e2e8582610dcd565b9450610e3983610de0565b925060208a01995050600181019050610e15565b50829750879550505050505092915050565b5f6020820190508181035f830152610e778184610dec565b905092915050565b5f81905092915050565b5f610e9382610cdc565b610e9d8185610e7f565b9350610ead818560208601610cf6565b80840191505092915050565b5f610ec48284610e89565b915081905092915050565b7f4e487b71000000000000000000000000000000000000000000000000000000005f52601160045260245ffd5b5f610f0682610bf9565b9150610f1183610bf9565b9250828201905080821115610f2957610f28610ecf565b5b92915050565b7f566f74696e672074696d6520657870697265642e0000000000000000000000005f82015250565b5f610f63601483610ce6565b9150610f6e82610f2f565b602082019050919050565b5f6020820190508181035f830152610f9081610f57565b9050919050565b5f73ffffffffffffffffffffffffffffffffffffffff82169050919050565b5f610fc082610f97565b9050919050565b5f8160601b9050919050565b5f610fdd82610fc7565b9050919050565b5f610fee82610fd3565b9050919050565b61100661100182610fb6565b610fe4565b82525050565b5f6110178284610ff5565b60148201915081905092915050565b7f4e487b71000000000000000000000000000000000000000000000000000000005f52603260045260245ffd5b7f596f75206861766520616c726561647920766f746564210000000000000000005f82015250565b5f611087601783610ce6565b915061109282611053565b602082019050919050565b5f6020820190508181035f8301526110b48161107b565b9050919050565b7f4e487b71000000000000000000000000000000000000000000000000000000005f52602260045260245ffd5b5f60028204905060018216806110ff57607f821691505b602082108103611112576111116110bb565b5b50919050565b5f819050815f5260205f209050919050565b5f8154611136816110e8565b6111408186610e7f565b9450600182165f811461115a576001811461116f576111a1565b60ff19831686528115158202860193506111a1565b61117885611118565b5f5b838110156111995781548189015260018201915060208101905061117a565b838801955050505b50505092915050565b5f6111b5828461112a565b915081905092915050565b7f4e6f20737563682063616e6469646174652070726573656e742e0000000000005f82015250565b5f6111f4601a83610ce6565b91506111ff826111c0565b602082019050919050565b5f6020820190508181035f830152611221816111e8565b9050919050565b5f61123282610bf9565b91507fffffffffffffffffffffffffffffffffffffffffffffffffffffffffffffffff820361126457611263610ecf565b5b600182019050919050565b7f43616e646964617465732063616e206e6f206c6f6e676572206265207375626d5f8201527f6974746564000000000000000000000000000000000000000000000000000000602082015250565b5f6112c9602583610ce6565b91506112d48261126f565b604082019050919050565b5f6020820190508181035f8301526112f6816112bd565b9050919050565b5f819050919050565b61131761131282610bf9565b6112fd565b82525050565b5f6113288286610e89565b91506113348285611306565b6020820191506113448284610e89565b9150819050949350505050565b5f6020601f8301049050919050565b5f82821b905092915050565b5f6008830261139b7fffffffffffffffffffffffffffffffffffffffffffffffffffffffffffffffff82611360565b6113a58683611360565b95508019841693508086168417925050509392505050565b5f819050919050565b5f6113e06113db6113d684610bf9565b6113bd565b610bf9565b9050919050565b5f819050919050565b6113f9836113c6565b61140d611405826113e7565b84845461136c565b825550505050565b5f90565b611421611415565b61142c8184846113f0565b505050565b5b8181101561144f576114445f82611419565b600181019050611432565b5050565b601f8211156114945761146581611118565b61146e84611351565b8101602085101561147d578190505b61149161148985611351565b830182611431565b50505b505050565b5f82821c905092915050565b5f6114b45f1984600802611499565b1980831691505092915050565b5f6114cc83836114a5565b9150826002028217905092915050565b6114e582610cdc565b67ffffffffffffffff8111156114fe576114fd610a8e565b5b61150882546110e8565b611513828285611453565b5f60209050601f831160018114611544575f8415611532578287015190505b61153c85826114c1565b8655506115a3565b601f19841661155286611118565b5f5b8281101561157957848901518255600182019150602085019450602081019050611554565b868310156115965784890151611592601f8916826114a5565b8355505b6001600288020188555050505b505050505050565b7f566f74696e67206973207374696c6c20696e2070726f677265737300000000005f82015250565b5f6115df601b83610ce6565b91506115ea826115ab565b602082019050919050565b5f6020820190508181035f83015261160c816115d3565b9050919050565b7f28000000000000000000000000000000000000000000000000000000000000005f82015250565b5f611647600183610e7f565b915061165282611613565b600182019050919050565b7f2c200000000000000000000000000000000000000000000000000000000000005f82015250565b5f611691600283610e7f565b915061169c8261165d565b600282019050919050565b7f292d2d2d000000000000000000000000000000000000000000000000000000005f82015250565b5f6116db600483610e7f565b91506116e6826116a7565b600482019050919050565b5f6116fc8286610e89565b91506117078261163b565b9150611713828561112a565b915061171e82611685565b915061172a8284610e89565b9150611735826116cf565b9150819050949350505050565b7f4e487b71000000000000000000000000000000000000000000000000000000005f52601260045260245ffd5b5f61177982610bf9565b915061178483610bf9565b92508261179457611793611742565b5b828204905092915050565b5f6117a982610bf9565b91506117b483610bf9565b92508282039050818111156117cc576117cb610ecf565b5b92915050565b5f6117dc82610bf9565b91506117e783610bf9565b9250826117f7576117f6611742565b5b828206905092915050565b5f61180c82610bf9565b91505f820361181e5761181d610ecf565b5b60018203905091905056fe457175616c20766f746573206265747765656e2063616e646964617465732e204e6f2077696e6e657221a26469706673582212207526f2e5106373d9a475b8d0d24603f71aa2a873eb400b714d009a2740d2ae1b64736f6c634300081a0033",
					"opcodes": "PUSH1 0x80 PUSH1 0x40 MSTORE CALLVALUE DUP1 ISZERO PUSH1 0xE JUMPI PUSH0 DUP1 REVERT JUMPDEST POP CALLER PUSH0 DUP1 PUSH2 0x100 EXP DUP2 SLOAD DUP2 PUSH20 0xFFFFFFFFFFFFFFFFFFFFFFFFFFFFFFFFFFFFFFFF MUL NOT AND SWAP1 DUP4 PUSH20 0xFFFFFFFFFFFFFFFFFFFFFFFFFFFFFFFFFFFFFFFF AND MUL OR SWAP1 SSTORE POP TIMESTAMP PUSH1 0x1 DUP2 SWAP1 SSTORE POP PUSH2 0x1889 DUP1 PUSH2 0x62 PUSH0 CODECOPY PUSH0 RETURN INVALID PUSH1 0x80 PUSH1 0x40 MSTORE CALLVALUE DUP1 ISZERO PUSH2 0xF JUMPI PUSH0 DUP1 REVERT JUMPDEST POP PUSH1 0x4 CALLDATASIZE LT PUSH2 0x60 JUMPI PUSH0 CALLDATALOAD PUSH1 0xE0 SHR DUP1 PUSH4 0x32A08D9 EQ PUSH2 0x64 JUMPI DUP1 PUSH4 0x323082D7 EQ PUSH2 0x94 JUMPI DUP1 PUSH4 0x33BBC887 EQ PUSH2 0xB0 JUMPI DUP1 PUSH4 0xB2B98ED2 EQ PUSH2 0xCC JUMPI DUP1 PUSH4 0xBC9CD2CE EQ PUSH2 0xEA JUMPI DUP1 PUSH4 0xC03CD5D1 EQ PUSH2 0x108 JUMPI JUMPDEST PUSH0 DUP1 REVERT JUMPDEST PUSH2 0x7E PUSH1 0x4 DUP1 CALLDATASIZE SUB DUP2 ADD SWAP1 PUSH2 0x79 SWAP2 SWAP1 PUSH2 0xBB2 JUMP JUMPDEST PUSH2 0x126 JUMP JUMPDEST PUSH1 0x40 MLOAD PUSH2 0x8B SWAP2 SWAP1 PUSH2 0xC11 JUMP JUMPDEST PUSH1 0x40 MLOAD DUP1 SWAP2 SUB SWAP1 RETURN JUMPDEST PUSH2 0xAE PUSH1 0x4 DUP1 CALLDATASIZE SUB DUP2 ADD SWAP1 PUSH2 0xA9 SWAP2 SWAP1 PUSH2 0xBB2 JUMP JUMPDEST PUSH2 0x14D JUMP JUMPDEST STOP JUMPDEST PUSH2 0xCA PUSH1 0x4 DUP1 CALLDATASIZE SUB DUP2 ADD SWAP1 PUSH2 0xC5 SWAP2 SWAP1 PUSH2 0xC54 JUMP JUMPDEST PUSH2 0x37A JUMP JUMPDEST STOP JUMPDEST PUSH2 0xD4 PUSH2 0x455 JUMP JUMPDEST PUSH1 0x40 MLOAD PUSH2 0xE1 SWAP2 SWAP1 PUSH2 0xD3C JUMP JUMPDEST PUSH1 0x40 MLOAD DUP1 SWAP2 SUB SWAP1 RETURN JUMPDEST PUSH2 0xF2 PUSH2 0x710 JUMP JUMPDEST PUSH1 0x40 MLOAD PUSH2 0xFF SWAP2 SWAP1 PUSH2 0xD3C JUMP JUMPDEST PUSH1 0x40 MLOAD DUP1 SWAP2 SUB SWAP1 RETURN JUMPDEST PUSH2 0x110 PUSH2 0x82A JUMP JUMPDEST PUSH1 0x40 MLOAD PUSH2 0x11D SWAP2 SWAP1 PUSH2 0xE5F JUMP JUMPDEST PUSH1 0x40 MLOAD DUP1 SWAP2 SUB SWAP1 RETURN JUMPDEST PUSH0 PUSH1 0x3 DUP3 PUSH1 0x40 MLOAD PUSH2 0x137 SWAP2 SWAP1 PUSH2 0xEB9 JUMP JUMPDEST SWAP1 DUP2 MSTORE PUSH1 0x20 ADD PUSH1 0x40 MLOAD DUP1 SWAP2 SUB SWAP1 KECCAK256 SLOAD SWAP1 POP SWAP2 SWAP1 POP JUMP JUMPDEST PUSH2 0x12C PUSH1 0x1 SLOAD PUSH2 0x15D SWAP2 SWAP1 PUSH2 0xEFC JUMP JUMPDEST TIMESTAMP GT ISZERO PUSH2 0x19F JUMPI PUSH1 0x40 MLOAD PUSH32 0x8C379A000000000000000000000000000000000000000000000000000000000 DUP2 MSTORE PUSH1 0x4 ADD PUSH2 0x196 SWAP1 PUSH2 0xF79 JUMP JUMPDEST PUSH1 0x40 MLOAD DUP1 SWAP2 SUB SWAP1 REVERT JUMPDEST PUSH0 CALLER PUSH1 0x40 MLOAD PUSH1 0x20 ADD PUSH2 0x1B1 SWAP2 SWAP1 PUSH2 0x100C JUMP JUMPDEST PUSH1 0x40 MLOAD PUSH1 0x20 DUP2 DUP4 SUB SUB DUP2 MSTORE SWAP1 PUSH1 0x40 MSTORE DUP1 MLOAD SWAP1 PUSH1 0x20 ADD KECCAK256 SWAP1 POP PUSH0 JUMPDEST PUSH1 0x5 DUP1 SLOAD SWAP1 POP DUP2 LT ISZERO PUSH2 0x243 JUMPI DUP2 PUSH1 0x5 DUP3 DUP2 SLOAD DUP2 LT PUSH2 0x1ED JUMPI PUSH2 0x1EC PUSH2 0x1026 JUMP JUMPDEST JUMPDEST SWAP1 PUSH0 MSTORE PUSH1 0x20 PUSH0 KECCAK256 ADD SLOAD SUB PUSH2 0x236 JUMPI PUSH1 0x40 MLOAD PUSH32 0x8C379A000000000000000000000000000000000000000000000000000000000 DUP2 MSTORE PUSH1 0x4 ADD PUSH2 0x22D SWAP1 PUSH2 0x109D JUMP JUMPDEST PUSH1 0x40 MLOAD DUP1 SWAP2 SUB SWAP1 REVERT JUMPDEST DUP1 DUP1 PUSH1 0x1 ADD SWAP2 POP POP PUSH2 0x1CB JUMP JUMPDEST POP PUSH1 0x5 DUP2 SWAP1 DUP1 PUSH1 0x1 DUP2 SLOAD ADD DUP1 DUP3 SSTORE DUP1 SWAP2 POP POP PUSH1 0x1 SWAP1 SUB SWAP1 PUSH0 MSTORE PUSH1 0x20 PUSH0 KECCAK256 ADD PUSH0 SWAP1 SWAP2 SWAP1 SWAP2 SWAP1 SWAP2 POP SSTORE PUSH0 DUP1 JUMPDEST PUSH1 0x4 DUP1 SLOAD SWAP1 POP DUP2 LT ISZERO PUSH2 0x2FA JUMPI DUP4 PUSH1 0x40 MLOAD PUSH1 0x20 ADD PUSH2 0x28B SWAP2 SWAP1 PUSH2 0xEB9 JUMP JUMPDEST PUSH1 0x40 MLOAD PUSH1 0x20 DUP2 DUP4 SUB SUB DUP2 MSTORE SWAP1 PUSH1 0x40 MSTORE DUP1 MLOAD SWAP1 PUSH1 0x20 ADD KECCAK256 PUSH1 0x4 DUP3 DUP2 SLOAD DUP2 LT PUSH2 0x2B5 JUMPI PUSH2 0x2B4 PUSH2 0x1026 JUMP JUMPDEST JUMPDEST SWAP1 PUSH0 MSTORE PUSH1 0x20 PUSH0 KECCAK256 ADD PUSH1 0x40 MLOAD PUSH1 0x20 ADD PUSH2 0x2CD SWAP2 SWAP1 PUSH2 0x11AA JUMP JUMPDEST PUSH1 0x40 MLOAD PUSH1 0x20 DUP2 DUP4 SUB SUB DUP2 MSTORE SWAP1 PUSH1 0x40 MSTORE DUP1 MLOAD SWAP1 PUSH1 0x20 ADD KECCAK256 SUB PUSH2 0x2ED JUMPI PUSH1 0x1 SWAP2 POP JUMPDEST DUP1 DUP1 PUSH1 0x1 ADD SWAP2 POP POP PUSH2 0x26D JUMP JUMPDEST POP PUSH1 0x1 ISZERO ISZERO DUP2 ISZERO ISZERO EQ PUSH2 0x342 JUMPI PUSH1 0x40 MLOAD PUSH32 0x8C379A000000000000000000000000000000000000000000000000000000000 DUP2 MSTORE PUSH1 0x4 ADD PUSH2 0x339 SWAP1 PUSH2 0x120A JUMP JUMPDEST PUSH1 0x40 MLOAD DUP1 SWAP2 SUB SWAP1 REVERT JUMPDEST PUSH1 0x3 DUP4 PUSH1 0x40 MLOAD PUSH2 0x352 SWAP2 SWAP1 PUSH2 0xEB9 JUMP JUMPDEST SWAP1 DUP2 MSTORE PUSH1 0x20 ADD PUSH1 0x40 MLOAD DUP1 SWAP2 SUB SWAP1 KECCAK256 PUSH0 DUP2 SLOAD DUP1 SWAP3 SWAP2 SWAP1 PUSH2 0x370 SWAP1 PUSH2 0x1228 JUMP JUMPDEST SWAP2 SWAP1 POP SSTORE POP POP POP POP JUMP JUMPDEST PUSH2 0x12C PUSH1 0x1 SLOAD PUSH2 0x38A SWAP2 SWAP1 PUSH2 0xEFC JUMP JUMPDEST TIMESTAMP GT ISZERO PUSH2 0x3CC JUMPI PUSH1 0x40 MLOAD PUSH32 0x8C379A000000000000000000000000000000000000000000000000000000000 DUP2 MSTORE PUSH1 0x4 ADD PUSH2 0x3C3 SWAP1 PUSH2 0x12DF JUMP JUMPDEST PUSH1 0x40 MLOAD DUP1 SWAP2 SUB SWAP1 REVERT JUMPDEST PUSH0 DUP4 DUP4 DUP4 PUSH1 0x40 MLOAD PUSH1 0x20 ADD PUSH2 0x3E2 SWAP4 SWAP3 SWAP2 SWAP1 PUSH2 0x131D JUMP JUMPDEST PUSH1 0x40 MLOAD PUSH1 0x20 DUP2 DUP4 SUB SUB DUP2 MSTORE SWAP1 PUSH1 0x40 MSTORE DUP1 MLOAD SWAP1 PUSH1 0x20 ADD KECCAK256 SWAP1 POP DUP1 PUSH1 0x2 DUP6 PUSH1 0x40 MLOAD PUSH2 0x40B SWAP2 SWAP1 PUSH2 0xEB9 JUMP JUMPDEST SWAP1 DUP2 MSTORE PUSH1 0x20 ADD PUSH1 0x40 MLOAD DUP1 SWAP2 SUB SWAP1 KECCAK256 DUP2 SWAP1 SSTORE POP PUSH1 0x4 DUP5 SWAP1 DUP1 PUSH1 0x1 DUP2 SLOAD ADD DUP1 DUP3 SSTORE DUP1 SWAP2 POP POP PUSH1 0x1 SWAP1 SUB SWAP1 PUSH0 MSTORE PUSH1 0x20 PUSH0 KECCAK256 ADD PUSH0 SWAP1 SWAP2 SWAP1 SWAP2 SWAP1 SWAP2 POP SWAP1 DUP2 PUSH2 0x44E SWAP2 SWAP1 PUSH2 0x14DC JUMP JUMPDEST POP POP POP POP POP JUMP JUMPDEST PUSH1 0x60 PUSH2 0x12C PUSH1 0x1 SLOAD PUSH2 0x467 SWAP2 SWAP1 PUSH2 0xEFC JUMP JUMPDEST TIMESTAMP GT PUSH2 0x4A8 JUMPI PUSH1 0x40 MLOAD PUSH32 0x8C379A000000000000000000000000000000000000000000000000000000000 DUP2 MSTORE PUSH1 0x4 ADD PUSH2 0x49F SWAP1 PUSH2 0x15F5 JUMP JUMPDEST PUSH1 0x40 MLOAD DUP1 SWAP2 SUB SWAP1 REVERT JUMPDEST PUSH0 PUSH1 0x4 PUSH0 DUP2 SLOAD DUP2 LT PUSH2 0x4BD JUMPI PUSH2 0x4BC PUSH2 0x1026 JUMP JUMPDEST JUMPDEST SWAP1 PUSH0 MSTORE PUSH1 0x20 PUSH0 KECCAK256 ADD DUP1 SLOAD PUSH2 0x4D0 SWAP1 PUSH2 0x10E8 JUMP JUMPDEST DUP1 PUSH1 0x1F ADD PUSH1 0x20 DUP1 SWAP2 DIV MUL PUSH1 0x20 ADD PUSH1 0x40 MLOAD SWAP1 DUP2 ADD PUSH1 0x40 MSTORE DUP1 SWAP3 SWAP2 SWAP1 DUP2 DUP2 MSTORE PUSH1 0x20 ADD DUP3 DUP1 SLOAD PUSH2 0x4FC SWAP1 PUSH2 0x10E8 JUMP JUMPDEST DUP1 ISZERO PUSH2 0x547 JUMPI DUP1 PUSH1 0x1F LT PUSH2 0x51E JUMPI PUSH2 0x100 DUP1 DUP4 SLOAD DIV MUL DUP4 MSTORE SWAP2 PUSH1 0x20 ADD SWAP2 PUSH2 0x547 JUMP JUMPDEST DUP3 ADD SWAP2 SWAP1 PUSH0 MSTORE PUSH1 0x20 PUSH0 KECCAK256 SWAP1 JUMPDEST DUP2 SLOAD DUP2 MSTORE SWAP1 PUSH1 0x1 ADD SWAP1 PUSH1 0x20 ADD DUP1 DUP4 GT PUSH2 0x52A JUMPI DUP3 SWAP1 SUB PUSH1 0x1F AND DUP3 ADD SWAP2 JUMPDEST POP POP POP POP POP SWAP1 POP PUSH0 DUP1 PUSH1 0x1 SWAP1 POP JUMPDEST PUSH1 0x4 DUP1 SLOAD SWAP1 POP DUP2 LT ISZERO PUSH2 0x6DF JUMPI PUSH1 0x3 PUSH1 0x4 DUP3 DUP2 SLOAD DUP2 LT PUSH2 0x578 JUMPI PUSH2 0x577 PUSH2 0x1026 JUMP JUMPDEST JUMPDEST SWAP1 PUSH0 MSTORE PUSH1 0x20 PUSH0 KECCAK256 ADD PUSH1 0x40 MLOAD PUSH2 0x58D SWAP2 SWAP1 PUSH2 0x11AA JUMP JUMPDEST SWAP1 DUP2 MSTORE PUSH1 0x20 ADD PUSH1 0x40 MLOAD DUP1 SWAP2 SUB SWAP1 KECCAK256 SLOAD PUSH1 0x3 DUP5 PUSH1 0x40 MLOAD PUSH2 0x5AC SWAP2 SWAP1 PUSH2 0xEB9 JUMP JUMPDEST SWAP1 DUP2 MSTORE PUSH1 0x20 ADD PUSH1 0x40 MLOAD DUP1 SWAP2 SUB SWAP1 KECCAK256 SLOAD LT ISZERO PUSH2 0x66E JUMPI PUSH1 0x4 DUP2 DUP2 SLOAD DUP2 LT PUSH2 0x5D5 JUMPI PUSH2 0x5D4 PUSH2 0x1026 JUMP JUMPDEST JUMPDEST SWAP1 PUSH0 MSTORE PUSH1 0x20 PUSH0 KECCAK256 ADD DUP1 SLOAD PUSH2 0x5E8 SWAP1 PUSH2 0x10E8 JUMP JUMPDEST DUP1 PUSH1 0x1F ADD PUSH1 0x20 DUP1 SWAP2 DIV MUL PUSH1 0x20 ADD PUSH1 0x40 MLOAD SWAP1 DUP2 ADD PUSH1 0x40 MSTORE DUP1 SWAP3 SWAP2 SWAP1 DUP2 DUP2 MSTORE PUSH1 0x20 ADD DUP3 DUP1 SLOAD PUSH2 0x614 SWAP1 PUSH2 0x10E8 JUMP JUMPDEST DUP1 ISZERO PUSH2 0x65F JUMPI DUP1 PUSH1 0x1F LT PUSH2 0x636 JUMPI PUSH2 0x100 DUP1 DUP4 SLOAD DIV MUL DUP4 MSTORE SWAP2 PUSH1 0x20 ADD SWAP2 PUSH2 0x65F JUMP JUMPDEST DUP3 ADD SWAP2 SWAP1 PUSH0 MSTORE PUSH1 0x20 PUSH0 KECCAK256 SWAP1 JUMPDEST DUP2 SLOAD DUP2 MSTORE SWAP1 PUSH1 0x1 ADD SWAP1 PUSH1 0x20 ADD DUP1 DUP4 GT PUSH2 0x642 JUMPI DUP3 SWAP1 SUB PUSH1 0x1F AND DUP3 ADD SWAP2 JUMPDEST POP POP POP POP POP SWAP3 POP PUSH0 SWAP2 POP PUSH2 0x6D2 JUMP JUMPDEST PUSH1 0x3 PUSH1 0x4 DUP3 DUP2 SLOAD DUP2 LT PUSH2 0x684 JUMPI PUSH2 0x683 PUSH2 0x1026 JUMP JUMPDEST JUMPDEST SWAP1 PUSH0 MSTORE PUSH1 0x20 PUSH0 KECCAK256 ADD PUSH1 0x40 MLOAD PUSH2 0x699 SWAP2 SWAP1 PUSH2 0x11AA JUMP JUMPDEST SWAP1 DUP2 MSTORE PUSH1 0x20 ADD PUSH1 0x40 MLOAD DUP1 SWAP2 SUB SWAP1 KECCAK256 SLOAD PUSH1 0x3 DUP5 PUSH1 0x40 MLOAD PUSH2 0x6B8 SWAP2 SWAP1 PUSH2 0xEB9 JUMP JUMPDEST SWAP1 DUP2 MSTORE PUSH1 0x20 ADD PUSH1 0x40 MLOAD DUP1 SWAP2 SUB SWAP1 KECCAK256 SLOAD SUB PUSH2 0x6D1 JUMPI PUSH1 0x1 SWAP2 POP JUMPDEST JUMPDEST DUP1 DUP1 PUSH1 0x1 ADD SWAP2 POP POP PUSH2 0x555 JUMP JUMPDEST POP PUSH1 0x1 ISZERO ISZERO DUP2 ISZERO ISZERO SUB PUSH2 0x708 JUMPI PUSH1 0x40 MLOAD DUP1 PUSH1 0x60 ADD PUSH1 0x40 MSTORE DUP1 PUSH1 0x2A DUP2 MSTORE PUSH1 0x20 ADD PUSH2 0x182A PUSH1 0x2A SWAP2 CODECOPY SWAP2 POP JUMPDEST DUP2 SWAP3 POP POP POP SWAP1 JUMP JUMPDEST PUSH1 0x60 DUP1 PUSH0 JUMPDEST PUSH1 0x4 DUP1 SLOAD SWAP1 POP DUP2 LT ISZERO PUSH2 0x822 JUMPI DUP2 PUSH1 0x4 DUP3 DUP2 SLOAD DUP2 LT PUSH2 0x737 JUMPI PUSH2 0x736 PUSH2 0x1026 JUMP JUMPDEST JUMPDEST SWAP1 PUSH0 MSTORE PUSH1 0x20 PUSH0 KECCAK256 ADD PUSH2 0x7F2 PUSH2 0x7ED PUSH1 0x4 DUP6 DUP2 SLOAD DUP2 LT PUSH2 0x759 JUMPI PUSH2 0x758 PUSH2 0x1026 JUMP JUMPDEST JUMPDEST SWAP1 PUSH0 MSTORE PUSH1 0x20 PUSH0 KECCAK256 ADD DUP1 SLOAD PUSH2 0x76C SWAP1 PUSH2 0x10E8 JUMP JUMPDEST DUP1 PUSH1 0x1F ADD PUSH1 0x20 DUP1 SWAP2 DIV MUL PUSH1 0x20 ADD PUSH1 0x40 MLOAD SWAP1 DUP2 ADD PUSH1 0x40 MSTORE DUP1 SWAP3 SWAP2 SWAP1 DUP2 DUP2 MSTORE PUSH1 0x20 ADD DUP3 DUP1 SLOAD PUSH2 0x798 SWAP1 PUSH2 0x10E8 JUMP JUMPDEST DUP1 ISZERO PUSH2 0x7E3 JUMPI DUP1 PUSH1 0x1F LT PUSH2 0x7BA JUMPI PUSH2 0x100 DUP1 DUP4 SLOAD DIV MUL DUP4 MSTORE SWAP2 PUSH1 0x20 ADD SWAP2 PUSH2 0x7E3 JUMP JUMPDEST DUP3 ADD SWAP2 SWAP1 PUSH0 MSTORE PUSH1 0x20 PUSH0 KECCAK256 SWAP1 JUMPDEST DUP2 SLOAD DUP2 MSTORE SWAP1 PUSH1 0x1 ADD SWAP1 PUSH1 0x20 ADD DUP1 DUP4 GT PUSH2 0x7C6 JUMPI DUP3 SWAP1 SUB PUSH1 0x1F AND DUP3 ADD SWAP2 JUMPDEST POP POP POP POP POP PUSH2 0x126 JUMP JUMPDEST PUSH2 0x8FE JUMP JUMPDEST PUSH1 0x40 MLOAD PUSH1 0x20 ADD PUSH2 0x804 SWAP4 SWAP3 SWAP2 SWAP1 PUSH2 0x16F1 JUMP JUMPDEST PUSH1 0x40 MLOAD PUSH1 0x20 DUP2 DUP4 SUB SUB DUP2 MSTORE SWAP1 PUSH1 0x40 MSTORE SWAP2 POP DUP1 DUP1 PUSH1 0x1 ADD SWAP2 POP POP PUSH2 0x715 JUMP JUMPDEST POP DUP1 SWAP2 POP POP SWAP1 JUMP JUMPDEST PUSH1 0x60 PUSH1 0x4 DUP1 SLOAD DUP1 PUSH1 0x20 MUL PUSH1 0x20 ADD PUSH1 0x40 MLOAD SWAP1 DUP2 ADD PUSH1 0x40 MSTORE DUP1 SWAP3 SWAP2 SWAP1 DUP2 DUP2 MSTORE PUSH1 0x20 ADD PUSH0 SWAP1 JUMPDEST DUP3 DUP3 LT ISZERO PUSH2 0x8F5 JUMPI DUP4 DUP3 SWAP1 PUSH0 MSTORE PUSH1 0x20 PUSH0 KECCAK256 ADD DUP1 SLOAD PUSH2 0x86A SWAP1 PUSH2 0x10E8 JUMP JUMPDEST DUP1 PUSH1 0x1F ADD PUSH1 0x20 DUP1 SWAP2 DIV MUL PUSH1 0x20 ADD PUSH1 0x40 MLOAD SWAP1 DUP2 ADD PUSH1 0x40 MSTORE DUP1 SWAP3 SWAP2 SWAP1 DUP2 DUP2 MSTORE PUSH1 0x20 ADD DUP3 DUP1 SLOAD PUSH2 0x896 SWAP1 PUSH2 0x10E8 JUMP JUMPDEST DUP1 ISZERO PUSH2 0x8E1 JUMPI DUP1 PUSH1 0x1F LT PUSH2 0x8B8 JUMPI PUSH2 0x100 DUP1 DUP4 SLOAD DIV MUL DUP4 MSTORE SWAP2 PUSH1 0x20 ADD SWAP2 PUSH2 0x8E1 JUMP JUMPDEST DUP3 ADD SWAP2 SWAP1 PUSH0 MSTORE PUSH1 0x20 PUSH0 KECCAK256 SWAP1 JUMPDEST DUP2 SLOAD DUP2 MSTORE SWAP1 PUSH1 0x1 ADD SWAP1 PUSH1 0x20 ADD DUP1 DUP4 GT PUSH2 0x8C4 JUMPI DUP3 SWAP1 SUB PUSH1 0x1F AND DUP3 ADD SWAP2 JUMPDEST POP POP POP POP POP DUP2 MSTORE PUSH1 0x20 ADD SWAP1 PUSH1 0x1 ADD SWAP1 PUSH2 0x84D JUMP JUMPDEST POP POP POP POP SWAP1 POP SWAP1 JUMP JUMPDEST PUSH1 0x60 PUSH0 DUP3 SUB PUSH2 0x944 JUMPI PUSH1 0x40 MLOAD DUP1 PUSH1 0x40 ADD PUSH1 0x40 MSTORE DUP1 PUSH1 0x1 DUP2 MSTORE PUSH1 0x20 ADD PUSH32 0x3000000000000000000000000000000000000000000000000000000000000000 DUP2 MSTORE POP SWAP1 POP PUSH2 0xA60 JUMP JUMPDEST PUSH0 DUP3 SWAP1 POP PUSH0 JUMPDEST PUSH0 DUP3 EQ PUSH2 0x973 JUMPI DUP1 DUP1 PUSH2 0x95C SWAP1 PUSH2 0x1228 JUMP JUMPDEST SWAP2 POP POP PUSH1 0xA DUP3 PUSH2 0x96C SWAP2 SWAP1 PUSH2 0x176F JUMP JUMPDEST SWAP2 POP PUSH2 0x94A JUMP JUMPDEST PUSH0 DUP2 PUSH8 0xFFFFFFFFFFFFFFFF DUP2 GT ISZERO PUSH2 0x98E JUMPI PUSH2 0x98D PUSH2 0xA8E JUMP JUMPDEST JUMPDEST PUSH1 0x40 MLOAD SWAP1 DUP1 DUP3 MSTORE DUP1 PUSH1 0x1F ADD PUSH1 0x1F NOT AND PUSH1 0x20 ADD DUP3 ADD PUSH1 0x40 MSTORE DUP1 ISZERO PUSH2 0x9C0 JUMPI DUP2 PUSH1 0x20 ADD PUSH1 0x1 DUP3 MUL DUP1 CALLDATASIZE DUP4 CALLDATACOPY DUP1 DUP3 ADD SWAP2 POP POP SWAP1 POP JUMPDEST POP SWAP1 POP PUSH0 PUSH1 0x1 DUP4 PUSH2 0x9D1 SWAP2 SWAP1 PUSH2 0x179F JUMP JUMPDEST SWAP1 POP JUMPDEST PUSH0 DUP7 EQ PUSH2 0xA58 JUMPI PUSH1 0xA DUP7 PUSH2 0x9E8 SWAP2 SWAP1 PUSH2 0x17D2 JUMP JUMPDEST PUSH1 0x30 PUSH2 0x9F4 SWAP2 SWAP1 PUSH2 0xEFC JUMP JUMPDEST PUSH1 0xF8 SHL DUP3 DUP3 DUP1 PUSH2 0xA03 SWAP1 PUSH2 0x1802 JUMP JUMPDEST SWAP4 POP DUP2 MLOAD DUP2 LT PUSH2 0xA16 JUMPI PUSH2 0xA15 PUSH2 0x1026 JUMP JUMPDEST JUMPDEST PUSH1 0x20 ADD ADD SWAP1 PUSH31 0xFFFFFFFFFFFFFFFFFFFFFFFFFFFFFFFFFFFFFFFFFFFFFFFFFFFFFFFFFFFFFF NOT AND SWAP1 DUP2 PUSH0 BYTE SWAP1 MSTORE8 POP PUSH1 0xA DUP7 PUSH2 0xA51 SWAP2 SWAP1 PUSH2 0x176F JUMP JUMPDEST SWAP6 POP PUSH2 0x9D4 JUMP JUMPDEST DUP2 SWAP5 POP POP POP POP POP JUMPDEST SWAP2 SWAP1 POP JUMP JUMPDEST PUSH0 PUSH1 0x40 MLOAD SWAP1 POP SWAP1 JUMP JUMPDEST PUSH0 DUP1 REVERT JUMPDEST PUSH0 DUP1 REVERT JUMPDEST PUSH0 DUP1 REVERT JUMPDEST PUSH0 DUP1 REVERT JUMPDEST PUSH0 PUSH1 0x1F NOT PUSH1 0x1F DUP4 ADD AND SWAP1 POP SWAP2 SWAP1 POP JUMP JUMPDEST PUSH32 0x4E487B7100000000000000000000000000000000000000000000000000000000 PUSH0 MSTORE PUSH1 0x41 PUSH1 0x4 MSTORE PUSH1 0x24 PUSH0 REVERT JUMPDEST PUSH2 0xAC4 DUP3 PUSH2 0xA7E JUMP JUMPDEST DUP2 ADD DUP2 DUP2 LT PUSH8 0xFFFFFFFFFFFFFFFF DUP3 GT OR ISZERO PUSH2 0xAE3 JUMPI PUSH2 0xAE2 PUSH2 0xA8E JUMP JUMPDEST JUMPDEST DUP1 PUSH1 0x40 MSTORE POP POP POP JUMP JUMPDEST PUSH0 PUSH2 0xAF5 PUSH2 0xA65 JUMP JUMPDEST SWAP1 POP PUSH2 0xB01 DUP3 DUP3 PUSH2 0xABB JUMP JUMPDEST SWAP2 SWAP1 POP JUMP JUMPDEST PUSH0 PUSH8 0xFFFFFFFFFFFFFFFF DUP3 GT ISZERO PUSH2 0xB20 JUMPI PUSH2 0xB1F PUSH2 0xA8E JUMP JUMPDEST JUMPDEST PUSH2 0xB29 DUP3 PUSH2 0xA7E JUMP JUMPDEST SWAP1 POP PUSH1 0x20 DUP2 ADD SWAP1 POP SWAP2 SWAP1 POP JUMP JUMPDEST DUP3 DUP2 DUP4 CALLDATACOPY PUSH0 DUP4 DUP4 ADD MSTORE POP POP POP JUMP JUMPDEST PUSH0 PUSH2 0xB56 PUSH2 0xB51 DUP5 PUSH2 0xB06 JUMP JUMPDEST PUSH2 0xAEC JUMP JUMPDEST SWAP1 POP DUP3 DUP2 MSTORE PUSH1 0x20 DUP2 ADD DUP5 DUP5 DUP5 ADD GT ISZERO PUSH2 0xB72 JUMPI PUSH2 0xB71 PUSH2 0xA7A JUMP JUMPDEST JUMPDEST PUSH2 0xB7D DUP5 DUP3 DUP6 PUSH2 0xB36 JUMP JUMPDEST POP SWAP4 SWAP3 POP POP POP JUMP JUMPDEST PUSH0 DUP3 PUSH1 0x1F DUP4 ADD SLT PUSH2 0xB99 JUMPI PUSH2 0xB98 PUSH2 0xA76 JUMP JUMPDEST JUMPDEST DUP2 CALLDATALOAD PUSH2 0xBA9 DUP5 DUP3 PUSH1 0x20 DUP7 ADD PUSH2 0xB44 JUMP JUMPDEST SWAP2 POP POP SWAP3 SWAP2 POP POP JUMP JUMPDEST PUSH0 PUSH1 0x20 DUP3 DUP5 SUB SLT ISZERO PUSH2 0xBC7 JUMPI PUSH2 0xBC6 PUSH2 0xA6E JUMP JUMPDEST JUMPDEST PUSH0 DUP3 ADD CALLDATALOAD PUSH8 0xFFFFFFFFFFFFFFFF DUP2 GT ISZERO PUSH2 0xBE4 JUMPI PUSH2 0xBE3 PUSH2 0xA72 JUMP JUMPDEST JUMPDEST PUSH2 0xBF0 DUP5 DUP3 DUP6 ADD PUSH2 0xB85 JUMP JUMPDEST SWAP2 POP POP SWAP3 SWAP2 POP POP JUMP JUMPDEST PUSH0 DUP2 SWAP1 POP SWAP2 SWAP1 POP JUMP JUMPDEST PUSH2 0xC0B DUP2 PUSH2 0xBF9 JUMP JUMPDEST DUP3 MSTORE POP POP JUMP JUMPDEST PUSH0 PUSH1 0x20 DUP3 ADD SWAP1 POP PUSH2 0xC24 PUSH0 DUP4 ADD DUP5 PUSH2 0xC02 JUMP JUMPDEST SWAP3 SWAP2 POP POP JUMP JUMPDEST PUSH2 0xC33 DUP2 PUSH2 0xBF9 JUMP JUMPDEST DUP2 EQ PUSH2 0xC3D JUMPI PUSH0 DUP1 REVERT JUMPDEST POP JUMP JUMPDEST PUSH0 DUP2 CALLDATALOAD SWAP1 POP PUSH2 0xC4E DUP2 PUSH2 0xC2A JUMP JUMPDEST SWAP3 SWAP2 POP POP JUMP JUMPDEST PUSH0 DUP1 PUSH0 PUSH1 0x60 DUP5 DUP7 SUB SLT ISZERO PUSH2 0xC6B JUMPI PUSH2 0xC6A PUSH2 0xA6E JUMP JUMPDEST JUMPDEST PUSH0 DUP5 ADD CALLDATALOAD PUSH8 0xFFFFFFFFFFFFFFFF DUP2 GT ISZERO PUSH2 0xC88 JUMPI PUSH2 0xC87 PUSH2 0xA72 JUMP JUMPDEST JUMPDEST PUSH2 0xC94 DUP7 DUP3 DUP8 ADD PUSH2 0xB85 JUMP JUMPDEST SWAP4 POP POP PUSH1 0x20 PUSH2 0xCA5 DUP7 DUP3 DUP8 ADD PUSH2 0xC40 JUMP JUMPDEST SWAP3 POP POP PUSH1 0x40 DUP5 ADD CALLDATALOAD PUSH8 0xFFFFFFFFFFFFFFFF DUP2 GT ISZERO PUSH2 0xCC6 JUMPI PUSH2 0xCC5 PUSH2 0xA72 JUMP JUMPDEST JUMPDEST PUSH2 0xCD2 DUP7 DUP3 DUP8 ADD PUSH2 0xB85 JUMP JUMPDEST SWAP2 POP POP SWAP3 POP SWAP3 POP SWAP3 JUMP JUMPDEST PUSH0 DUP2 MLOAD SWAP1 POP SWAP2 SWAP1 POP JUMP JUMPDEST PUSH0 DUP3 DUP3 MSTORE PUSH1 0x20 DUP3 ADD SWAP1 POP SWAP3 SWAP2 POP POP JUMP JUMPDEST DUP3 DUP2 DUP4 MCOPY PUSH0 DUP4 DUP4 ADD MSTORE POP POP POP JUMP JUMPDEST PUSH0 PUSH2 0xD0E DUP3 PUSH2 0xCDC JUMP JUMPDEST PUSH2 0xD18 DUP2 DUP6 PUSH2 0xCE6 JUMP JUMPDEST SWAP4 POP PUSH2 0xD28 DUP2 DUP6 PUSH1 0x20 DUP7 ADD PUSH2 0xCF6 JUMP JUMPDEST PUSH2 0xD31 DUP2 PUSH2 0xA7E JUMP JUMPDEST DUP5 ADD SWAP2 POP POP SWAP3 SWAP2 POP POP JUMP JUMPDEST PUSH0 PUSH1 0x20 DUP3 ADD SWAP1 POP DUP2 DUP2 SUB PUSH0 DUP4 ADD MSTORE PUSH2 0xD54 DUP2 DUP5 PUSH2 0xD04 JUMP JUMPDEST SWAP1 POP SWAP3 SWAP2 POP POP JUMP JUMPDEST PUSH0 DUP2 MLOAD SWAP1 POP SWAP2 SWAP1 POP JUMP JUMPDEST PUSH0 DUP3 DUP3 MSTORE PUSH1 0x20 DUP3 ADD SWAP1 POP SWAP3 SWAP2 POP POP JUMP JUMPDEST PUSH0 DUP2 SWAP1 POP PUSH1 0x20 DUP3 ADD SWAP1 POP SWAP2 SWAP1 POP JUMP JUMPDEST PUSH0 DUP3 DUP3 MSTORE PUSH1 0x20 DUP3 ADD SWAP1 POP SWAP3 SWAP2 POP POP JUMP JUMPDEST PUSH0 PUSH2 0xD9F DUP3 PUSH2 0xCDC JUMP JUMPDEST PUSH2 0xDA9 DUP2 DUP6 PUSH2 0xD85 JUMP JUMPDEST SWAP4 POP PUSH2 0xDB9 DUP2 DUP6 PUSH1 0x20 DUP7 ADD PUSH2 0xCF6 JUMP JUMPDEST PUSH2 0xDC2 DUP2 PUSH2 0xA7E JUMP JUMPDEST DUP5 ADD SWAP2 POP POP SWAP3 SWAP2 POP POP JUMP JUMPDEST PUSH0 PUSH2 0xDD8 DUP4 DUP4 PUSH2 0xD95 JUMP JUMPDEST SWAP1 POP SWAP3 SWAP2 POP POP JUMP JUMPDEST PUSH0 PUSH1 0x20 DUP3 ADD SWAP1 POP SWAP2 SWAP1 POP JUMP JUMPDEST PUSH0 PUSH2 0xDF6 DUP3 PUSH2 0xD5C JUMP JUMPDEST PUSH2 0xE00 DUP2 DUP6 PUSH2 0xD66 JUMP JUMPDEST SWAP4 POP DUP4 PUSH1 0x20 DUP3 MUL DUP6 ADD PUSH2 0xE12 DUP6 PUSH2 0xD76 JUMP JUMPDEST DUP1 PUSH0 JUMPDEST DUP6 DUP2 LT ISZERO PUSH2 0xE4D JUMPI DUP5 DUP5 SUB DUP10 MSTORE DUP2 MLOAD PUSH2 0xE2E DUP6 DUP3 PUSH2 0xDCD JUMP JUMPDEST SWAP5 POP PUSH2 0xE39 DUP4 PUSH2 0xDE0 JUMP JUMPDEST SWAP3 POP PUSH1 0x20 DUP11 ADD SWAP10 POP POP PUSH1 0x1 DUP2 ADD SWAP1 POP PUSH2 0xE15 JUMP JUMPDEST POP DUP3 SWAP8 POP DUP8 SWAP6 POP POP POP POP POP POP SWAP3 SWAP2 POP POP JUMP JUMPDEST PUSH0 PUSH1 0x20 DUP3 ADD SWAP1 POP DUP2 DUP2 SUB PUSH0 DUP4 ADD MSTORE PUSH2 0xE77 DUP2 DUP5 PUSH2 0xDEC JUMP JUMPDEST SWAP1 POP SWAP3 SWAP2 POP POP JUMP JUMPDEST PUSH0 DUP2 SWAP1 POP SWAP3 SWAP2 POP POP JUMP JUMPDEST PUSH0 PUSH2 0xE93 DUP3 PUSH2 0xCDC JUMP JUMPDEST PUSH2 0xE9D DUP2 DUP6 PUSH2 0xE7F JUMP JUMPDEST SWAP4 POP PUSH2 0xEAD DUP2 DUP6 PUSH1 0x20 DUP7 ADD PUSH2 0xCF6 JUMP JUMPDEST DUP1 DUP5 ADD SWAP2 POP POP SWAP3 SWAP2 POP POP JUMP JUMPDEST PUSH0 PUSH2 0xEC4 DUP3 DUP5 PUSH2 0xE89 JUMP JUMPDEST SWAP2 POP DUP2 SWAP1 POP SWAP3 SWAP2 POP POP JUMP JUMPDEST PUSH32 0x4E487B7100000000000000000000000000000000000000000000000000000000 PUSH0 MSTORE PUSH1 0x11 PUSH1 0x4 MSTORE PUSH1 0x24 PUSH0 REVERT JUMPDEST PUSH0 PUSH2 0xF06 DUP3 PUSH2 0xBF9 JUMP JUMPDEST SWAP2 POP PUSH2 0xF11 DUP4 PUSH2 0xBF9 JUMP JUMPDEST SWAP3 POP DUP3 DUP3 ADD SWAP1 POP DUP1 DUP3 GT ISZERO PUSH2 0xF29 JUMPI PUSH2 0xF28 PUSH2 0xECF JUMP JUMPDEST JUMPDEST SWAP3 SWAP2 POP POP JUMP JUMPDEST PUSH32 0x566F74696E672074696D6520657870697265642E000000000000000000000000 PUSH0 DUP3 ADD MSTORE POP JUMP JUMPDEST PUSH0 PUSH2 0xF63 PUSH1 0x14 DUP4 PUSH2 0xCE6 JUMP JUMPDEST SWAP2 POP PUSH2 0xF6E DUP3 PUSH2 0xF2F JUMP JUMPDEST PUSH1 0x20 DUP3 ADD SWAP1 POP SWAP2 SWAP1 POP JUMP JUMPDEST PUSH0 PUSH1 0x20 DUP3 ADD SWAP1 POP DUP2 DUP2 SUB PUSH0 DUP4 ADD MSTORE PUSH2 0xF90 DUP2 PUSH2 0xF57 JUMP JUMPDEST SWAP1 POP SWAP2 SWAP1 POP JUMP JUMPDEST PUSH0 PUSH20 0xFFFFFFFFFFFFFFFFFFFFFFFFFFFFFFFFFFFFFFFF DUP3 AND SWAP1 POP SWAP2 SWAP1 POP JUMP JUMPDEST PUSH0 PUSH2 0xFC0 DUP3 PUSH2 0xF97 JUMP JUMPDEST SWAP1 POP SWAP2 SWAP1 POP JUMP JUMPDEST PUSH0 DUP2 PUSH1 0x60 SHL SWAP1 POP SWAP2 SWAP1 POP JUMP JUMPDEST PUSH0 PUSH2 0xFDD DUP3 PUSH2 0xFC7 JUMP JUMPDEST SWAP1 POP SWAP2 SWAP1 POP JUMP JUMPDEST PUSH0 PUSH2 0xFEE DUP3 PUSH2 0xFD3 JUMP JUMPDEST SWAP1 POP SWAP2 SWAP1 POP JUMP JUMPDEST PUSH2 0x1006 PUSH2 0x1001 DUP3 PUSH2 0xFB6 JUMP JUMPDEST PUSH2 0xFE4 JUMP JUMPDEST DUP3 MSTORE POP POP JUMP JUMPDEST PUSH0 PUSH2 0x1017 DUP3 DUP5 PUSH2 0xFF5 JUMP JUMPDEST PUSH1 0x14 DUP3 ADD SWAP2 POP DUP2 SWAP1 POP SWAP3 SWAP2 POP POP JUMP JUMPDEST PUSH32 0x4E487B7100000000000000000000000000000000000000000000000000000000 PUSH0 MSTORE PUSH1 0x32 PUSH1 0x4 MSTORE PUSH1 0x24 PUSH0 REVERT JUMPDEST PUSH32 0x596F75206861766520616C726561647920766F74656421000000000000000000 PUSH0 DUP3 ADD MSTORE POP JUMP JUMPDEST PUSH0 PUSH2 0x1087 PUSH1 0x17 DUP4 PUSH2 0xCE6 JUMP JUMPDEST SWAP2 POP PUSH2 0x1092 DUP3 PUSH2 0x1053 JUMP JUMPDEST PUSH1 0x20 DUP3 ADD SWAP1 POP SWAP2 SWAP1 POP JUMP JUMPDEST PUSH0 PUSH1 0x20 DUP3 ADD SWAP1 POP DUP2 DUP2 SUB PUSH0 DUP4 ADD MSTORE PUSH2 0x10B4 DUP2 PUSH2 0x107B JUMP JUMPDEST SWAP1 POP SWAP2 SWAP1 POP JUMP JUMPDEST PUSH32 0x4E487B7100000000000000000000000000000000000000000000000000000000 PUSH0 MSTORE PUSH1 0x22 PUSH1 0x4 MSTORE PUSH1 0x24 PUSH0 REVERT JUMPDEST PUSH0 PUSH1 0x2 DUP3 DIV SWAP1 POP PUSH1 0x1 DUP3 AND DUP1 PUSH2 0x10FF JUMPI PUSH1 0x7F DUP3 AND SWAP2 POP JUMPDEST PUSH1 0x20 DUP3 LT DUP2 SUB PUSH2 0x1112 JUMPI PUSH2 0x1111 PUSH2 0x10BB JUMP JUMPDEST JUMPDEST POP SWAP2 SWAP1 POP JUMP JUMPDEST PUSH0 DUP2 SWAP1 POP DUP2 PUSH0 MSTORE PUSH1 0x20 PUSH0 KECCAK256 SWAP1 POP SWAP2 SWAP1 POP JUMP JUMPDEST PUSH0 DUP2 SLOAD PUSH2 0x1136 DUP2 PUSH2 0x10E8 JUMP JUMPDEST PUSH2 0x1140 DUP2 DUP7 PUSH2 0xE7F JUMP JUMPDEST SWAP5 POP PUSH1 0x1 DUP3 AND PUSH0 DUP2 EQ PUSH2 0x115A JUMPI PUSH1 0x1 DUP2 EQ PUSH2 0x116F JUMPI PUSH2 0x11A1 JUMP JUMPDEST PUSH1 0xFF NOT DUP4 AND DUP7 MSTORE DUP2 ISZERO ISZERO DUP3 MUL DUP7 ADD SWAP4 POP PUSH2 0x11A1 JUMP JUMPDEST PUSH2 0x1178 DUP6 PUSH2 0x1118 JUMP JUMPDEST PUSH0 JUMPDEST DUP4 DUP2 LT ISZERO PUSH2 0x1199 JUMPI DUP2 SLOAD DUP2 DUP10 ADD MSTORE PUSH1 0x1 DUP3 ADD SWAP2 POP PUSH1 0x20 DUP2 ADD SWAP1 POP PUSH2 0x117A JUMP JUMPDEST DUP4 DUP9 ADD SWAP6 POP POP POP JUMPDEST POP POP POP SWAP3 SWAP2 POP POP JUMP JUMPDEST PUSH0 PUSH2 0x11B5 DUP3 DUP5 PUSH2 0x112A JUMP JUMPDEST SWAP2 POP DUP2 SWAP1 POP SWAP3 SWAP2 POP POP JUMP JUMPDEST PUSH32 0x4E6F20737563682063616E6469646174652070726573656E742E000000000000 PUSH0 DUP3 ADD MSTORE POP JUMP JUMPDEST PUSH0 PUSH2 0x11F4 PUSH1 0x1A DUP4 PUSH2 0xCE6 JUMP JUMPDEST SWAP2 POP PUSH2 0x11FF DUP3 PUSH2 0x11C0 JUMP JUMPDEST PUSH1 0x20 DUP3 ADD SWAP1 POP SWAP2 SWAP1 POP JUMP JUMPDEST PUSH0 PUSH1 0x20 DUP3 ADD SWAP1 POP DUP2 DUP2 SUB PUSH0 DUP4 ADD MSTORE PUSH2 0x1221 DUP2 PUSH2 0x11E8 JUMP JUMPDEST SWAP1 POP SWAP2 SWAP1 POP JUMP JUMPDEST PUSH0 PUSH2 0x1232 DUP3 PUSH2 0xBF9 JUMP JUMPDEST SWAP2 POP PUSH32 0xFFFFFFFFFFFFFFFFFFFFFFFFFFFFFFFFFFFFFFFFFFFFFFFFFFFFFFFFFFFFFFFF DUP3 SUB PUSH2 0x1264 JUMPI PUSH2 0x1263 PUSH2 0xECF JUMP JUMPDEST JUMPDEST PUSH1 0x1 DUP3 ADD SWAP1 POP SWAP2 SWAP1 POP JUMP JUMPDEST PUSH32 0x43616E646964617465732063616E206E6F206C6F6E676572206265207375626D PUSH0 DUP3 ADD MSTORE PUSH32 0x6974746564000000000000000000000000000000000000000000000000000000 PUSH1 0x20 DUP3 ADD MSTORE POP JUMP JUMPDEST PUSH0 PUSH2 0x12C9 PUSH1 0x25 DUP4 PUSH2 0xCE6 JUMP JUMPDEST SWAP2 POP PUSH2 0x12D4 DUP3 PUSH2 0x126F JUMP JUMPDEST PUSH1 0x40 DUP3 ADD SWAP1 POP SWAP2 SWAP1 POP JUMP JUMPDEST PUSH0 PUSH1 0x20 DUP3 ADD SWAP1 POP DUP2 DUP2 SUB PUSH0 DUP4 ADD MSTORE PUSH2 0x12F6 DUP2 PUSH2 0x12BD JUMP JUMPDEST SWAP1 POP SWAP2 SWAP1 POP JUMP JUMPDEST PUSH0 DUP2 SWAP1 POP SWAP2 SWAP1 POP JUMP JUMPDEST PUSH2 0x1317 PUSH2 0x1312 DUP3 PUSH2 0xBF9 JUMP JUMPDEST PUSH2 0x12FD JUMP JUMPDEST DUP3 MSTORE POP POP JUMP JUMPDEST PUSH0 PUSH2 0x1328 DUP3 DUP7 PUSH2 0xE89 JUMP JUMPDEST SWAP2 POP PUSH2 0x1334 DUP3 DUP6 PUSH2 0x1306 JUMP JUMPDEST PUSH1 0x20 DUP3 ADD SWAP2 POP PUSH2 0x1344 DUP3 DUP5 PUSH2 0xE89 JUMP JUMPDEST SWAP2 POP DUP2 SWAP1 POP SWAP5 SWAP4 POP POP POP POP JUMP JUMPDEST PUSH0 PUSH1 0x20 PUSH1 0x1F DUP4 ADD DIV SWAP1 POP SWAP2 SWAP1 POP JUMP JUMPDEST PUSH0 DUP3 DUP3 SHL SWAP1 POP SWAP3 SWAP2 POP POP JUMP JUMPDEST PUSH0 PUSH1 0x8 DUP4 MUL PUSH2 0x139B PUSH32 0xFFFFFFFFFFFFFFFFFFFFFFFFFFFFFFFFFFFFFFFFFFFFFFFFFFFFFFFFFFFFFFFF DUP3 PUSH2 0x1360 JUMP JUMPDEST PUSH2 0x13A5 DUP7 DUP4 PUSH2 0x1360 JUMP JUMPDEST SWAP6 POP DUP1 NOT DUP5 AND SWAP4 POP DUP1 DUP7 AND DUP5 OR SWAP3 POP POP POP SWAP4 SWAP3 POP POP POP JUMP JUMPDEST PUSH0 DUP2 SWAP1 POP SWAP2 SWAP1 POP JUMP JUMPDEST PUSH0 PUSH2 0x13E0 PUSH2 0x13DB PUSH2 0x13D6 DUP5 PUSH2 0xBF9 JUMP JUMPDEST PUSH2 0x13BD JUMP JUMPDEST PUSH2 0xBF9 JUMP JUMPDEST SWAP1 POP SWAP2 SWAP1 POP JUMP JUMPDEST PUSH0 DUP2 SWAP1 POP SWAP2 SWAP1 POP JUMP JUMPDEST PUSH2 0x13F9 DUP4 PUSH2 0x13C6 JUMP JUMPDEST PUSH2 0x140D PUSH2 0x1405 DUP3 PUSH2 0x13E7 JUMP JUMPDEST DUP5 DUP5 SLOAD PUSH2 0x136C JUMP JUMPDEST DUP3 SSTORE POP POP POP POP JUMP JUMPDEST PUSH0 SWAP1 JUMP JUMPDEST PUSH2 0x1421 PUSH2 0x1415 JUMP JUMPDEST PUSH2 0x142C DUP2 DUP5 DUP5 PUSH2 0x13F0 JUMP JUMPDEST POP POP POP JUMP JUMPDEST JUMPDEST DUP2 DUP2 LT ISZERO PUSH2 0x144F JUMPI PUSH2 0x1444 PUSH0 DUP3 PUSH2 0x1419 JUMP JUMPDEST PUSH1 0x1 DUP2 ADD SWAP1 POP PUSH2 0x1432 JUMP JUMPDEST POP POP JUMP JUMPDEST PUSH1 0x1F DUP3 GT ISZERO PUSH2 0x1494 JUMPI PUSH2 0x1465 DUP2 PUSH2 0x1118 JUMP JUMPDEST PUSH2 0x146E DUP5 PUSH2 0x1351 JUMP JUMPDEST DUP2 ADD PUSH1 0x20 DUP6 LT ISZERO PUSH2 0x147D JUMPI DUP2 SWAP1 POP JUMPDEST PUSH2 0x1491 PUSH2 0x1489 DUP6 PUSH2 0x1351 JUMP JUMPDEST DUP4 ADD DUP3 PUSH2 0x1431 JUMP JUMPDEST POP POP JUMPDEST POP POP POP JUMP JUMPDEST PUSH0 DUP3 DUP3 SHR SWAP1 POP SWAP3 SWAP2 POP POP JUMP JUMPDEST PUSH0 PUSH2 0x14B4 PUSH0 NOT DUP5 PUSH1 0x8 MUL PUSH2 0x1499 JUMP JUMPDEST NOT DUP1 DUP4 AND SWAP2 POP POP SWAP3 SWAP2 POP POP JUMP JUMPDEST PUSH0 PUSH2 0x14CC DUP4 DUP4 PUSH2 0x14A5 JUMP JUMPDEST SWAP2 POP DUP3 PUSH1 0x2 MUL DUP3 OR SWAP1 POP SWAP3 SWAP2 POP POP JUMP JUMPDEST PUSH2 0x14E5 DUP3 PUSH2 0xCDC JUMP JUMPDEST PUSH8 0xFFFFFFFFFFFFFFFF DUP2 GT ISZERO PUSH2 0x14FE JUMPI PUSH2 0x14FD PUSH2 0xA8E JUMP JUMPDEST JUMPDEST PUSH2 0x1508 DUP3 SLOAD PUSH2 0x10E8 JUMP JUMPDEST PUSH2 0x1513 DUP3 DUP3 DUP6 PUSH2 0x1453 JUMP JUMPDEST PUSH0 PUSH1 0x20 SWAP1 POP PUSH1 0x1F DUP4 GT PUSH1 0x1 DUP2 EQ PUSH2 0x1544 JUMPI PUSH0 DUP5 ISZERO PUSH2 0x1532 JUMPI DUP3 DUP8 ADD MLOAD SWAP1 POP JUMPDEST PUSH2 0x153C DUP6 DUP3 PUSH2 0x14C1 JUMP JUMPDEST DUP7 SSTORE POP PUSH2 0x15A3 JUMP JUMPDEST PUSH1 0x1F NOT DUP5 AND PUSH2 0x1552 DUP7 PUSH2 0x1118 JUMP JUMPDEST PUSH0 JUMPDEST DUP3 DUP2 LT ISZERO PUSH2 0x1579 JUMPI DUP5 DUP10 ADD MLOAD DUP3 SSTORE PUSH1 0x1 DUP3 ADD SWAP2 POP PUSH1 0x20 DUP6 ADD SWAP5 POP PUSH1 0x20 DUP2 ADD SWAP1 POP PUSH2 0x1554 JUMP JUMPDEST DUP7 DUP4 LT ISZERO PUSH2 0x1596 JUMPI DUP5 DUP10 ADD MLOAD PUSH2 0x1592 PUSH1 0x1F DUP10 AND DUP3 PUSH2 0x14A5 JUMP JUMPDEST DUP4 SSTORE POP JUMPDEST PUSH1 0x1 PUSH1 0x2 DUP9 MUL ADD DUP9 SSTORE POP POP POP JUMPDEST POP POP POP POP POP POP JUMP JUMPDEST PUSH32 0x566F74696E67206973207374696C6C20696E2070726F67726573730000000000 PUSH0 DUP3 ADD MSTORE POP JUMP JUMPDEST PUSH0 PUSH2 0x15DF PUSH1 0x1B DUP4 PUSH2 0xCE6 JUMP JUMPDEST SWAP2 POP PUSH2 0x15EA DUP3 PUSH2 0x15AB JUMP JUMPDEST PUSH1 0x20 DUP3 ADD SWAP1 POP SWAP2 SWAP1 POP JUMP JUMPDEST PUSH0 PUSH1 0x20 DUP3 ADD SWAP1 POP DUP2 DUP2 SUB PUSH0 DUP4 ADD MSTORE PUSH2 0x160C DUP2 PUSH2 0x15D3 JUMP JUMPDEST SWAP1 POP SWAP2 SWAP1 POP JUMP JUMPDEST PUSH32 0x2800000000000000000000000000000000000000000000000000000000000000 PUSH0 DUP3 ADD MSTORE POP JUMP JUMPDEST PUSH0 PUSH2 0x1647 PUSH1 0x1 DUP4 PUSH2 0xE7F JUMP JUMPDEST SWAP2 POP PUSH2 0x1652 DUP3 PUSH2 0x1613 JUMP JUMPDEST PUSH1 0x1 DUP3 ADD SWAP1 POP SWAP2 SWAP1 POP JUMP JUMPDEST PUSH32 0x2C20000000000000000000000000000000000000000000000000000000000000 PUSH0 DUP3 ADD MSTORE POP JUMP JUMPDEST PUSH0 PUSH2 0x1691 PUSH1 0x2 DUP4 PUSH2 0xE7F JUMP JUMPDEST SWAP2 POP PUSH2 0x169C DUP3 PUSH2 0x165D JUMP JUMPDEST PUSH1 0x2 DUP3 ADD SWAP1 POP SWAP2 SWAP1 POP JUMP JUMPDEST PUSH32 0x292D2D2D00000000000000000000000000000000000000000000000000000000 PUSH0 DUP3 ADD MSTORE POP JUMP JUMPDEST PUSH0 PUSH2 0x16DB PUSH1 0x4 DUP4 PUSH2 0xE7F JUMP JUMPDEST SWAP2 POP PUSH2 0x16E6 DUP3 PUSH2 0x16A7 JUMP JUMPDEST PUSH1 0x4 DUP3 ADD SWAP1 POP SWAP2 SWAP1 POP JUMP JUMPDEST PUSH0 PUSH2 0x16FC DUP3 DUP7 PUSH2 0xE89 JUMP JUMPDEST SWAP2 POP PUSH2 0x1707 DUP3 PUSH2 0x163B JUMP JUMPDEST SWAP2 POP PUSH2 0x1713 DUP3 DUP6 PUSH2 0x112A JUMP JUMPDEST SWAP2 POP PUSH2 0x171E DUP3 PUSH2 0x1685 JUMP JUMPDEST SWAP2 POP PUSH2 0x172A DUP3 DUP5 PUSH2 0xE89 JUMP JUMPDEST SWAP2 POP PUSH2 0x1735 DUP3 PUSH2 0x16CF JUMP JUMPDEST SWAP2 POP DUP2 SWAP1 POP SWAP5 SWAP4 POP POP POP POP JUMP JUMPDEST PUSH32 0x4E487B7100000000000000000000000000000000000000000000000000000000 PUSH0 MSTORE PUSH1 0x12 PUSH1 0x4 MSTORE PUSH1 0x24 PUSH0 REVERT JUMPDEST PUSH0 PUSH2 0x1779 DUP3 PUSH2 0xBF9 JUMP JUMPDEST SWAP2 POP PUSH2 0x1784 DUP4 PUSH2 0xBF9 JUMP JUMPDEST SWAP3 POP DUP3 PUSH2 0x1794 JUMPI PUSH2 0x1793 PUSH2 0x1742 JUMP JUMPDEST JUMPDEST DUP3 DUP3 DIV SWAP1 POP SWAP3 SWAP2 POP POP JUMP JUMPDEST PUSH0 PUSH2 0x17A9 DUP3 PUSH2 0xBF9 JUMP JUMPDEST SWAP2 POP PUSH2 0x17B4 DUP4 PUSH2 0xBF9 JUMP JUMPDEST SWAP3 POP DUP3 DUP3 SUB SWAP1 POP DUP2 DUP2 GT ISZERO PUSH2 0x17CC JUMPI PUSH2 0x17CB PUSH2 0xECF JUMP JUMPDEST JUMPDEST SWAP3 SWAP2 POP POP JUMP JUMPDEST PUSH0 PUSH2 0x17DC DUP3 PUSH2 0xBF9 JUMP JUMPDEST SWAP2 POP PUSH2 0x17E7 DUP4 PUSH2 0xBF9 JUMP JUMPDEST SWAP3 POP DUP3 PUSH2 0x17F7 JUMPI PUSH2 0x17F6 PUSH2 0x1742 JUMP JUMPDEST JUMPDEST DUP3 DUP3 MOD SWAP1 POP SWAP3 SWAP2 POP POP JUMP JUMPDEST PUSH0 PUSH2 0x180C DUP3 PUSH2 0xBF9 JUMP JUMPDEST SWAP2 POP PUSH0 DUP3 SUB PUSH2 0x181E JUMPI PUSH2 0x181D PUSH2 0xECF JUMP JUMPDEST JUMPDEST PUSH1 0x1 DUP3 SUB SWAP1 POP SWAP2 SWAP1 POP JUMP INVALID GASLIMIT PUSH18 0x75616C20766F746573206265747765656E20 PUSH4 0x616E6469 PUSH5 0x617465732E KECCAK256 0x4E PUSH16 0x2077696E6E657221A264697066735822 SLT KECCAK256 PUSH22 0x26F2E5106373D9A475B8D0D24603F71AA2A873EB400B PUSH18 0x4D009A2740D2AE1B64736F6C634300081A00 CALLER "
				},
				"gasEstimates": {
					"creation": {
						"codeDepositCost": "1256200",
						"executionCost": "47684",
						"totalCost": "1303884"
					},
					"external": {
						"Vote(string)": "infinite",
						"Winner()": "infinite",
						"candidateRegistration(string,uint256,string)": "infinite",
						"seeCandidates()": "infinite",
						"seeResults()": "infinite",
						"seeVotes(string)": "infinite"
					},
					"internal": {
						"uint2str(uint256)": "infinite"
					}
				},
				"methodIdentifiers": {
					"Vote(string)": "323082d7",
					"Winner()": "b2b98ed2",
					"candidateRegistration(string,uint256,string)": "33bbc887",
					"seeCandidates()": "c03cd5d1",
					"seeResults()": "bc9cd2ce",
					"seeVotes(string)": "032a08d9"
				}
			},
			"storageLayout": {
				"storage": [
					{
						"astId": 3,
						"contract": "contracts/voting.sol:voting",
						"label": "contractAddressOwner",
						"offset": 0,
						"slot": "0",
						"type": "t_address"
					},
					{
						"astId": 5,
						"contract": "contracts/voting.sol:voting",
						"label": "voting_start_time",
						"offset": 0,
						"slot": "1",
						"type": "t_uint256"
					},
					{
						"astId": 23,
						"contract": "contracts/voting.sol:voting",
						"label": "candidate_ID",
						"offset": 0,
						"slot": "2",
						"type": "t_mapping(t_string_memory_ptr,t_bytes32)"
					},
					{
						"astId": 27,
						"contract": "contracts/voting.sol:voting",
						"label": "candidate_votes",
						"offset": 0,
						"slot": "3",
						"type": "t_mapping(t_string_memory_ptr,t_uint256)"
					},
					{
						"astId": 30,
						"contract": "contracts/voting.sol:voting",
						"label": "candidates",
						"offset": 0,
						"slot": "4",
						"type": "t_array(t_string_storage)dyn_storage"
					},
					{
						"astId": 33,
						"contract": "contracts/voting.sol:voting",
						"label": "voters",
						"offset": 0,
						"slot": "5",
						"type": "t_array(t_bytes32)dyn_storage"
					}
				],
				"types": {
					"t_address": {
						"encoding": "inplace",
						"label": "address",
						"numberOfBytes": "20"
					},
					"t_array(t_bytes32)dyn_storage": {
						"base": "t_bytes32",
						"encoding": "dynamic_array",
						"label": "bytes32[]",
						"numberOfBytes": "32"
					},
					"t_array(t_string_storage)dyn_storage": {
						"base": "t_string_storage",
						"encoding": "dynamic_array",
						"label": "string[]",
						"numberOfBytes": "32"
					},
					"t_bytes32": {
						"encoding": "inplace",
						"label": "bytes32",
						"numberOfBytes": "32"
					},
					"t_mapping(t_string_memory_ptr,t_bytes32)": {
						"encoding": "mapping",
						"key": "t_string_memory_ptr",
						"label": "mapping(string => bytes32)",
						"numberOfBytes": "32",
						"value": "t_bytes32"
					},
					"t_mapping(t_string_memory_ptr,t_uint256)": {
						"encoding": "mapping",
						"key": "t_string_memory_ptr",
						"label": "mapping(string => uint256)",
						"numberOfBytes": "32",
						"value": "t_uint256"
					},
					"t_string_memory_ptr": {
						"encoding": "bytes",
						"label": "string",
						"numberOfBytes": "32"
					},
					"t_string_storage": {
						"encoding": "bytes",
						"label": "string",
						"numberOfBytes": "32"
					},
					"t_uint256": {
						"encoding": "inplace",
						"label": "uint256",
						"numberOfBytes": "32"
					}
				}
			},
			"userdoc": {
				"kind": "user",
				"methods": {},
				"version": 1
			}
		}
	}
}